{
	"variable_scopes.sol": {
		"MyContract": {
			"abi": [
				{
					"inputs": [],
					"name": "myVariable",
					"outputs": [
						{
							"internalType": "uint256",
							"name": "",
							"type": "uint256"
						}
					],
					"stateMutability": "view",
					"type": "function"
				},
				{
					"inputs": [
						{
							"internalType": "uint256",
							"name": "newValue",
							"type": "uint256"
						}
					],
					"name": "setMyVariable",
					"outputs": [],
					"stateMutability": "nonpayable",
					"type": "function"
				},
				{
					"inputs": [
						{
							"internalType": "uint256",
							"name": "newValue",
							"type": "uint256"
						}
					],
					"name": "setMyVariable2",
					"outputs": [],
					"stateMutability": "nonpayable",
					"type": "function"
				}
			],
			"devdoc": {
				"kind": "dev",
				"methods": {},
				"version": 1
			},
			"evm": {
				"assembly": "    /* \"variable_scopes.sol\":66:550  contract MyContract {... */\n  mstore(0x40, 0x80)\n  callvalue\n  dup1\n  iszero\n  tag_1\n  jumpi\n  0x00\n  dup1\n  revert\ntag_1:\n  pop\n  dataSize(sub_0)\n  dup1\n  dataOffset(sub_0)\n  0x00\n  codecopy\n  0x00\n  return\nstop\n\nsub_0: assembly {\n        /* \"variable_scopes.sol\":66:550  contract MyContract {... */\n      mstore(0x40, 0x80)\n      callvalue\n      dup1\n      iszero\n      tag_1\n      jumpi\n      0x00\n      dup1\n      revert\n    tag_1:\n      pop\n      jumpi(tag_2, lt(calldatasize, 0x04))\n      shr(0xe0, calldataload(0x00))\n      dup1\n      0x4e59ff56\n      eq\n      tag_3\n      jumpi\n      dup1\n      0x6ec9c7ae\n      eq\n      tag_4\n      jumpi\n      dup1\n      0xe2986dc2\n      eq\n      tag_5\n      jumpi\n    tag_2:\n      0x00\n      dup1\n      revert\n        /* \"variable_scopes.sol\":92:114  uint public myVariable */\n    tag_3:\n      tag_6\n      tag_7\n      jump\t// in\n    tag_6:\n      mload(0x40)\n      dup1\n      dup3\n      dup2\n      mstore\n      0x20\n      add\n      swap2\n      pop\n      pop\n      mload(0x40)\n      dup1\n      swap2\n      sub\n      swap1\n      return\n        /* \"variable_scopes.sol\":182:266  function setMyVariable(uint newValue) public  {... */\n    tag_4:\n      tag_8\n      0x04\n      dup1\n      calldatasize\n      sub\n      0x20\n      dup2\n      lt\n      iszero\n      tag_9\n      jumpi\n      0x00\n      dup1\n      revert\n    tag_9:\n      dup2\n      add\n      swap1\n      dup1\n      dup1\n      calldataload\n      swap1\n      0x20\n      add\n      swap1\n      swap3\n      swap2\n      swap1\n      pop\n      pop\n      pop\n      tag_10\n      jump\t// in\n    tag_8:\n      stop\n        /* \"variable_scopes.sol\":372:457  function setMyVariable2(uint newValue) public {... */\n    tag_5:\n      tag_11\n      0x04\n      dup1\n      calldatasize\n      sub\n      0x20\n      dup2\n      lt\n      iszero\n      tag_12\n      jumpi\n      0x00\n      dup1\n      revert\n    tag_12:\n      dup2\n      add\n      swap1\n      dup1\n      dup1\n      calldataload\n      swap1\n      0x20\n      add\n      swap1\n      swap3\n      swap2\n      swap1\n      pop\n      pop\n      pop\n      tag_13\n      jump\t// in\n    tag_11:\n      stop\n        /* \"variable_scopes.sol\":92:114  uint public myVariable */\n    tag_7:\n      sload(0x00)\n      dup2\n      jump\t// out\n        /* \"variable_scopes.sol\":182:266  function setMyVariable(uint newValue) public  {... */\n    tag_10:\n        /* \"variable_scopes.sol\":251:259  newValue */\n      dup1\n        /* \"variable_scopes.sol\":238:248  myVariable */\n      0x00\n        /* \"variable_scopes.sol\":238:259  myVariable = newValue */\n      dup2\n      swap1\n      sstore\n      pop\n        /* \"variable_scopes.sol\":182:266  function setMyVariable(uint newValue) public  {... */\n      pop\n      jump\t// out\n        /* \"variable_scopes.sol\":372:457  function setMyVariable2(uint newValue) public {... */\n    tag_13:\n        /* \"variable_scopes.sol\":442:450  newValue */\n      dup1\n        /* \"variable_scopes.sol\":428:439  myVariable2 */\n      0x01\n        /* \"variable_scopes.sol\":428:450  myVariable2 = newValue */\n      dup2\n      swap1\n      sstore\n      pop\n        /* \"variable_scopes.sol\":372:457  function setMyVariable2(uint newValue) public {... */\n      pop\n      jump\t// out\n\n    auxdata: 0xa264697066735822122054659cf9a61e46d8d3e49d57fdb5e50cf3eec2562d9819882a7481578415da2b64736f6c63430007060033\n}\n",
				"bytecode": {
					"linkReferences": {},
					"object": "608060405234801561001057600080fd5b50610103806100206000396000f3fe6080604052348015600f57600080fd5b5060043610603c5760003560e01c80634e59ff561460415780636ec9c7ae14605d578063e2986dc2146088575b600080fd5b604760b3565b6040518082815260200191505060405180910390f35b608660048036036020811015607157600080fd5b810190808035906020019092919050505060b9565b005b60b160048036036020811015609c57600080fd5b810190808035906020019092919050505060c3565b005b60005481565b8060008190555050565b806001819055505056fea264697066735822122054659cf9a61e46d8d3e49d57fdb5e50cf3eec2562d9819882a7481578415da2b64736f6c63430007060033",
					"opcodes": "PUSH1 0x80 PUSH1 0x40 MSTORE CALLVALUE DUP1 ISZERO PUSH2 0x10 JUMPI PUSH1 0x0 DUP1 REVERT JUMPDEST POP PUSH2 0x103 DUP1 PUSH2 0x20 PUSH1 0x0 CODECOPY PUSH1 0x0 RETURN INVALID PUSH1 0x80 PUSH1 0x40 MSTORE CALLVALUE DUP1 ISZERO PUSH1 0xF JUMPI PUSH1 0x0 DUP1 REVERT JUMPDEST POP PUSH1 0x4 CALLDATASIZE LT PUSH1 0x3C JUMPI PUSH1 0x0 CALLDATALOAD PUSH1 0xE0 SHR DUP1 PUSH4 0x4E59FF56 EQ PUSH1 0x41 JUMPI DUP1 PUSH4 0x6EC9C7AE EQ PUSH1 0x5D JUMPI DUP1 PUSH4 0xE2986DC2 EQ PUSH1 0x88 JUMPI JUMPDEST PUSH1 0x0 DUP1 REVERT JUMPDEST PUSH1 0x47 PUSH1 0xB3 JUMP JUMPDEST PUSH1 0x40 MLOAD DUP1 DUP3 DUP2 MSTORE PUSH1 0x20 ADD SWAP2 POP POP PUSH1 0x40 MLOAD DUP1 SWAP2 SUB SWAP1 RETURN JUMPDEST PUSH1 0x86 PUSH1 0x4 DUP1 CALLDATASIZE SUB PUSH1 0x20 DUP2 LT ISZERO PUSH1 0x71 JUMPI PUSH1 0x0 DUP1 REVERT JUMPDEST DUP2 ADD SWAP1 DUP1 DUP1 CALLDATALOAD SWAP1 PUSH1 0x20 ADD SWAP1 SWAP3 SWAP2 SWAP1 POP POP POP PUSH1 0xB9 JUMP JUMPDEST STOP JUMPDEST PUSH1 0xB1 PUSH1 0x4 DUP1 CALLDATASIZE SUB PUSH1 0x20 DUP2 LT ISZERO PUSH1 0x9C JUMPI PUSH1 0x0 DUP1 REVERT JUMPDEST DUP2 ADD SWAP1 DUP1 DUP1 CALLDATALOAD SWAP1 PUSH1 0x20 ADD SWAP1 SWAP3 SWAP2 SWAP1 POP POP POP PUSH1 0xC3 JUMP JUMPDEST STOP JUMPDEST PUSH1 0x0 SLOAD DUP2 JUMP JUMPDEST DUP1 PUSH1 0x0 DUP2 SWAP1 SSTORE POP POP JUMP JUMPDEST DUP1 PUSH1 0x1 DUP2 SWAP1 SSTORE POP POP JUMP INVALID LOG2 PUSH5 0x6970667358 0x22 SLT KECCAK256 SLOAD PUSH6 0x9CF9A61E46D8 0xD3 0xE4 SWAP14 JUMPI REVERT 0xB5 0xE5 0xC RETURN 0xEE 0xC2 JUMP 0x2D SWAP9 NOT DUP9 0x2A PUSH21 0x81578415DA2B64736F6C6343000706003300000000 "
				},
				"gasEstimates": {
					"creation": {
						"codeDepositCost": "51800",
						"executionCost": "105",
						"totalCost": "51905"
					},
					"external": {
						"myVariable()": "983",
						"setMyVariable(uint256)": "20242",
						"setMyVariable2(uint256)": "20264"
					},
					"internal": {
						"setMyVariable3(uint256)": "infinite"
					}
				},
				"methodIdentifiers": {
					"myVariable()": "4e59ff56",
					"setMyVariable(uint256)": "6ec9c7ae",
					"setMyVariable2(uint256)": "e2986dc2"
				}
			},
			"storageLayout": {
				"storage": [
					{
						"astId": 3,
						"contract": "variable_scopes.sol:MyContract",
						"label": "myVariable",
						"offset": 0,
						"slot": "0",
						"type": "t_uint256"
					},
					{
						"astId": 5,
						"contract": "variable_scopes.sol:MyContract",
						"label": "myVariable2",
						"offset": 0,
						"slot": "1",
						"type": "t_uint256"
					},
					{
						"astId": 7,
						"contract": "variable_scopes.sol:MyContract",
						"label": "myVariable3",
						"offset": 0,
						"slot": "2",
						"type": "t_uint256"
					}
				],
				"types": {
					"t_uint256": {
						"encoding": "inplace",
						"label": "uint256",
						"numberOfBytes": "32"
					}
				}
			},
			"userdoc": {
				"kind": "user",
				"methods": {},
				"version": 1
			}
		}
	}
}