{
	"variable_scopes.sol": {
		"ExternalContract": {
			"abi": [
				{
					"inputs": [],
					"name": "doSomething",
					"outputs": [],
					"stateMutability": "nonpayable",
					"type": "function"
				},
				{
					"inputs": [],
					"name": "myContract",
					"outputs": [
						{
							"internalType": "contract MyContract",
							"name": "",
							"type": "address"
						}
					],
					"stateMutability": "view",
					"type": "function"
				}
			],
			"devdoc": {
				"kind": "dev",
				"methods": {},
				"version": 1
			},
			"evm": {
				"assembly": "    /* \"variable_scopes.sol\":552:951  contract ExternalContract {... */\n  mstore(0x40, 0x80)\n  callvalue\n  dup1\n  iszero\n  tag_1\n  jumpi\n  0x00\n  dup1\n  revert\ntag_1:\n  pop\n  dataSize(sub_0)\n  dup1\n  dataOffset(sub_0)\n  0x00\n  codecopy\n  0x00\n  return\nstop\n\nsub_0: assembly {\n        /* \"variable_scopes.sol\":552:951  contract ExternalContract {... */\n      mstore(0x40, 0x80)\n      callvalue\n      dup1\n      iszero\n      tag_1\n      jumpi\n      0x00\n      dup1\n      revert\n    tag_1:\n      pop\n      jumpi(tag_2, lt(calldatasize, 0x04))\n      shr(0xe0, calldataload(0x00))\n      dup1\n      0x82692679\n      eq\n      tag_3\n      jumpi\n      dup1\n      0xbc33657a\n      eq\n      tag_4\n      jumpi\n    tag_2:\n      0x00\n      dup1\n      revert\n        /* \"variable_scopes.sol\":619:949  function doSomething() public {... */\n    tag_3:\n      tag_5\n      tag_6\n      jump\t// in\n    tag_5:\n      stop\n        /* \"variable_scopes.sol\":584:612  MyContract public myContract */\n    tag_4:\n      tag_7\n      tag_8\n      jump\t// in\n    tag_7:\n      mload(0x40)\n      dup1\n      dup3\n      0xffffffffffffffffffffffffffffffffffffffff\n      and\n      dup2\n      mstore\n      0x20\n      add\n      swap2\n      pop\n      pop\n      mload(0x40)\n      dup1\n      swap2\n      sub\n      swap1\n      return\n        /* \"variable_scopes.sol\":619:949  function doSomething() public {... */\n    tag_6:\n        /* \"variable_scopes.sol\":672:688  new MyContract() */\n      mload(0x40)\n      tag_10\n      swap1\n      tag_11\n      jump\t// in\n    tag_10:\n      mload(0x40)\n      dup1\n      swap2\n      sub\n      swap1\n      0x00\n      create\n      dup1\n      iszero\n      dup1\n      iszero\n      tag_12\n      jumpi\n      returndatasize\n      0x00\n      dup1\n      returndatacopy\n      revert(0x00, returndatasize)\n    tag_12:\n      pop\n        /* \"variable_scopes.sol\":659:669  myContract */\n      0x00\n      dup1\n        /* \"variable_scopes.sol\":659:688  myContract = new MyContract() */\n      0x0100\n      exp\n      dup2\n      sload\n      dup2\n      0xffffffffffffffffffffffffffffffffffffffff\n      mul\n      not\n      and\n      swap1\n      dup4\n      0xffffffffffffffffffffffffffffffffffffffff\n      and\n      mul\n      or\n      swap1\n      sstore\n      pop\n        /* \"variable_scopes.sol\":698:708  myContract */\n      0x00\n      dup1\n      sload\n      swap1\n      0x0100\n      exp\n      swap1\n      div\n      0xffffffffffffffffffffffffffffffffffffffff\n      and\n        /* \"variable_scopes.sol\":698:722  myContract.setMyVariable */\n      0xffffffffffffffffffffffffffffffffffffffff\n      and\n      0x6ec9c7ae\n        /* \"variable_scopes.sol\":723:725  42 */\n      0x2a\n        /* \"variable_scopes.sol\":698:726  myContract.setMyVariable(42) */\n      mload(0x40)\n      dup3\n      0xffffffff\n      and\n      0xe0\n      shl\n      dup2\n      mstore\n      0x04\n      add\n      dup1\n      dup3\n      dup2\n      mstore\n      0x20\n      add\n      swap2\n      pop\n      pop\n      0x00\n      mload(0x40)\n      dup1\n      dup4\n      sub\n      dup2\n      0x00\n      dup8\n      dup1\n      extcodesize\n      iszero\n      dup1\n      iszero\n      tag_13\n      jumpi\n      0x00\n      dup1\n      revert\n    tag_13:\n      pop\n      gas\n      call\n      iszero\n      dup1\n      iszero\n      tag_15\n      jumpi\n      returndatasize\n      0x00\n      dup1\n      returndatacopy\n      revert(0x00, returndatasize)\n    tag_15:\n      pop\n      pop\n      pop\n      pop\n        /* \"variable_scopes.sol\":619:949  function doSomething() public {... */\n      jump\t// out\n        /* \"variable_scopes.sol\":584:612  MyContract public myContract */\n    tag_8:\n      0x00\n      dup1\n      sload\n      swap1\n      0x0100\n      exp\n      swap1\n      div\n      0xffffffffffffffffffffffffffffffffffffffff\n      and\n      dup2\n      jump\t// out\n    tag_11:\n      dataSize(sub_0)\n      dup1\n      dataOffset(sub_0)\n      dup4\n      codecopy\n      add\n      swap1\n      jump\t// out\n    stop\n\n    sub_0: assembly {\n            /* \"variable_scopes.sol\":66:550  contract MyContract {... */\n          mstore(0x40, 0x80)\n          callvalue\n          dup1\n          iszero\n          tag_1\n          jumpi\n          0x00\n          dup1\n          revert\n        tag_1:\n          pop\n          dataSize(sub_0)\n          dup1\n          dataOffset(sub_0)\n          0x00\n          codecopy\n          0x00\n          return\n        stop\n\n        sub_0: assembly {\n                /* \"variable_scopes.sol\":66:550  contract MyContract {... */\n              mstore(0x40, 0x80)\n              callvalue\n              dup1\n              iszero\n              tag_1\n              jumpi\n              0x00\n              dup1\n              revert\n            tag_1:\n              pop\n              jumpi(tag_2, lt(calldatasize, 0x04))\n              shr(0xe0, calldataload(0x00))\n              dup1\n              0x4e59ff56\n              eq\n              tag_3\n              jumpi\n              dup1\n              0x6ec9c7ae\n              eq\n              tag_4\n              jumpi\n              dup1\n              0xe2986dc2\n              eq\n              tag_5\n              jumpi\n            tag_2:\n              0x00\n              dup1\n              revert\n                /* \"variable_scopes.sol\":92:114  uint public myVariable */\n            tag_3:\n              tag_6\n              tag_7\n              jump\t// in\n            tag_6:\n              mload(0x40)\n              dup1\n              dup3\n              dup2\n              mstore\n              0x20\n              add\n              swap2\n              pop\n              pop\n              mload(0x40)\n              dup1\n              swap2\n              sub\n              swap1\n              return\n                /* \"variable_scopes.sol\":182:266  function setMyVariable(uint newValue) public  {... */\n            tag_4:\n              tag_8\n              0x04\n              dup1\n              calldatasize\n              sub\n              0x20\n              dup2\n              lt\n              iszero\n              tag_9\n              jumpi\n              0x00\n              dup1\n              revert\n            tag_9:\n              dup2\n              add\n              swap1\n              dup1\n              dup1\n              calldataload\n              swap1\n              0x20\n              add\n              swap1\n              swap3\n              swap2\n              swap1\n              pop\n              pop\n              pop\n              tag_10\n              jump\t// in\n            tag_8:\n              stop\n                /* \"variable_scopes.sol\":372:457  function setMyVariable2(uint newValue) public {... */\n            tag_5:\n              tag_11\n              0x04\n              dup1\n              calldatasize\n              sub\n              0x20\n              dup2\n              lt\n              iszero\n              tag_12\n              jumpi\n              0x00\n              dup1\n              revert\n            tag_12:\n              dup2\n              add\n              swap1\n              dup1\n              dup1\n              calldataload\n              swap1\n              0x20\n              add\n              swap1\n              swap3\n              swap2\n              swap1\n              pop\n              pop\n              pop\n              tag_13\n              jump\t// in\n            tag_11:\n              stop\n                /* \"variable_scopes.sol\":92:114  uint public myVariable */\n            tag_7:\n              sload(0x00)\n              dup2\n              jump\t// out\n                /* \"variable_scopes.sol\":182:266  function setMyVariable(uint newValue) public  {... */\n            tag_10:\n                /* \"variable_scopes.sol\":251:259  newValue */\n              dup1\n                /* \"variable_scopes.sol\":238:248  myVariable */\n              0x00\n                /* \"variable_scopes.sol\":238:259  myVariable = newValue */\n              dup2\n              swap1\n              sstore\n              pop\n                /* \"variable_scopes.sol\":182:266  function setMyVariable(uint newValue) public  {... */\n              pop\n              jump\t// out\n                /* \"variable_scopes.sol\":372:457  function setMyVariable2(uint newValue) public {... */\n            tag_13:\n                /* \"variable_scopes.sol\":442:450  newValue */\n              dup1\n                /* \"variable_scopes.sol\":428:439  myVariable2 */\n              0x01\n                /* \"variable_scopes.sol\":428:450  myVariable2 = newValue */\n              dup2\n              swap1\n              sstore\n              pop\n                /* \"variable_scopes.sol\":372:457  function setMyVariable2(uint newValue) public {... */\n              pop\n              jump\t// out\n\n            auxdata: 0xa264697066735822122054659cf9a61e46d8d3e49d57fdb5e50cf3eec2562d9819882a7481578415da2b64736f6c63430007060033\n        }\n    }\n\n    auxdata: 0xa264697066735822122064947e00ac34444b86f4e87a510c92e518e74daf3001a401eb35a3ee8eabf5ea64736f6c63430007060033\n}\n",
				"bytecode": {
					"linkReferences": {},
					"object": "608060405234801561001057600080fd5b506102f9806100206000396000f3fe608060405234801561001057600080fd5b50600436106100365760003560e01c8063826926791461003b578063bc33657a14610045575b600080fd5b610043610079565b005b61004d61016f565b604051808273ffffffffffffffffffffffffffffffffffffffff16815260200191505060405180910390f35b60405161008590610193565b604051809103906000f0801580156100a1573d6000803e3d6000fd5b506000806101000a81548173ffffffffffffffffffffffffffffffffffffffff021916908373ffffffffffffffffffffffffffffffffffffffff16021790555060008054906101000a900473ffffffffffffffffffffffffffffffffffffffff1673ffffffffffffffffffffffffffffffffffffffff16636ec9c7ae602a6040518263ffffffff1660e01b815260040180828152602001915050600060405180830381600087803b15801561015557600080fd5b505af1158015610169573d6000803e3d6000fd5b50505050565b60008054906101000a900473ffffffffffffffffffffffffffffffffffffffff1681565b610123806101a18339019056fe608060405234801561001057600080fd5b50610103806100206000396000f3fe6080604052348015600f57600080fd5b5060043610603c5760003560e01c80634e59ff561460415780636ec9c7ae14605d578063e2986dc2146088575b600080fd5b604760b3565b6040518082815260200191505060405180910390f35b608660048036036020811015607157600080fd5b810190808035906020019092919050505060b9565b005b60b160048036036020811015609c57600080fd5b810190808035906020019092919050505060c3565b005b60005481565b8060008190555050565b806001819055505056fea264697066735822122054659cf9a61e46d8d3e49d57fdb5e50cf3eec2562d9819882a7481578415da2b64736f6c63430007060033a264697066735822122064947e00ac34444b86f4e87a510c92e518e74daf3001a401eb35a3ee8eabf5ea64736f6c63430007060033",
					"opcodes": "PUSH1 0x80 PUSH1 0x40 MSTORE CALLVALUE DUP1 ISZERO PUSH2 0x10 JUMPI PUSH1 0x0 DUP1 REVERT JUMPDEST POP PUSH2 0x2F9 DUP1 PUSH2 0x20 PUSH1 0x0 CODECOPY PUSH1 0x0 RETURN INVALID PUSH1 0x80 PUSH1 0x40 MSTORE CALLVALUE DUP1 ISZERO PUSH2 0x10 JUMPI PUSH1 0x0 DUP1 REVERT JUMPDEST POP PUSH1 0x4 CALLDATASIZE LT PUSH2 0x36 JUMPI PUSH1 0x0 CALLDATALOAD PUSH1 0xE0 SHR DUP1 PUSH4 0x82692679 EQ PUSH2 0x3B JUMPI DUP1 PUSH4 0xBC33657A EQ PUSH2 0x45 JUMPI JUMPDEST PUSH1 0x0 DUP1 REVERT JUMPDEST PUSH2 0x43 PUSH2 0x79 JUMP JUMPDEST STOP JUMPDEST PUSH2 0x4D PUSH2 0x16F JUMP JUMPDEST PUSH1 0x40 MLOAD DUP1 DUP3 PUSH20 0xFFFFFFFFFFFFFFFFFFFFFFFFFFFFFFFFFFFFFFFF AND DUP2 MSTORE PUSH1 0x20 ADD SWAP2 POP POP PUSH1 0x40 MLOAD DUP1 SWAP2 SUB SWAP1 RETURN JUMPDEST PUSH1 0x40 MLOAD PUSH2 0x85 SWAP1 PUSH2 0x193 JUMP JUMPDEST PUSH1 0x40 MLOAD DUP1 SWAP2 SUB SWAP1 PUSH1 0x0 CREATE DUP1 ISZERO DUP1 ISZERO PUSH2 0xA1 JUMPI RETURNDATASIZE PUSH1 0x0 DUP1 RETURNDATACOPY RETURNDATASIZE PUSH1 0x0 REVERT JUMPDEST POP PUSH1 0x0 DUP1 PUSH2 0x100 EXP DUP2 SLOAD DUP2 PUSH20 0xFFFFFFFFFFFFFFFFFFFFFFFFFFFFFFFFFFFFFFFF MUL NOT AND SWAP1 DUP4 PUSH20 0xFFFFFFFFFFFFFFFFFFFFFFFFFFFFFFFFFFFFFFFF AND MUL OR SWAP1 SSTORE POP PUSH1 0x0 DUP1 SLOAD SWAP1 PUSH2 0x100 EXP SWAP1 DIV PUSH20 0xFFFFFFFFFFFFFFFFFFFFFFFFFFFFFFFFFFFFFFFF AND PUSH20 0xFFFFFFFFFFFFFFFFFFFFFFFFFFFFFFFFFFFFFFFF AND PUSH4 0x6EC9C7AE PUSH1 0x2A PUSH1 0x40 MLOAD DUP3 PUSH4 0xFFFFFFFF AND PUSH1 0xE0 SHL DUP2 MSTORE PUSH1 0x4 ADD DUP1 DUP3 DUP2 MSTORE PUSH1 0x20 ADD SWAP2 POP POP PUSH1 0x0 PUSH1 0x40 MLOAD DUP1 DUP4 SUB DUP2 PUSH1 0x0 DUP8 DUP1 EXTCODESIZE ISZERO DUP1 ISZERO PUSH2 0x155 JUMPI PUSH1 0x0 DUP1 REVERT JUMPDEST POP GAS CALL ISZERO DUP1 ISZERO PUSH2 0x169 JUMPI RETURNDATASIZE PUSH1 0x0 DUP1 RETURNDATACOPY RETURNDATASIZE PUSH1 0x0 REVERT JUMPDEST POP POP POP POP JUMP JUMPDEST PUSH1 0x0 DUP1 SLOAD SWAP1 PUSH2 0x100 EXP SWAP1 DIV PUSH20 0xFFFFFFFFFFFFFFFFFFFFFFFFFFFFFFFFFFFFFFFF AND DUP2 JUMP JUMPDEST PUSH2 0x123 DUP1 PUSH2 0x1A1 DUP4 CODECOPY ADD SWAP1 JUMP INVALID PUSH1 0x80 PUSH1 0x40 MSTORE CALLVALUE DUP1 ISZERO PUSH2 0x10 JUMPI PUSH1 0x0 DUP1 REVERT JUMPDEST POP PUSH2 0x103 DUP1 PUSH2 0x20 PUSH1 0x0 CODECOPY PUSH1 0x0 RETURN INVALID PUSH1 0x80 PUSH1 0x40 MSTORE CALLVALUE DUP1 ISZERO PUSH1 0xF JUMPI PUSH1 0x0 DUP1 REVERT JUMPDEST POP PUSH1 0x4 CALLDATASIZE LT PUSH1 0x3C JUMPI PUSH1 0x0 CALLDATALOAD PUSH1 0xE0 SHR DUP1 PUSH4 0x4E59FF56 EQ PUSH1 0x41 JUMPI DUP1 PUSH4 0x6EC9C7AE EQ PUSH1 0x5D JUMPI DUP1 PUSH4 0xE2986DC2 EQ PUSH1 0x88 JUMPI JUMPDEST PUSH1 0x0 DUP1 REVERT JUMPDEST PUSH1 0x47 PUSH1 0xB3 JUMP JUMPDEST PUSH1 0x40 MLOAD DUP1 DUP3 DUP2 MSTORE PUSH1 0x20 ADD SWAP2 POP POP PUSH1 0x40 MLOAD DUP1 SWAP2 SUB SWAP1 RETURN JUMPDEST PUSH1 0x86 PUSH1 0x4 DUP1 CALLDATASIZE SUB PUSH1 0x20 DUP2 LT ISZERO PUSH1 0x71 JUMPI PUSH1 0x0 DUP1 REVERT JUMPDEST DUP2 ADD SWAP1 DUP1 DUP1 CALLDATALOAD SWAP1 PUSH1 0x20 ADD SWAP1 SWAP3 SWAP2 SWAP1 POP POP POP PUSH1 0xB9 JUMP JUMPDEST STOP JUMPDEST PUSH1 0xB1 PUSH1 0x4 DUP1 CALLDATASIZE SUB PUSH1 0x20 DUP2 LT ISZERO PUSH1 0x9C JUMPI PUSH1 0x0 DUP1 REVERT JUMPDEST DUP2 ADD SWAP1 DUP1 DUP1 CALLDATALOAD SWAP1 PUSH1 0x20 ADD SWAP1 SWAP3 SWAP2 SWAP1 POP POP POP PUSH1 0xC3 JUMP JUMPDEST STOP JUMPDEST PUSH1 0x0 SLOAD DUP2 JUMP JUMPDEST DUP1 PUSH1 0x0 DUP2 SWAP1 SSTORE POP POP JUMP JUMPDEST DUP1 PUSH1 0x1 DUP2 SWAP1 SSTORE POP POP JUMP INVALID LOG2 PUSH5 0x6970667358 0x22 SLT KECCAK256 SLOAD PUSH6 0x9CF9A61E46D8 0xD3 0xE4 SWAP14 JUMPI REVERT 0xB5 0xE5 0xC RETURN 0xEE 0xC2 JUMP 0x2D SWAP9 NOT DUP9 0x2A PUSH21 0x81578415DA2B64736F6C63430007060033A2646970 PUSH7 0x73582212206494 PUSH31 0xAC34444B86F4E87A510C92E518E74DAF3001A401EB35A3EE8EABF5EA6473 PUSH16 0x6C634300070600330000000000000000 "
				},
				"gasEstimates": {
					"creation": {
						"codeDepositCost": "152200",
						"executionCost": "196",
						"totalCost": "152396"
					},
					"external": {
						"doSomething()": "infinite",
						"myContract()": "1044"
					}
				},
				"methodIdentifiers": {
					"doSomething()": "82692679",
					"myContract()": "bc33657a"
				}
			},
			"storageLayout": {
				"storage": [
					{
						"astId": 40,
						"contract": "variable_scopes.sol:ExternalContract",
						"label": "myContract",
						"offset": 0,
						"slot": "0",
						"type": "t_contract(MyContract)38"
					}
				],
				"types": {
					"t_contract(MyContract)38": {
						"encoding": "inplace",
						"label": "contract MyContract",
						"numberOfBytes": "20"
					}
				}
			},
			"userdoc": {
				"kind": "user",
				"methods": {},
				"version": 1
			}
		}
	}
}