{
	"variable_scopes.sol": {
		"DerivedContract": {
			"abi": [
				{
					"inputs": [],
					"name": "doSomething",
					"outputs": [
						{
							"internalType": "uint256",
							"name": "",
							"type": "uint256"
						}
					],
					"stateMutability": "view",
					"type": "function"
				},
				{
					"inputs": [],
					"name": "myVariable",
					"outputs": [
						{
							"internalType": "uint256",
							"name": "",
							"type": "uint256"
						}
					],
					"stateMutability": "view",
					"type": "function"
				},
				{
					"inputs": [
						{
							"internalType": "uint256",
							"name": "newValue",
							"type": "uint256"
						}
					],
					"name": "setMyVariable",
					"outputs": [],
					"stateMutability": "nonpayable",
					"type": "function"
				},
				{
					"inputs": [
						{
							"internalType": "uint256",
							"name": "newValue",
							"type": "uint256"
						}
					],
					"name": "setMyVariable2",
					"outputs": [],
					"stateMutability": "nonpayable",
					"type": "function"
				}
			],
			"devdoc": {
				"kind": "dev",
				"methods": {},
				"version": 1
			},
			"evm": {
				"assembly": "    /* \"variable_scopes.sol\":953:1151  contract DerivedContract is MyContract{... */\n  mstore(0x40, 0x80)\n  callvalue\n  dup1\n  iszero\n  tag_1\n  jumpi\n  0x00\n  dup1\n  revert\ntag_1:\n  pop\n  dataSize(sub_0)\n  dup1\n  dataOffset(sub_0)\n  0x00\n  codecopy\n  0x00\n  return\nstop\n\nsub_0: assembly {\n        /* \"variable_scopes.sol\":953:1151  contract DerivedContract is MyContract{... */\n      mstore(0x40, 0x80)\n      callvalue\n      dup1\n      iszero\n      tag_1\n      jumpi\n      0x00\n      dup1\n      revert\n    tag_1:\n      pop\n      jumpi(tag_2, lt(calldatasize, 0x04))\n      shr(0xe0, calldataload(0x00))\n      dup1\n      0x4e59ff56\n      eq\n      tag_3\n      jumpi\n      dup1\n      0x6ec9c7ae\n      eq\n      tag_4\n      jumpi\n      dup1\n      0x82692679\n      eq\n      tag_5\n      jumpi\n      dup1\n      0xe2986dc2\n      eq\n      tag_6\n      jumpi\n    tag_2:\n      0x00\n      dup1\n      revert\n        /* \"variable_scopes.sol\":92:114  uint public myVariable */\n    tag_3:\n      tag_7\n      tag_8\n      jump\t// in\n    tag_7:\n      mload(0x40)\n      dup1\n      dup3\n      dup2\n      mstore\n      0x20\n      add\n      swap2\n      pop\n      pop\n      mload(0x40)\n      dup1\n      swap2\n      sub\n      swap1\n      return\n        /* \"variable_scopes.sol\":182:266  function setMyVariable(uint newValue) public  {... */\n    tag_4:\n      tag_9\n      0x04\n      dup1\n      calldatasize\n      sub\n      0x20\n      dup2\n      lt\n      iszero\n      tag_10\n      jumpi\n      0x00\n      dup1\n      revert\n    tag_10:\n      dup2\n      add\n      swap1\n      dup1\n      dup1\n      calldataload\n      swap1\n      0x20\n      add\n      swap1\n      swap3\n      swap2\n      swap1\n      pop\n      pop\n      pop\n      tag_11\n      jump\t// in\n    tag_9:\n      stop\n        /* \"variable_scopes.sol\":997:1149  function doSomething() public view returns (uint256){... */\n    tag_5:\n      tag_12\n      tag_13\n      jump\t// in\n    tag_12:\n      mload(0x40)\n      dup1\n      dup3\n      dup2\n      mstore\n      0x20\n      add\n      swap2\n      pop\n      pop\n      mload(0x40)\n      dup1\n      swap2\n      sub\n      swap1\n      return\n        /* \"variable_scopes.sol\":372:457  function setMyVariable2(uint newValue) public {... */\n    tag_6:\n      tag_14\n      0x04\n      dup1\n      calldatasize\n      sub\n      0x20\n      dup2\n      lt\n      iszero\n      tag_15\n      jumpi\n      0x00\n      dup1\n      revert\n    tag_15:\n      dup2\n      add\n      swap1\n      dup1\n      dup1\n      calldataload\n      swap1\n      0x20\n      add\n      swap1\n      swap3\n      swap2\n      swap1\n      pop\n      pop\n      pop\n      tag_16\n      jump\t// in\n    tag_14:\n      stop\n        /* \"variable_scopes.sol\":92:114  uint public myVariable */\n    tag_8:\n      sload(0x00)\n      dup2\n      jump\t// out\n        /* \"variable_scopes.sol\":182:266  function setMyVariable(uint newValue) public  {... */\n    tag_11:\n        /* \"variable_scopes.sol\":251:259  newValue */\n      dup1\n        /* \"variable_scopes.sol\":238:248  myVariable */\n      0x00\n        /* \"variable_scopes.sol\":238:259  myVariable = newValue */\n      dup2\n      swap1\n      sstore\n      pop\n        /* \"variable_scopes.sol\":182:266  function setMyVariable(uint newValue) public  {... */\n      pop\n      jump\t// out\n        /* \"variable_scopes.sol\":997:1149  function doSomething() public view returns (uint256){... */\n    tag_13:\n        /* \"variable_scopes.sol\":1041:1048  uint256 */\n      0x00\n        /* \"variable_scopes.sol\":1079:1090  myVariable2 */\n      sload(0x01)\n        /* \"variable_scopes.sol\":1066:1076  myVariable */\n      sload(0x00)\n        /* \"variable_scopes.sol\":1066:1090  myVariable + myVariable2 */\n      add\n        /* \"variable_scopes.sol\":1059:1090  return myVariable + myVariable2 */\n      swap1\n      pop\n        /* \"variable_scopes.sol\":997:1149  function doSomething() public view returns (uint256){... */\n      swap1\n      jump\t// out\n        /* \"variable_scopes.sol\":372:457  function setMyVariable2(uint newValue) public {... */\n    tag_16:\n        /* \"variable_scopes.sol\":442:450  newValue */\n      dup1\n        /* \"variable_scopes.sol\":428:439  myVariable2 */\n      0x01\n        /* \"variable_scopes.sol\":428:450  myVariable2 = newValue */\n      dup2\n      swap1\n      sstore\n      pop\n        /* \"variable_scopes.sol\":372:457  function setMyVariable2(uint newValue) public {... */\n      pop\n      jump\t// out\n\n    auxdata: 0xa2646970667358221220075d59be6c122ee9de782ef36818075bf5bf9c2c4336b60fbe3db93f1f0e7b7c64736f6c63430007060033\n}\n",
				"bytecode": {
					"linkReferences": {},
					"object": "608060405234801561001057600080fd5b50610147806100206000396000f3fe608060405234801561001057600080fd5b506004361061004c5760003560e01c80634e59ff56146100515780636ec9c7ae1461006f578063826926791461009d578063e2986dc2146100bb575b600080fd5b6100596100e9565b6040518082815260200191505060405180910390f35b61009b6004803603602081101561008557600080fd5b81019080803590602001909291905050506100ef565b005b6100a56100f9565b6040518082815260200191505060405180910390f35b6100e7600480360360208110156100d157600080fd5b8101908080359060200190929190505050610107565b005b60005481565b8060008190555050565b600060015460005401905090565b806001819055505056fea2646970667358221220075d59be6c122ee9de782ef36818075bf5bf9c2c4336b60fbe3db93f1f0e7b7c64736f6c63430007060033",
					"opcodes": "PUSH1 0x80 PUSH1 0x40 MSTORE CALLVALUE DUP1 ISZERO PUSH2 0x10 JUMPI PUSH1 0x0 DUP1 REVERT JUMPDEST POP PUSH2 0x147 DUP1 PUSH2 0x20 PUSH1 0x0 CODECOPY PUSH1 0x0 RETURN INVALID PUSH1 0x80 PUSH1 0x40 MSTORE CALLVALUE DUP1 ISZERO PUSH2 0x10 JUMPI PUSH1 0x0 DUP1 REVERT JUMPDEST POP PUSH1 0x4 CALLDATASIZE LT PUSH2 0x4C JUMPI PUSH1 0x0 CALLDATALOAD PUSH1 0xE0 SHR DUP1 PUSH4 0x4E59FF56 EQ PUSH2 0x51 JUMPI DUP1 PUSH4 0x6EC9C7AE EQ PUSH2 0x6F JUMPI DUP1 PUSH4 0x82692679 EQ PUSH2 0x9D JUMPI DUP1 PUSH4 0xE2986DC2 EQ PUSH2 0xBB JUMPI JUMPDEST PUSH1 0x0 DUP1 REVERT JUMPDEST PUSH2 0x59 PUSH2 0xE9 JUMP JUMPDEST PUSH1 0x40 MLOAD DUP1 DUP3 DUP2 MSTORE PUSH1 0x20 ADD SWAP2 POP POP PUSH1 0x40 MLOAD DUP1 SWAP2 SUB SWAP1 RETURN JUMPDEST PUSH2 0x9B PUSH1 0x4 DUP1 CALLDATASIZE SUB PUSH1 0x20 DUP2 LT ISZERO PUSH2 0x85 JUMPI PUSH1 0x0 DUP1 REVERT JUMPDEST DUP2 ADD SWAP1 DUP1 DUP1 CALLDATALOAD SWAP1 PUSH1 0x20 ADD SWAP1 SWAP3 SWAP2 SWAP1 POP POP POP PUSH2 0xEF JUMP JUMPDEST STOP JUMPDEST PUSH2 0xA5 PUSH2 0xF9 JUMP JUMPDEST PUSH1 0x40 MLOAD DUP1 DUP3 DUP2 MSTORE PUSH1 0x20 ADD SWAP2 POP POP PUSH1 0x40 MLOAD DUP1 SWAP2 SUB SWAP1 RETURN JUMPDEST PUSH2 0xE7 PUSH1 0x4 DUP1 CALLDATASIZE SUB PUSH1 0x20 DUP2 LT ISZERO PUSH2 0xD1 JUMPI PUSH1 0x0 DUP1 REVERT JUMPDEST DUP2 ADD SWAP1 DUP1 DUP1 CALLDATALOAD SWAP1 PUSH1 0x20 ADD SWAP1 SWAP3 SWAP2 SWAP1 POP POP POP PUSH2 0x107 JUMP JUMPDEST STOP JUMPDEST PUSH1 0x0 SLOAD DUP2 JUMP JUMPDEST DUP1 PUSH1 0x0 DUP2 SWAP1 SSTORE POP POP JUMP JUMPDEST PUSH1 0x0 PUSH1 0x1 SLOAD PUSH1 0x0 SLOAD ADD SWAP1 POP SWAP1 JUMP JUMPDEST DUP1 PUSH1 0x1 DUP2 SWAP1 SSTORE POP POP JUMP INVALID LOG2 PUSH5 0x6970667358 0x22 SLT KECCAK256 SMOD 0x5D MSIZE 0xBE PUSH13 0x122EE9DE782EF36818075BF5BF SWAP13 0x2C NUMBER CALLDATASIZE 0xB6 0xF 0xBE RETURNDATASIZE 0xB9 EXTCODEHASH 0x1F 0xE PUSH28 0x7C64736F6C6343000706003300000000000000000000000000000000 "
				},
				"gasEstimates": {
					"creation": {
						"codeDepositCost": "65400",
						"executionCost": "117",
						"totalCost": "65517"
					},
					"external": {
						"doSomething()": "1841",
						"myVariable()": "983",
						"setMyVariable(uint256)": "20242",
						"setMyVariable2(uint256)": "20286"
					}
				},
				"methodIdentifiers": {
					"doSomething()": "82692679",
					"myVariable()": "4e59ff56",
					"setMyVariable(uint256)": "6ec9c7ae",
					"setMyVariable2(uint256)": "e2986dc2"
				}
			},
			"storageLayout": {
				"storage": [
					{
						"astId": 3,
						"contract": "variable_scopes.sol:DerivedContract",
						"label": "myVariable",
						"offset": 0,
						"slot": "0",
						"type": "t_uint256"
					},
					{
						"astId": 5,
						"contract": "variable_scopes.sol:DerivedContract",
						"label": "myVariable2",
						"offset": 0,
						"slot": "1",
						"type": "t_uint256"
					},
					{
						"astId": 7,
						"contract": "variable_scopes.sol:DerivedContract",
						"label": "myVariable3",
						"offset": 0,
						"slot": "2",
						"type": "t_uint256"
					}
				],
				"types": {
					"t_uint256": {
						"encoding": "inplace",
						"label": "uint256",
						"numberOfBytes": "32"
					}
				}
			},
			"userdoc": {
				"kind": "user",
				"methods": {},
				"version": 1
			}
		}
	}
}