{
	"array.sol": {
		"Array": {
			"abi": [
				{
					"inputs": [],
					"name": "changeValueAtIndex2",
					"outputs": [
						{
							"internalType": "uint256[6]",
							"name": "",
							"type": "uint256[6]"
						}
					],
					"stateMutability": "nonpayable",
					"type": "function"
				},
				{
					"inputs": [],
					"name": "getLengthOfArray",
					"outputs": [
						{
							"internalType": "uint256",
							"name": "",
							"type": "uint256"
						}
					],
					"stateMutability": "view",
					"type": "function"
				},
				{
					"inputs": [],
					"name": "getName",
					"outputs": [
						{
							"internalType": "string[]",
							"name": "",
							"type": "string[]"
						}
					],
					"stateMutability": "view",
					"type": "function"
				},
				{
					"inputs": [],
					"name": "getNumbers",
					"outputs": [
						{
							"internalType": "uint256[6]",
							"name": "",
							"type": "uint256[6]"
						}
					],
					"stateMutability": "view",
					"type": "function"
				},
				{
					"inputs": [
						{
							"internalType": "uint256",
							"name": "index",
							"type": "uint256"
						}
					],
					"name": "getValueAtIndex",
					"outputs": [
						{
							"internalType": "uint256",
							"name": "",
							"type": "uint256"
						}
					],
					"stateMutability": "view",
					"type": "function"
				},
				{
					"inputs": [
						{
							"internalType": "uint256",
							"name": "",
							"type": "uint256"
						}
					],
					"name": "name",
					"outputs": [
						{
							"internalType": "string",
							"name": "",
							"type": "string"
						}
					],
					"stateMutability": "view",
					"type": "function"
				},
				{
					"inputs": [
						{
							"internalType": "uint256",
							"name": "",
							"type": "uint256"
						}
					],
					"name": "numbers",
					"outputs": [
						{
							"internalType": "uint256",
							"name": "",
							"type": "uint256"
						}
					],
					"stateMutability": "view",
					"type": "function"
				},
				{
					"inputs": [],
					"name": "pop",
					"outputs": [],
					"stateMutability": "nonpayable",
					"type": "function"
				},
				{
					"inputs": [],
					"name": "push",
					"outputs": [],
					"stateMutability": "nonpayable",
					"type": "function"
				}
			],
			"devdoc": {
				"kind": "dev",
				"methods": {},
				"version": 1
			},
			"evm": {
				"assembly": "    /* \"array.sol\":70:908  contract Array {... */\n  mstore(0x40, 0x80)\n    /* \"array.sol\":92:141  uint[6] public numbers = [15, 26, 37, 48, 59, 63] */\n  mload(0x40)\n  dup1\n  0xc0\n  add\n  0x40\n  mstore\n  dup1\n    /* \"array.sol\":118:120  15 */\n  0x0f\n    /* \"array.sol\":92:141  uint[6] public numbers = [15, 26, 37, 48, 59, 63] */\n  0xff\n  and\n  dup2\n  mstore\n  0x20\n  add\n    /* \"array.sol\":122:124  26 */\n  0x1a\n    /* \"array.sol\":92:141  uint[6] public numbers = [15, 26, 37, 48, 59, 63] */\n  0xff\n  and\n  dup2\n  mstore\n  0x20\n  add\n    /* \"array.sol\":126:128  37 */\n  0x25\n    /* \"array.sol\":92:141  uint[6] public numbers = [15, 26, 37, 48, 59, 63] */\n  0xff\n  and\n  dup2\n  mstore\n  0x20\n  add\n    /* \"array.sol\":130:132  48 */\n  0x30\n    /* \"array.sol\":92:141  uint[6] public numbers = [15, 26, 37, 48, 59, 63] */\n  0xff\n  and\n  dup2\n  mstore\n  0x20\n  add\n    /* \"array.sol\":134:136  59 */\n  0x3b\n    /* \"array.sol\":92:141  uint[6] public numbers = [15, 26, 37, 48, 59, 63] */\n  0xff\n  and\n  dup2\n  mstore\n  0x20\n  add\n    /* \"array.sol\":138:140  63 */\n  0x3f\n    /* \"array.sol\":92:141  uint[6] public numbers = [15, 26, 37, 48, 59, 63] */\n  0xff\n  and\n  dup2\n  mstore\n  pop\n  0x00\n  swap1\n  0x06\n  tag_1\n  swap3\n  swap2\n  swap1\n  tag_2\n  jump\t// in\ntag_1:\n  pop\n    /* \"array.sol\":150:209  string[] public name = [\"Hello\", \"Shuvam\", \"Santra\", \"Hii\"] */\n  mload(0x40)\n  dup1\n  0x80\n  add\n  0x40\n  mstore\n  dup1\n  mload(0x40)\n  dup1\n  0x40\n  add\n  0x40\n  mstore\n  dup1\n  0x05\n  dup2\n  mstore\n  0x20\n  add\n  0x48656c6c6f000000000000000000000000000000000000000000000000000000\n  dup2\n  mstore\n  pop\n  dup2\n  mstore\n  0x20\n  add\n  mload(0x40)\n  dup1\n  0x40\n  add\n  0x40\n  mstore\n  dup1\n  0x06\n  dup2\n  mstore\n  0x20\n  add\n  0x53687576616d0000000000000000000000000000000000000000000000000000\n  dup2\n  mstore\n  pop\n  dup2\n  mstore\n  0x20\n  add\n  mload(0x40)\n  dup1\n  0x40\n  add\n  0x40\n  mstore\n  dup1\n  0x06\n  dup2\n  mstore\n  0x20\n  add\n  0x53616e7472610000000000000000000000000000000000000000000000000000\n  dup2\n  mstore\n  pop\n  dup2\n  mstore\n  0x20\n  add\n  mload(0x40)\n  dup1\n  0x40\n  add\n  0x40\n  mstore\n  dup1\n  0x03\n  dup2\n  mstore\n  0x20\n  add\n  0x4869690000000000000000000000000000000000000000000000000000000000\n  dup2\n  mstore\n  pop\n  dup2\n  mstore\n  pop\n  0x06\n  swap1\n  0x04\n  tag_3\n  swap3\n  swap2\n  swap1\n  tag_4\n  jump\t// in\ntag_3:\n  pop\n    /* \"array.sol\":70:908  contract Array {... */\n  callvalue\n  dup1\n  iszero\n  tag_5\n  jumpi\n  0x00\n  dup1\n  revert\ntag_5:\n  pop\n  jump(tag_6)\ntag_2:\n  dup3\n  0x06\n  dup2\n  add\n  swap3\n  dup3\n  iszero\n  tag_7\n  jumpi\n  swap2\n  0x20\n  mul\n  dup3\n  add\ntag_8:\n  dup3\n  dup2\n  gt\n  iszero\n  tag_9\n  jumpi\n  dup3\n  mload\n  dup3\n  swap1\n  0xff\n  and\n  swap1\n  sstore\n  swap2\n  0x20\n  add\n  swap2\n  swap1\n  0x01\n  add\n  swap1\n  jump(tag_8)\ntag_9:\ntag_7:\n  pop\n  swap1\n  pop\n  tag_10\n  swap2\n  swap1\n  tag_11\n  jump\t// in\ntag_10:\n  pop\n  swap1\n  jump\t// out\ntag_4:\n  dup3\n  dup1\n  sload\n  dup3\n  dup3\n  sstore\n  swap1\n  0x00\n  mstore\n  keccak256(0x00, 0x20)\n  swap1\n  dup2\n  add\n  swap3\n  dup3\n  iszero\n  tag_12\n  jumpi\n  swap2\n  0x20\n  mul\n  dup3\n  add\ntag_13:\n  dup3\n  dup2\n  gt\n  iszero\n  tag_14\n  jumpi\n  dup3\n  mload\n  dup3\n  swap1\n  dup2\n  tag_15\n  swap2\n  swap1\n  tag_16\n  jump\t// in\ntag_15:\n  pop\n  swap2\n  0x20\n  add\n  swap2\n  swap1\n  0x01\n  add\n  swap1\n  jump(tag_13)\ntag_14:\ntag_12:\n  pop\n  swap1\n  pop\n  tag_17\n  swap2\n  swap1\n  tag_18\n  jump\t// in\ntag_17:\n  pop\n  swap1\n  jump\t// out\ntag_11:\ntag_19:\n  dup1\n  dup3\n  gt\n  iszero\n  tag_20\n  jumpi\n  0x00\n  dup2\n  0x00\n  swap1\n  sstore\n  pop\n  0x01\n  add\n  jump(tag_19)\ntag_20:\n  pop\n  swap1\n  jump\t// out\ntag_18:\ntag_21:\n  dup1\n  dup3\n  gt\n  iszero\n  tag_22\n  jumpi\n  0x00\n  dup2\n  dup2\n  tag_23\n  swap2\n  swap1\n  tag_24\n  jump\t// in\ntag_23:\n  pop\n  0x01\n  add\n  jump(tag_21)\ntag_22:\n  pop\n  swap1\n  jump\t// out\ntag_24:\n  pop\n  dup1\n  sload\n  tag_25\n  swap1\n  tag_26\n  jump\t// in\ntag_25:\n  0x00\n  dup3\n  sstore\n  dup1\n  0x1f\n  lt\n  tag_28\n  jumpi\n  pop\n  jump(tag_27)\ntag_28:\n  0x1f\n  add\n  0x20\n  swap1\n  div\n  swap1\n  0x00\n  mstore\n  keccak256(0x00, 0x20)\n  swap1\n  dup2\n  add\n  swap1\n  tag_29\n  swap2\n  swap1\n  tag_11\n  jump\t// in\ntag_29:\ntag_27:\n  pop\n  jump\t// out\n    /* \"#utility.yul\":7:106   */\ntag_30:\n    /* \"#utility.yul\":59:65   */\n  0x00\n    /* \"#utility.yul\":93:98   */\n  dup2\n    /* \"#utility.yul\":87:99   */\n  mload\n    /* \"#utility.yul\":77:99   */\n  swap1\n  pop\n    /* \"#utility.yul\":7:106   */\n  swap2\n  swap1\n  pop\n  jump\t// out\n    /* \"#utility.yul\":112:292   */\ntag_31:\n    /* \"#utility.yul\":160:237   */\n  0x4e487b7100000000000000000000000000000000000000000000000000000000\n    /* \"#utility.yul\":157:158   */\n  0x00\n    /* \"#utility.yul\":150:238   */\n  mstore\n    /* \"#utility.yul\":257:261   */\n  0x41\n    /* \"#utility.yul\":254:255   */\n  0x04\n    /* \"#utility.yul\":247:262   */\n  mstore\n    /* \"#utility.yul\":281:285   */\n  0x24\n    /* \"#utility.yul\":278:279   */\n  0x00\n    /* \"#utility.yul\":271:286   */\n  revert\n    /* \"#utility.yul\":298:478   */\ntag_32:\n    /* \"#utility.yul\":346:423   */\n  0x4e487b7100000000000000000000000000000000000000000000000000000000\n    /* \"#utility.yul\":343:344   */\n  0x00\n    /* \"#utility.yul\":336:424   */\n  mstore\n    /* \"#utility.yul\":443:447   */\n  0x22\n    /* \"#utility.yul\":440:441   */\n  0x04\n    /* \"#utility.yul\":433:448   */\n  mstore\n    /* \"#utility.yul\":467:471   */\n  0x24\n    /* \"#utility.yul\":464:465   */\n  0x00\n    /* \"#utility.yul\":457:472   */\n  revert\n    /* \"#utility.yul\":484:804   */\ntag_26:\n    /* \"#utility.yul\":528:534   */\n  0x00\n    /* \"#utility.yul\":565:566   */\n  0x02\n    /* \"#utility.yul\":559:563   */\n  dup3\n    /* \"#utility.yul\":555:567   */\n  div\n    /* \"#utility.yul\":545:567   */\n  swap1\n  pop\n    /* \"#utility.yul\":612:613   */\n  0x01\n    /* \"#utility.yul\":606:610   */\n  dup3\n    /* \"#utility.yul\":602:614   */\n  and\n    /* \"#utility.yul\":633:651   */\n  dup1\n    /* \"#utility.yul\":623:704   */\n  tag_54\n  jumpi\n    /* \"#utility.yul\":689:693   */\n  0x7f\n    /* \"#utility.yul\":681:687   */\n  dup3\n    /* \"#utility.yul\":677:694   */\n  and\n    /* \"#utility.yul\":667:694   */\n  swap2\n  pop\n    /* \"#utility.yul\":623:704   */\ntag_54:\n    /* \"#utility.yul\":751:753   */\n  0x20\n    /* \"#utility.yul\":743:749   */\n  dup3\n    /* \"#utility.yul\":740:754   */\n  lt\n    /* \"#utility.yul\":720:738   */\n  dup2\n    /* \"#utility.yul\":717:755   */\n  sub\n    /* \"#utility.yul\":714:798   */\n  tag_55\n  jumpi\n    /* \"#utility.yul\":770:788   */\n  tag_56\n  tag_32\n  jump\t// in\ntag_56:\n    /* \"#utility.yul\":714:798   */\ntag_55:\n    /* \"#utility.yul\":535:804   */\n  pop\n    /* \"#utility.yul\":484:804   */\n  swap2\n  swap1\n  pop\n  jump\t// out\n    /* \"#utility.yul\":810:951   */\ntag_33:\n    /* \"#utility.yul\":859:863   */\n  0x00\n    /* \"#utility.yul\":882:885   */\n  dup2\n    /* \"#utility.yul\":874:885   */\n  swap1\n  pop\n    /* \"#utility.yul\":905:908   */\n  dup2\n    /* \"#utility.yul\":902:903   */\n  0x00\n    /* \"#utility.yul\":895:909   */\n  mstore\n    /* \"#utility.yul\":939:943   */\n  0x20\n    /* \"#utility.yul\":936:937   */\n  0x00\n    /* \"#utility.yul\":926:944   */\n  keccak256\n    /* \"#utility.yul\":918:944   */\n  swap1\n  pop\n    /* \"#utility.yul\":810:951   */\n  swap2\n  swap1\n  pop\n  jump\t// out\n    /* \"#utility.yul\":957:1050   */\ntag_34:\n    /* \"#utility.yul\":994:1000   */\n  0x00\n    /* \"#utility.yul\":1041:1043   */\n  0x20\n    /* \"#utility.yul\":1036:1038   */\n  0x1f\n    /* \"#utility.yul\":1029:1034   */\n  dup4\n    /* \"#utility.yul\":1025:1039   */\n  add\n    /* \"#utility.yul\":1021:1044   */\n  div\n    /* \"#utility.yul\":1011:1044   */\n  swap1\n  pop\n    /* \"#utility.yul\":957:1050   */\n  swap2\n  swap1\n  pop\n  jump\t// out\n    /* \"#utility.yul\":1056:1163   */\ntag_35:\n    /* \"#utility.yul\":1100:1108   */\n  0x00\n    /* \"#utility.yul\":1150:1155   */\n  dup3\n    /* \"#utility.yul\":1144:1148   */\n  dup3\n    /* \"#utility.yul\":1140:1156   */\n  shl\n    /* \"#utility.yul\":1119:1156   */\n  swap1\n  pop\n    /* \"#utility.yul\":1056:1163   */\n  swap3\n  swap2\n  pop\n  pop\n  jump\t// out\n    /* \"#utility.yul\":1169:1562   */\ntag_36:\n    /* \"#utility.yul\":1238:1244   */\n  0x00\n    /* \"#utility.yul\":1288:1289   */\n  0x08\n    /* \"#utility.yul\":1276:1286   */\n  dup4\n    /* \"#utility.yul\":1272:1290   */\n  mul\n    /* \"#utility.yul\":1311:1408   */\n  tag_61\n    /* \"#utility.yul\":1341:1407   */\n  0xffffffffffffffffffffffffffffffffffffffffffffffffffffffffffffffff\n    /* \"#utility.yul\":1330:1339   */\n  dup3\n    /* \"#utility.yul\":1311:1408   */\n  tag_35\n  jump\t// in\ntag_61:\n    /* \"#utility.yul\":1429:1468   */\n  tag_62\n    /* \"#utility.yul\":1459:1467   */\n  dup7\n    /* \"#utility.yul\":1448:1457   */\n  dup4\n    /* \"#utility.yul\":1429:1468   */\n  tag_35\n  jump\t// in\ntag_62:\n    /* \"#utility.yul\":1417:1468   */\n  swap6\n  pop\n    /* \"#utility.yul\":1501:1505   */\n  dup1\n    /* \"#utility.yul\":1497:1506   */\n  not\n    /* \"#utility.yul\":1490:1495   */\n  dup5\n    /* \"#utility.yul\":1486:1507   */\n  and\n    /* \"#utility.yul\":1477:1507   */\n  swap4\n  pop\n    /* \"#utility.yul\":1550:1554   */\n  dup1\n    /* \"#utility.yul\":1540:1548   */\n  dup7\n    /* \"#utility.yul\":1536:1555   */\n  and\n    /* \"#utility.yul\":1529:1534   */\n  dup5\n    /* \"#utility.yul\":1526:1556   */\n  or\n    /* \"#utility.yul\":1516:1556   */\n  swap3\n  pop\n    /* \"#utility.yul\":1245:1562   */\n  pop\n  pop\n    /* \"#utility.yul\":1169:1562   */\n  swap4\n  swap3\n  pop\n  pop\n  pop\n  jump\t// out\n    /* \"#utility.yul\":1568:1645   */\ntag_37:\n    /* \"#utility.yul\":1605:1612   */\n  0x00\n    /* \"#utility.yul\":1634:1639   */\n  dup2\n    /* \"#utility.yul\":1623:1639   */\n  swap1\n  pop\n    /* \"#utility.yul\":1568:1645   */\n  swap2\n  swap1\n  pop\n  jump\t// out\n    /* \"#utility.yul\":1651:1711   */\ntag_38:\n    /* \"#utility.yul\":1679:1682   */\n  0x00\n    /* \"#utility.yul\":1700:1705   */\n  dup2\n    /* \"#utility.yul\":1693:1705   */\n  swap1\n  pop\n    /* \"#utility.yul\":1651:1711   */\n  swap2\n  swap1\n  pop\n  jump\t// out\n    /* \"#utility.yul\":1717:1859   */\ntag_39:\n    /* \"#utility.yul\":1767:1776   */\n  0x00\n    /* \"#utility.yul\":1800:1853   */\n  tag_66\n    /* \"#utility.yul\":1818:1852   */\n  tag_67\n    /* \"#utility.yul\":1827:1851   */\n  tag_68\n    /* \"#utility.yul\":1845:1850   */\n  dup5\n    /* \"#utility.yul\":1827:1851   */\n  tag_37\n  jump\t// in\ntag_68:\n    /* \"#utility.yul\":1818:1852   */\n  tag_38\n  jump\t// in\ntag_67:\n    /* \"#utility.yul\":1800:1853   */\n  tag_37\n  jump\t// in\ntag_66:\n    /* \"#utility.yul\":1787:1853   */\n  swap1\n  pop\n    /* \"#utility.yul\":1717:1859   */\n  swap2\n  swap1\n  pop\n  jump\t// out\n    /* \"#utility.yul\":1865:1940   */\ntag_40:\n    /* \"#utility.yul\":1908:1911   */\n  0x00\n    /* \"#utility.yul\":1929:1934   */\n  dup2\n    /* \"#utility.yul\":1922:1934   */\n  swap1\n  pop\n    /* \"#utility.yul\":1865:1940   */\n  swap2\n  swap1\n  pop\n  jump\t// out\n    /* \"#utility.yul\":1946:2215   */\ntag_41:\n    /* \"#utility.yul\":2056:2095   */\n  tag_71\n    /* \"#utility.yul\":2087:2094   */\n  dup4\n    /* \"#utility.yul\":2056:2095   */\n  tag_39\n  jump\t// in\ntag_71:\n    /* \"#utility.yul\":2117:2208   */\n  tag_72\n    /* \"#utility.yul\":2166:2207   */\n  tag_73\n    /* \"#utility.yul\":2190:2206   */\n  dup3\n    /* \"#utility.yul\":2166:2207   */\n  tag_40\n  jump\t// in\ntag_73:\n    /* \"#utility.yul\":2158:2164   */\n  dup5\n    /* \"#utility.yul\":2151:2155   */\n  dup5\n    /* \"#utility.yul\":2145:2156   */\n  sload\n    /* \"#utility.yul\":2117:2208   */\n  tag_36\n  jump\t// in\ntag_72:\n    /* \"#utility.yul\":2111:2115   */\n  dup3\n    /* \"#utility.yul\":2104:2209   */\n  sstore\n    /* \"#utility.yul\":2022:2215   */\n  pop\n    /* \"#utility.yul\":1946:2215   */\n  pop\n  pop\n  pop\n  jump\t// out\n    /* \"#utility.yul\":2221:2294   */\ntag_42:\n    /* \"#utility.yul\":2266:2269   */\n  0x00\n    /* \"#utility.yul\":2221:2294   */\n  swap1\n  jump\t// out\n    /* \"#utility.yul\":2300:2489   */\ntag_43:\n    /* \"#utility.yul\":2377:2409   */\n  tag_76\n  tag_42\n  jump\t// in\ntag_76:\n    /* \"#utility.yul\":2418:2483   */\n  tag_77\n    /* \"#utility.yul\":2476:2482   */\n  dup2\n    /* \"#utility.yul\":2468:2474   */\n  dup5\n    /* \"#utility.yul\":2462:2466   */\n  dup5\n    /* \"#utility.yul\":2418:2483   */\n  tag_41\n  jump\t// in\ntag_77:\n    /* \"#utility.yul\":2353:2489   */\n  pop\n    /* \"#utility.yul\":2300:2489   */\n  pop\n  pop\n  jump\t// out\n    /* \"#utility.yul\":2495:2681   */\ntag_44:\n    /* \"#utility.yul\":2555:2675   */\ntag_79:\n    /* \"#utility.yul\":2572:2575   */\n  dup2\n    /* \"#utility.yul\":2565:2570   */\n  dup2\n    /* \"#utility.yul\":2562:2576   */\n  lt\n    /* \"#utility.yul\":2555:2675   */\n  iszero\n  tag_81\n  jumpi\n    /* \"#utility.yul\":2626:2665   */\n  tag_82\n    /* \"#utility.yul\":2663:2664   */\n  0x00\n    /* \"#utility.yul\":2656:2661   */\n  dup3\n    /* \"#utility.yul\":2626:2665   */\n  tag_43\n  jump\t// in\ntag_82:\n    /* \"#utility.yul\":2599:2600   */\n  0x01\n    /* \"#utility.yul\":2592:2597   */\n  dup2\n    /* \"#utility.yul\":2588:2601   */\n  add\n    /* \"#utility.yul\":2579:2601   */\n  swap1\n  pop\n    /* \"#utility.yul\":2555:2675   */\n  jump(tag_79)\ntag_81:\n    /* \"#utility.yul\":2495:2681   */\n  pop\n  pop\n  jump\t// out\n    /* \"#utility.yul\":2687:3230   */\ntag_45:\n    /* \"#utility.yul\":2788:2790   */\n  0x1f\n    /* \"#utility.yul\":2783:2786   */\n  dup3\n    /* \"#utility.yul\":2780:2791   */\n  gt\n    /* \"#utility.yul\":2777:3223   */\n  iszero\n  tag_84\n  jumpi\n    /* \"#utility.yul\":2822:2860   */\n  tag_85\n    /* \"#utility.yul\":2854:2859   */\n  dup2\n    /* \"#utility.yul\":2822:2860   */\n  tag_33\n  jump\t// in\ntag_85:\n    /* \"#utility.yul\":2906:2935   */\n  tag_86\n    /* \"#utility.yul\":2924:2934   */\n  dup5\n    /* \"#utility.yul\":2906:2935   */\n  tag_34\n  jump\t// in\ntag_86:\n    /* \"#utility.yul\":2896:2904   */\n  dup2\n    /* \"#utility.yul\":2892:2936   */\n  add\n    /* \"#utility.yul\":3089:3091   */\n  0x20\n    /* \"#utility.yul\":3077:3087   */\n  dup6\n    /* \"#utility.yul\":3074:3092   */\n  lt\n    /* \"#utility.yul\":3071:3120   */\n  iszero\n  tag_87\n  jumpi\n    /* \"#utility.yul\":3110:3118   */\n  dup2\n    /* \"#utility.yul\":3095:3118   */\n  swap1\n  pop\n    /* \"#utility.yul\":3071:3120   */\ntag_87:\n    /* \"#utility.yul\":3133:3213   */\n  tag_88\n    /* \"#utility.yul\":3189:3211   */\n  tag_89\n    /* \"#utility.yul\":3207:3210   */\n  dup6\n    /* \"#utility.yul\":3189:3211   */\n  tag_34\n  jump\t// in\ntag_89:\n    /* \"#utility.yul\":3179:3187   */\n  dup4\n    /* \"#utility.yul\":3175:3212   */\n  add\n    /* \"#utility.yul\":3162:3173   */\n  dup3\n    /* \"#utility.yul\":3133:3213   */\n  tag_44\n  jump\t// in\ntag_88:\n    /* \"#utility.yul\":2792:3223   */\n  pop\n  pop\n    /* \"#utility.yul\":2777:3223   */\ntag_84:\n    /* \"#utility.yul\":2687:3230   */\n  pop\n  pop\n  pop\n  jump\t// out\n    /* \"#utility.yul\":3236:3353   */\ntag_46:\n    /* \"#utility.yul\":3290:3298   */\n  0x00\n    /* \"#utility.yul\":3340:3345   */\n  dup3\n    /* \"#utility.yul\":3334:3338   */\n  dup3\n    /* \"#utility.yul\":3330:3346   */\n  shr\n    /* \"#utility.yul\":3309:3346   */\n  swap1\n  pop\n    /* \"#utility.yul\":3236:3353   */\n  swap3\n  swap2\n  pop\n  pop\n  jump\t// out\n    /* \"#utility.yul\":3359:3528   */\ntag_47:\n    /* \"#utility.yul\":3403:3409   */\n  0x00\n    /* \"#utility.yul\":3436:3487   */\n  tag_92\n    /* \"#utility.yul\":3484:3485   */\n  0x00\n    /* \"#utility.yul\":3480:3486   */\n  not\n    /* \"#utility.yul\":3472:3477   */\n  dup5\n    /* \"#utility.yul\":3469:3470   */\n  0x08\n    /* \"#utility.yul\":3465:3478   */\n  mul\n    /* \"#utility.yul\":3436:3487   */\n  tag_46\n  jump\t// in\ntag_92:\n    /* \"#utility.yul\":3432:3488   */\n  not\n    /* \"#utility.yul\":3517:3521   */\n  dup1\n    /* \"#utility.yul\":3511:3515   */\n  dup4\n    /* \"#utility.yul\":3507:3522   */\n  and\n    /* \"#utility.yul\":3497:3522   */\n  swap2\n  pop\n    /* \"#utility.yul\":3410:3528   */\n  pop\n    /* \"#utility.yul\":3359:3528   */\n  swap3\n  swap2\n  pop\n  pop\n  jump\t// out\n    /* \"#utility.yul\":3533:3828   */\ntag_48:\n    /* \"#utility.yul\":3609:3613   */\n  0x00\n    /* \"#utility.yul\":3755:3784   */\n  tag_94\n    /* \"#utility.yul\":3780:3783   */\n  dup4\n    /* \"#utility.yul\":3774:3778   */\n  dup4\n    /* \"#utility.yul\":3755:3784   */\n  tag_47\n  jump\t// in\ntag_94:\n    /* \"#utility.yul\":3747:3784   */\n  swap2\n  pop\n    /* \"#utility.yul\":3817:3820   */\n  dup3\n    /* \"#utility.yul\":3814:3815   */\n  0x02\n    /* \"#utility.yul\":3810:3821   */\n  mul\n    /* \"#utility.yul\":3804:3808   */\n  dup3\n    /* \"#utility.yul\":3801:3822   */\n  or\n    /* \"#utility.yul\":3793:3822   */\n  swap1\n  pop\n    /* \"#utility.yul\":3533:3828   */\n  swap3\n  swap2\n  pop\n  pop\n  jump\t// out\n    /* \"#utility.yul\":3833:5228   */\ntag_16:\n    /* \"#utility.yul\":3950:3987   */\n  tag_96\n    /* \"#utility.yul\":3983:3986   */\n  dup3\n    /* \"#utility.yul\":3950:3987   */\n  tag_30\n  jump\t// in\ntag_96:\n    /* \"#utility.yul\":4052:4070   */\n  0xffffffffffffffff\n    /* \"#utility.yul\":4044:4050   */\n  dup2\n    /* \"#utility.yul\":4041:4071   */\n  gt\n    /* \"#utility.yul\":4038:4094   */\n  iszero\n  tag_97\n  jumpi\n    /* \"#utility.yul\":4074:4092   */\n  tag_98\n  tag_31\n  jump\t// in\ntag_98:\n    /* \"#utility.yul\":4038:4094   */\ntag_97:\n    /* \"#utility.yul\":4118:4156   */\n  tag_99\n    /* \"#utility.yul\":4150:4154   */\n  dup3\n    /* \"#utility.yul\":4144:4155   */\n  sload\n    /* \"#utility.yul\":4118:4156   */\n  tag_26\n  jump\t// in\ntag_99:\n    /* \"#utility.yul\":4203:4270   */\n  tag_100\n    /* \"#utility.yul\":4263:4269   */\n  dup3\n    /* \"#utility.yul\":4255:4261   */\n  dup3\n    /* \"#utility.yul\":4249:4253   */\n  dup6\n    /* \"#utility.yul\":4203:4270   */\n  tag_45\n  jump\t// in\ntag_100:\n    /* \"#utility.yul\":4297:4298   */\n  0x00\n    /* \"#utility.yul\":4321:4325   */\n  0x20\n    /* \"#utility.yul\":4308:4325   */\n  swap1\n  pop\n    /* \"#utility.yul\":4353:4355   */\n  0x1f\n    /* \"#utility.yul\":4345:4351   */\n  dup4\n    /* \"#utility.yul\":4342:4356   */\n  gt\n    /* \"#utility.yul\":4370:4371   */\n  0x01\n    /* \"#utility.yul\":4365:4983   */\n  dup2\n  eq\n  tag_102\n  jumpi\n    /* \"#utility.yul\":5027:5028   */\n  0x00\n    /* \"#utility.yul\":5044:5050   */\n  dup5\n    /* \"#utility.yul\":5041:5118   */\n  iszero\n  tag_103\n  jumpi\n    /* \"#utility.yul\":5093:5102   */\n  dup3\n    /* \"#utility.yul\":5088:5091   */\n  dup8\n    /* \"#utility.yul\":5084:5103   */\n  add\n    /* \"#utility.yul\":5078:5104   */\n  mload\n    /* \"#utility.yul\":5069:5104   */\n  swap1\n  pop\n    /* \"#utility.yul\":5041:5118   */\ntag_103:\n    /* \"#utility.yul\":5144:5211   */\n  tag_104\n    /* \"#utility.yul\":5204:5210   */\n  dup6\n    /* \"#utility.yul\":5197:5202   */\n  dup3\n    /* \"#utility.yul\":5144:5211   */\n  tag_48\n  jump\t// in\ntag_104:\n    /* \"#utility.yul\":5138:5142   */\n  dup7\n    /* \"#utility.yul\":5131:5212   */\n  sstore\n    /* \"#utility.yul\":5000:5222   */\n  pop\n    /* \"#utility.yul\":4335:5222   */\n  jump(tag_101)\n    /* \"#utility.yul\":4365:4983   */\ntag_102:\n    /* \"#utility.yul\":4417:4421   */\n  0x1f\n    /* \"#utility.yul\":4413:4422   */\n  not\n    /* \"#utility.yul\":4405:4411   */\n  dup5\n    /* \"#utility.yul\":4401:4423   */\n  and\n    /* \"#utility.yul\":4451:4488   */\n  tag_105\n    /* \"#utility.yul\":4483:4487   */\n  dup7\n    /* \"#utility.yul\":4451:4488   */\n  tag_33\n  jump\t// in\ntag_105:\n    /* \"#utility.yul\":4510:4511   */\n  0x00\n    /* \"#utility.yul\":4524:4732   */\ntag_106:\n    /* \"#utility.yul\":4538:4545   */\n  dup3\n    /* \"#utility.yul\":4535:4536   */\n  dup2\n    /* \"#utility.yul\":4532:4546   */\n  lt\n    /* \"#utility.yul\":4524:4732   */\n  iszero\n  tag_108\n  jumpi\n    /* \"#utility.yul\":4617:4626   */\n  dup5\n    /* \"#utility.yul\":4612:4615   */\n  dup10\n    /* \"#utility.yul\":4608:4627   */\n  add\n    /* \"#utility.yul\":4602:4628   */\n  mload\n    /* \"#utility.yul\":4594:4600   */\n  dup3\n    /* \"#utility.yul\":4587:4629   */\n  sstore\n    /* \"#utility.yul\":4668:4669   */\n  0x01\n    /* \"#utility.yul\":4660:4666   */\n  dup3\n    /* \"#utility.yul\":4656:4670   */\n  add\n    /* \"#utility.yul\":4646:4670   */\n  swap2\n  pop\n    /* \"#utility.yul\":4715:4717   */\n  0x20\n    /* \"#utility.yul\":4704:4713   */\n  dup6\n    /* \"#utility.yul\":4700:4718   */\n  add\n    /* \"#utility.yul\":4687:4718   */\n  swap5\n  pop\n    /* \"#utility.yul\":4561:4565   */\n  0x20\n    /* \"#utility.yul\":4558:4559   */\n  dup2\n    /* \"#utility.yul\":4554:4566   */\n  add\n    /* \"#utility.yul\":4549:4566   */\n  swap1\n  pop\n    /* \"#utility.yul\":4524:4732   */\n  jump(tag_106)\ntag_108:\n    /* \"#utility.yul\":4760:4766   */\n  dup7\n    /* \"#utility.yul\":4751:4758   */\n  dup4\n    /* \"#utility.yul\":4748:4767   */\n  lt\n    /* \"#utility.yul\":4745:4924   */\n  iszero\n  tag_109\n  jumpi\n    /* \"#utility.yul\":4818:4827   */\n  dup5\n    /* \"#utility.yul\":4813:4816   */\n  dup10\n    /* \"#utility.yul\":4809:4828   */\n  add\n    /* \"#utility.yul\":4803:4829   */\n  mload\n    /* \"#utility.yul\":4861:4909   */\n  tag_110\n    /* \"#utility.yul\":4903:4907   */\n  0x1f\n    /* \"#utility.yul\":4895:4901   */\n  dup10\n    /* \"#utility.yul\":4891:4908   */\n  and\n    /* \"#utility.yul\":4880:4889   */\n  dup3\n    /* \"#utility.yul\":4861:4909   */\n  tag_47\n  jump\t// in\ntag_110:\n    /* \"#utility.yul\":4853:4859   */\n  dup4\n    /* \"#utility.yul\":4846:4910   */\n  sstore\n    /* \"#utility.yul\":4768:4924   */\n  pop\n    /* \"#utility.yul\":4745:4924   */\ntag_109:\n    /* \"#utility.yul\":4970:4971   */\n  0x01\n    /* \"#utility.yul\":4966:4967   */\n  0x02\n    /* \"#utility.yul\":4958:4964   */\n  dup9\n    /* \"#utility.yul\":4954:4968   */\n  mul\n    /* \"#utility.yul\":4950:4972   */\n  add\n    /* \"#utility.yul\":4944:4948   */\n  dup9\n    /* \"#utility.yul\":4937:4973   */\n  sstore\n    /* \"#utility.yul\":4372:4983   */\n  pop\n  pop\n  pop\n    /* \"#utility.yul\":4335:5222   */\ntag_101:\n  pop\n    /* \"#utility.yul\":3925:5228   */\n  pop\n  pop\n  pop\n    /* \"#utility.yul\":3833:5228   */\n  pop\n  pop\n  jump\t// out\n    /* \"array.sol\":70:908  contract Array {... */\ntag_6:\n  dataSize(sub_0)\n  dup1\n  dataOffset(sub_0)\n  0x00\n  codecopy\n  0x00\n  return\nstop\n\nsub_0: assembly {\n        /* \"array.sol\":70:908  contract Array {... */\n      mstore(0x40, 0x80)\n      callvalue\n      dup1\n      iszero\n      tag_1\n      jumpi\n      0x00\n      dup1\n      revert\n    tag_1:\n      pop\n      jumpi(tag_2, lt(calldatasize, 0x04))\n      shr(0xe0, calldataload(0x00))\n      dup1\n      0x89f915f6\n      gt\n      tag_12\n      jumpi\n      dup1\n      0x89f915f6\n      eq\n      tag_7\n      jumpi\n      dup1\n      0xa4ece52c\n      eq\n      tag_8\n      jumpi\n      dup1\n      0xa69343d9\n      eq\n      tag_9\n      jumpi\n      dup1\n      0xd39fa233\n      eq\n      tag_10\n      jumpi\n      dup1\n      0xf63791b0\n      eq\n      tag_11\n      jumpi\n      jump(tag_2)\n    tag_12:\n      dup1\n      0xad800c\n      eq\n      tag_3\n      jumpi\n      dup1\n      0x05917f07\n      eq\n      tag_4\n      jumpi\n      dup1\n      0x17d7de7c\n      eq\n      tag_5\n      jumpi\n      dup1\n      0x8035f0ce\n      eq\n      tag_6\n      jumpi\n    tag_2:\n      0x00\n      dup1\n      revert\n        /* \"array.sol\":150:209  string[] public name = [\"Hello\", \"Shuvam\", \"Santra\", \"Hii\"] */\n    tag_3:\n      tag_13\n      0x04\n      dup1\n      calldatasize\n      sub\n      dup2\n      add\n      swap1\n      tag_14\n      swap2\n      swap1\n      tag_15\n      jump\t// in\n    tag_14:\n      tag_16\n      jump\t// in\n    tag_13:\n      mload(0x40)\n      tag_17\n      swap2\n      swap1\n      tag_18\n      jump\t// in\n    tag_17:\n      mload(0x40)\n      dup1\n      swap2\n      sub\n      swap1\n      return\n        /* \"array.sol\":657:749  function getLengthOfArray() public view returns (uint) {... */\n    tag_4:\n      tag_19\n      tag_20\n      jump\t// in\n    tag_19:\n      mload(0x40)\n      tag_21\n      swap2\n      swap1\n      tag_22\n      jump\t// in\n    tag_21:\n      mload(0x40)\n      dup1\n      swap2\n      sub\n      swap1\n      return\n        /* \"array.sol\":318:405  function getName() public view returns (string[] memory) {... */\n    tag_5:\n      tag_23\n      tag_24\n      jump\t// in\n    tag_23:\n      mload(0x40)\n      tag_25\n      swap2\n      swap1\n      tag_26\n      jump\t// in\n    tag_25:\n      mload(0x40)\n      dup1\n      swap2\n      sub\n      swap1\n      return\n        /* \"array.sol\":758:848  function push() public {... */\n    tag_6:\n      tag_27\n      tag_28\n      jump\t// in\n    tag_27:\n      stop\n        /* \"array.sol\":218:310  function getNumbers() public view returns (uint[6] memory) {... */\n    tag_7:\n      tag_29\n      tag_30\n      jump\t// in\n    tag_29:\n      mload(0x40)\n      tag_31\n      swap2\n      swap1\n      tag_32\n      jump\t// in\n    tag_31:\n      mload(0x40)\n      dup1\n      swap2\n      sub\n      swap1\n      return\n        /* \"array.sol\":855:905  function pop() public {... */\n    tag_8:\n      tag_33\n      tag_34\n      jump\t// in\n    tag_33:\n      stop\n        /* \"array.sol\":525:648  function changeValueAtIndex2() public returns (uint[6] memory) {... */\n    tag_9:\n      tag_35\n      tag_36\n      jump\t// in\n    tag_35:\n      mload(0x40)\n      tag_37\n      swap2\n      swap1\n      tag_32\n      jump\t// in\n    tag_37:\n      mload(0x40)\n      dup1\n      swap2\n      sub\n      swap1\n      return\n        /* \"array.sol\":92:141  uint[6] public numbers = [15, 26, 37, 48, 59, 63] */\n    tag_10:\n      tag_38\n      0x04\n      dup1\n      calldatasize\n      sub\n      dup2\n      add\n      swap1\n      tag_39\n      swap2\n      swap1\n      tag_15\n      jump\t// in\n    tag_39:\n      tag_40\n      jump\t// in\n    tag_38:\n      mload(0x40)\n      tag_41\n      swap2\n      swap1\n      tag_22\n      jump\t// in\n    tag_41:\n      mload(0x40)\n      dup1\n      swap2\n      sub\n      swap1\n      return\n        /* \"array.sol\":414:518  function getValueAtIndex(uint index) public view returns (uint) {... */\n    tag_11:\n      tag_42\n      0x04\n      dup1\n      calldatasize\n      sub\n      dup2\n      add\n      swap1\n      tag_43\n      swap2\n      swap1\n      tag_15\n      jump\t// in\n    tag_43:\n      tag_44\n      jump\t// in\n    tag_42:\n      mload(0x40)\n      tag_45\n      swap2\n      swap1\n      tag_22\n      jump\t// in\n    tag_45:\n      mload(0x40)\n      dup1\n      swap2\n      sub\n      swap1\n      return\n        /* \"array.sol\":150:209  string[] public name = [\"Hello\", \"Shuvam\", \"Santra\", \"Hii\"] */\n    tag_16:\n      0x06\n      dup2\n      dup2\n      sload\n      dup2\n      lt\n      tag_46\n      jumpi\n      0x00\n      dup1\n      revert\n    tag_46:\n      swap1\n      0x00\n      mstore\n      keccak256(0x00, 0x20)\n      add\n      0x00\n      swap2\n      pop\n      swap1\n      pop\n      dup1\n      sload\n      tag_48\n      swap1\n      tag_49\n      jump\t// in\n    tag_48:\n      dup1\n      0x1f\n      add\n      0x20\n      dup1\n      swap2\n      div\n      mul\n      0x20\n      add\n      mload(0x40)\n      swap1\n      dup2\n      add\n      0x40\n      mstore\n      dup1\n      swap3\n      swap2\n      swap1\n      dup2\n      dup2\n      mstore\n      0x20\n      add\n      dup3\n      dup1\n      sload\n      tag_50\n      swap1\n      tag_49\n      jump\t// in\n    tag_50:\n      dup1\n      iszero\n      tag_51\n      jumpi\n      dup1\n      0x1f\n      lt\n      tag_52\n      jumpi\n      0x0100\n      dup1\n      dup4\n      sload\n      div\n      mul\n      dup4\n      mstore\n      swap2\n      0x20\n      add\n      swap2\n      jump(tag_51)\n    tag_52:\n      dup3\n      add\n      swap2\n      swap1\n      0x00\n      mstore\n      keccak256(0x00, 0x20)\n      swap1\n    tag_53:\n      dup2\n      sload\n      dup2\n      mstore\n      swap1\n      0x01\n      add\n      swap1\n      0x20\n      add\n      dup1\n      dup4\n      gt\n      tag_53\n      jumpi\n      dup3\n      swap1\n      sub\n      0x1f\n      and\n      dup3\n      add\n      swap2\n    tag_51:\n      pop\n      pop\n      pop\n      pop\n      pop\n      dup2\n      jump\t// out\n        /* \"array.sol\":657:749  function getLengthOfArray() public view returns (uint) {... */\n    tag_20:\n        /* \"array.sol\":706:710  uint */\n      0x00\n        /* \"array.sol\":730:734  name */\n      0x06\n        /* \"array.sol\":730:741  name.length */\n      dup1\n      sload\n      swap1\n      pop\n        /* \"array.sol\":723:741  return name.length */\n      swap1\n      pop\n        /* \"array.sol\":657:749  function getLengthOfArray() public view returns (uint) {... */\n      swap1\n      jump\t// out\n        /* \"array.sol\":318:405  function getName() public view returns (string[] memory) {... */\n    tag_24:\n        /* \"array.sol\":358:373  string[] memory */\n      0x60\n        /* \"array.sol\":393:397  name */\n      0x06\n        /* \"array.sol\":386:397  return name */\n      dup1\n      sload\n      dup1\n      0x20\n      mul\n      0x20\n      add\n      mload(0x40)\n      swap1\n      dup2\n      add\n      0x40\n      mstore\n      dup1\n      swap3\n      swap2\n      swap1\n      dup2\n      dup2\n      mstore\n      0x20\n      add\n      0x00\n      swap1\n    tag_56:\n      dup3\n      dup3\n      lt\n      iszero\n      tag_57\n      jumpi\n      dup4\n      dup3\n      swap1\n      0x00\n      mstore\n      keccak256(0x00, 0x20)\n      add\n      dup1\n      sload\n      tag_59\n      swap1\n      tag_49\n      jump\t// in\n    tag_59:\n      dup1\n      0x1f\n      add\n      0x20\n      dup1\n      swap2\n      div\n      mul\n      0x20\n      add\n      mload(0x40)\n      swap1\n      dup2\n      add\n      0x40\n      mstore\n      dup1\n      swap3\n      swap2\n      swap1\n      dup2\n      dup2\n      mstore\n      0x20\n      add\n      dup3\n      dup1\n      sload\n      tag_60\n      swap1\n      tag_49\n      jump\t// in\n    tag_60:\n      dup1\n      iszero\n      tag_61\n      jumpi\n      dup1\n      0x1f\n      lt\n      tag_62\n      jumpi\n      0x0100\n      dup1\n      dup4\n      sload\n      div\n      mul\n      dup4\n      mstore\n      swap2\n      0x20\n      add\n      swap2\n      jump(tag_61)\n    tag_62:\n      dup3\n      add\n      swap2\n      swap1\n      0x00\n      mstore\n      keccak256(0x00, 0x20)\n      swap1\n    tag_63:\n      dup2\n      sload\n      dup2\n      mstore\n      swap1\n      0x01\n      add\n      swap1\n      0x20\n      add\n      dup1\n      dup4\n      gt\n      tag_63\n      jumpi\n      dup3\n      swap1\n      sub\n      0x1f\n      and\n      dup3\n      add\n      swap2\n    tag_61:\n      pop\n      pop\n      pop\n      pop\n      pop\n      dup2\n      mstore\n      0x20\n      add\n      swap1\n      0x01\n      add\n      swap1\n      jump(tag_56)\n    tag_57:\n      pop\n      pop\n      pop\n      pop\n      swap1\n      pop\n        /* \"array.sol\":318:405  function getName() public view returns (string[] memory) {... */\n      swap1\n      jump\t// out\n        /* \"array.sol\":758:848  function push() public {... */\n    tag_28:\n        /* \"array.sol\":792:796  name */\n      0x06\n        /* \"array.sol\":792:810  name.push(\"Sunny\") */\n      dup1\n      0x01\n      dup2\n      sload\n      add\n      dup1\n      dup3\n      sstore\n      dup1\n      swap2\n      pop\n      pop\n      0x01\n      swap1\n      sub\n      swap1\n      0x00\n      mstore\n      keccak256(0x00, 0x20)\n      add\n      0x00\n      mload(0x40)\n      dup1\n      0x40\n      add\n      0x40\n      mstore\n      dup1\n      0x05\n      dup2\n      mstore\n      0x20\n      add\n      0x53756e6e79000000000000000000000000000000000000000000000000000000\n      dup2\n      mstore\n      pop\n      swap1\n      swap2\n      swap1\n      swap2\n      pop\n      swap1\n      dup2\n      tag_66\n      swap2\n      swap1\n      tag_67\n      jump\t// in\n    tag_66:\n      pop\n        /* \"array.sol\":821:825  name */\n      0x06\n        /* \"array.sol\":821:840  name.push(\"Sourav\") */\n      dup1\n      0x01\n      dup2\n      sload\n      add\n      dup1\n      dup3\n      sstore\n      dup1\n      swap2\n      pop\n      pop\n      0x01\n      swap1\n      sub\n      swap1\n      0x00\n      mstore\n      keccak256(0x00, 0x20)\n      add\n      0x00\n      mload(0x40)\n      dup1\n      0x40\n      add\n      0x40\n      mstore\n      dup1\n      0x06\n      dup2\n      mstore\n      0x20\n      add\n      0x536f757261760000000000000000000000000000000000000000000000000000\n      dup2\n      mstore\n      pop\n      swap1\n      swap2\n      swap1\n      swap2\n      pop\n      swap1\n      dup2\n      tag_69\n      swap2\n      swap1\n      tag_67\n      jump\t// in\n    tag_69:\n      pop\n        /* \"array.sol\":758:848  function push() public {... */\n      jump\t// out\n        /* \"array.sol\":218:310  function getNumbers() public view returns (uint[6] memory) {... */\n    tag_30:\n        /* \"array.sol\":261:275  uint[6] memory */\n      tag_70\n      tag_71\n      jump\t// in\n    tag_70:\n        /* \"array.sol\":295:302  numbers */\n      0x00\n        /* \"array.sol\":288:302  return numbers */\n      0x06\n      dup1\n      0x20\n      mul\n      mload(0x40)\n      swap1\n      dup2\n      add\n      0x40\n      mstore\n      dup1\n      swap3\n      swap2\n      swap1\n      dup3\n      0x06\n      dup1\n      iszero\n      tag_73\n      jumpi\n      0x20\n      mul\n      dup3\n      add\n      swap2\n    tag_74:\n      dup2\n      sload\n      dup2\n      mstore\n      0x20\n      add\n      swap1\n      0x01\n      add\n      swap1\n      dup1\n      dup4\n      gt\n      tag_74\n      jumpi\n    tag_73:\n      pop\n      pop\n      pop\n      pop\n      pop\n      swap1\n      pop\n        /* \"array.sol\":218:310  function getNumbers() public view returns (uint[6] memory) {... */\n      swap1\n      jump\t// out\n        /* \"array.sol\":855:905  function pop() public {... */\n    tag_34:\n        /* \"array.sol\":887:891  name */\n      0x06\n        /* \"array.sol\":887:897  name.pop() */\n      dup1\n      sload\n      dup1\n      tag_76\n      jumpi\n      tag_77\n      tag_78\n      jump\t// in\n    tag_77:\n    tag_76:\n      0x01\n      swap1\n      sub\n      dup2\n      dup2\n      swap1\n      0x00\n      mstore\n      keccak256(0x00, 0x20)\n      add\n      0x00\n      tag_80\n      swap2\n      swap1\n      tag_81\n      jump\t// in\n    tag_80:\n      swap1\n      sstore\n        /* \"array.sol\":855:905  function pop() public {... */\n      jump\t// out\n        /* \"array.sol\":525:648  function changeValueAtIndex2() public returns (uint[6] memory) {... */\n    tag_36:\n        /* \"array.sol\":572:586  uint[6] memory */\n      tag_82\n      tag_71\n      jump\t// in\n    tag_82:\n        /* \"array.sol\":612:615  650 */\n      0x028a\n        /* \"array.sol\":599:606  numbers */\n      0x00\n        /* \"array.sol\":607:608  2 */\n      0x02\n        /* \"array.sol\":599:609  numbers[2] */\n      0x06\n      dup2\n      lt\n      tag_84\n      jumpi\n      tag_85\n      tag_86\n      jump\t// in\n    tag_85:\n    tag_84:\n      add\n        /* \"array.sol\":599:615  numbers[2] = 650 */\n      dup2\n      swap1\n      sstore\n      pop\n        /* \"array.sol\":633:640  numbers */\n      0x00\n        /* \"array.sol\":626:640  return numbers */\n      0x06\n      dup1\n      0x20\n      mul\n      mload(0x40)\n      swap1\n      dup2\n      add\n      0x40\n      mstore\n      dup1\n      swap3\n      swap2\n      swap1\n      dup3\n      0x06\n      dup1\n      iszero\n      tag_88\n      jumpi\n      0x20\n      mul\n      dup3\n      add\n      swap2\n    tag_89:\n      dup2\n      sload\n      dup2\n      mstore\n      0x20\n      add\n      swap1\n      0x01\n      add\n      swap1\n      dup1\n      dup4\n      gt\n      tag_89\n      jumpi\n    tag_88:\n      pop\n      pop\n      pop\n      pop\n      pop\n      swap1\n      pop\n        /* \"array.sol\":525:648  function changeValueAtIndex2() public returns (uint[6] memory) {... */\n      swap1\n      jump\t// out\n        /* \"array.sol\":92:141  uint[6] public numbers = [15, 26, 37, 48, 59, 63] */\n    tag_40:\n      0x00\n      dup2\n      0x06\n      dup2\n      lt\n      tag_90\n      jumpi\n      0x00\n      dup1\n      revert\n    tag_90:\n      add\n      0x00\n      swap2\n      pop\n      swap1\n      pop\n      sload\n      dup2\n      jump\t// out\n        /* \"array.sol\":414:518  function getValueAtIndex(uint index) public view returns (uint) {... */\n    tag_44:\n        /* \"array.sol\":472:476  uint */\n      0x00\n        /* \"array.sol\":496:503  numbers */\n      dup1\n        /* \"array.sol\":504:509  index */\n      dup3\n        /* \"array.sol\":496:510  numbers[index] */\n      0x06\n      dup2\n      lt\n      tag_93\n      jumpi\n      tag_94\n      tag_86\n      jump\t// in\n    tag_94:\n    tag_93:\n      add\n      sload\n        /* \"array.sol\":489:510  return numbers[index] */\n      swap1\n      pop\n        /* \"array.sol\":414:518  function getValueAtIndex(uint index) public view returns (uint) {... */\n      swap2\n      swap1\n      pop\n      jump\t// out\n    tag_71:\n      mload(0x40)\n      dup1\n      0xc0\n      add\n      0x40\n      mstore\n      dup1\n      0x06\n      swap1\n      0x20\n      dup3\n      mul\n      dup1\n      calldatasize\n      dup4\n      calldatacopy\n      dup1\n      dup3\n      add\n      swap2\n      pop\n      pop\n      swap1\n      pop\n      pop\n      swap1\n      jump\t// out\n    tag_81:\n      pop\n      dup1\n      sload\n      tag_96\n      swap1\n      tag_49\n      jump\t// in\n    tag_96:\n      0x00\n      dup3\n      sstore\n      dup1\n      0x1f\n      lt\n      tag_98\n      jumpi\n      pop\n      jump(tag_97)\n    tag_98:\n      0x1f\n      add\n      0x20\n      swap1\n      div\n      swap1\n      0x00\n      mstore\n      keccak256(0x00, 0x20)\n      swap1\n      dup2\n      add\n      swap1\n      tag_99\n      swap2\n      swap1\n      tag_100\n      jump\t// in\n    tag_99:\n    tag_97:\n      pop\n      jump\t// out\n    tag_100:\n    tag_101:\n      dup1\n      dup3\n      gt\n      iszero\n      tag_102\n      jumpi\n      0x00\n      dup2\n      0x00\n      swap1\n      sstore\n      pop\n      0x01\n      add\n      jump(tag_101)\n    tag_102:\n      pop\n      swap1\n      jump\t// out\n        /* \"#utility.yul\":88:205   */\n    tag_104:\n        /* \"#utility.yul\":197:198   */\n      0x00\n        /* \"#utility.yul\":194:195   */\n      dup1\n        /* \"#utility.yul\":187:199   */\n      revert\n        /* \"#utility.yul\":334:411   */\n    tag_106:\n        /* \"#utility.yul\":371:378   */\n      0x00\n        /* \"#utility.yul\":400:405   */\n      dup2\n        /* \"#utility.yul\":389:405   */\n      swap1\n      pop\n        /* \"#utility.yul\":334:411   */\n      swap2\n      swap1\n      pop\n      jump\t// out\n        /* \"#utility.yul\":417:539   */\n    tag_107:\n        /* \"#utility.yul\":490:514   */\n      tag_153\n        /* \"#utility.yul\":508:513   */\n      dup2\n        /* \"#utility.yul\":490:514   */\n      tag_106\n      jump\t// in\n    tag_153:\n        /* \"#utility.yul\":483:488   */\n      dup2\n        /* \"#utility.yul\":480:515   */\n      eq\n        /* \"#utility.yul\":470:533   */\n      tag_154\n      jumpi\n        /* \"#utility.yul\":529:530   */\n      0x00\n        /* \"#utility.yul\":526:527   */\n      dup1\n        /* \"#utility.yul\":519:531   */\n      revert\n        /* \"#utility.yul\":470:533   */\n    tag_154:\n        /* \"#utility.yul\":417:539   */\n      pop\n      jump\t// out\n        /* \"#utility.yul\":545:684   */\n    tag_108:\n        /* \"#utility.yul\":591:596   */\n      0x00\n        /* \"#utility.yul\":629:635   */\n      dup2\n        /* \"#utility.yul\":616:636   */\n      calldataload\n        /* \"#utility.yul\":607:636   */\n      swap1\n      pop\n        /* \"#utility.yul\":645:678   */\n      tag_156\n        /* \"#utility.yul\":672:677   */\n      dup2\n        /* \"#utility.yul\":645:678   */\n      tag_107\n      jump\t// in\n    tag_156:\n        /* \"#utility.yul\":545:684   */\n      swap3\n      swap2\n      pop\n      pop\n      jump\t// out\n        /* \"#utility.yul\":690:1019   */\n    tag_15:\n        /* \"#utility.yul\":749:755   */\n      0x00\n        /* \"#utility.yul\":798:800   */\n      0x20\n        /* \"#utility.yul\":786:795   */\n      dup3\n        /* \"#utility.yul\":777:784   */\n      dup5\n        /* \"#utility.yul\":773:796   */\n      sub\n        /* \"#utility.yul\":769:801   */\n      slt\n        /* \"#utility.yul\":766:885   */\n      iszero\n      tag_158\n      jumpi\n        /* \"#utility.yul\":804:883   */\n      tag_159\n      tag_104\n      jump\t// in\n    tag_159:\n        /* \"#utility.yul\":766:885   */\n    tag_158:\n        /* \"#utility.yul\":924:925   */\n      0x00\n        /* \"#utility.yul\":949:1002   */\n      tag_160\n        /* \"#utility.yul\":994:1001   */\n      dup5\n        /* \"#utility.yul\":985:991   */\n      dup3\n        /* \"#utility.yul\":974:983   */\n      dup6\n        /* \"#utility.yul\":970:992   */\n      add\n        /* \"#utility.yul\":949:1002   */\n      tag_108\n      jump\t// in\n    tag_160:\n        /* \"#utility.yul\":939:1002   */\n      swap2\n      pop\n        /* \"#utility.yul\":895:1012   */\n      pop\n        /* \"#utility.yul\":690:1019   */\n      swap3\n      swap2\n      pop\n      pop\n      jump\t// out\n        /* \"#utility.yul\":1025:1124   */\n    tag_109:\n        /* \"#utility.yul\":1077:1083   */\n      0x00\n        /* \"#utility.yul\":1111:1116   */\n      dup2\n        /* \"#utility.yul\":1105:1117   */\n      mload\n        /* \"#utility.yul\":1095:1117   */\n      swap1\n      pop\n        /* \"#utility.yul\":1025:1124   */\n      swap2\n      swap1\n      pop\n      jump\t// out\n        /* \"#utility.yul\":1130:1299   */\n    tag_110:\n        /* \"#utility.yul\":1214:1225   */\n      0x00\n        /* \"#utility.yul\":1248:1254   */\n      dup3\n        /* \"#utility.yul\":1243:1246   */\n      dup3\n        /* \"#utility.yul\":1236:1255   */\n      mstore\n        /* \"#utility.yul\":1288:1292   */\n      0x20\n        /* \"#utility.yul\":1283:1286   */\n      dup3\n        /* \"#utility.yul\":1279:1293   */\n      add\n        /* \"#utility.yul\":1264:1293   */\n      swap1\n      pop\n        /* \"#utility.yul\":1130:1299   */\n      swap3\n      swap2\n      pop\n      pop\n      jump\t// out\n        /* \"#utility.yul\":1305:1551   */\n    tag_111:\n        /* \"#utility.yul\":1386:1387   */\n      0x00\n        /* \"#utility.yul\":1396:1509   */\n    tag_164:\n        /* \"#utility.yul\":1410:1416   */\n      dup4\n        /* \"#utility.yul\":1407:1408   */\n      dup2\n        /* \"#utility.yul\":1404:1417   */\n      lt\n        /* \"#utility.yul\":1396:1509   */\n      iszero\n      tag_166\n      jumpi\n        /* \"#utility.yul\":1495:1496   */\n      dup1\n        /* \"#utility.yul\":1490:1493   */\n      dup3\n        /* \"#utility.yul\":1486:1497   */\n      add\n        /* \"#utility.yul\":1480:1498   */\n      mload\n        /* \"#utility.yul\":1476:1477   */\n      dup2\n        /* \"#utility.yul\":1471:1474   */\n      dup5\n        /* \"#utility.yul\":1467:1478   */\n      add\n        /* \"#utility.yul\":1460:1499   */\n      mstore\n        /* \"#utility.yul\":1432:1434   */\n      0x20\n        /* \"#utility.yul\":1429:1430   */\n      dup2\n        /* \"#utility.yul\":1425:1435   */\n      add\n        /* \"#utility.yul\":1420:1435   */\n      swap1\n      pop\n        /* \"#utility.yul\":1396:1509   */\n      jump(tag_164)\n    tag_166:\n        /* \"#utility.yul\":1543:1544   */\n      0x00\n        /* \"#utility.yul\":1534:1540   */\n      dup5\n        /* \"#utility.yul\":1529:1532   */\n      dup5\n        /* \"#utility.yul\":1525:1541   */\n      add\n        /* \"#utility.yul\":1518:1545   */\n      mstore\n        /* \"#utility.yul\":1367:1551   */\n      pop\n        /* \"#utility.yul\":1305:1551   */\n      pop\n      pop\n      pop\n      jump\t// out\n        /* \"#utility.yul\":1557:1659   */\n    tag_112:\n        /* \"#utility.yul\":1598:1604   */\n      0x00\n        /* \"#utility.yul\":1649:1651   */\n      0x1f\n        /* \"#utility.yul\":1645:1652   */\n      not\n        /* \"#utility.yul\":1640:1642   */\n      0x1f\n        /* \"#utility.yul\":1633:1638   */\n      dup4\n        /* \"#utility.yul\":1629:1643   */\n      add\n        /* \"#utility.yul\":1625:1653   */\n      and\n        /* \"#utility.yul\":1615:1653   */\n      swap1\n      pop\n        /* \"#utility.yul\":1557:1659   */\n      swap2\n      swap1\n      pop\n      jump\t// out\n        /* \"#utility.yul\":1665:2042   */\n    tag_113:\n        /* \"#utility.yul\":1753:1756   */\n      0x00\n        /* \"#utility.yul\":1781:1820   */\n      tag_169\n        /* \"#utility.yul\":1814:1819   */\n      dup3\n        /* \"#utility.yul\":1781:1820   */\n      tag_109\n      jump\t// in\n    tag_169:\n        /* \"#utility.yul\":1836:1907   */\n      tag_170\n        /* \"#utility.yul\":1900:1906   */\n      dup2\n        /* \"#utility.yul\":1895:1898   */\n      dup6\n        /* \"#utility.yul\":1836:1907   */\n      tag_110\n      jump\t// in\n    tag_170:\n        /* \"#utility.yul\":1829:1907   */\n      swap4\n      pop\n        /* \"#utility.yul\":1916:1981   */\n      tag_171\n        /* \"#utility.yul\":1974:1980   */\n      dup2\n        /* \"#utility.yul\":1969:1972   */\n      dup6\n        /* \"#utility.yul\":1962:1966   */\n      0x20\n        /* \"#utility.yul\":1955:1960   */\n      dup7\n        /* \"#utility.yul\":1951:1967   */\n      add\n        /* \"#utility.yul\":1916:1981   */\n      tag_111\n      jump\t// in\n    tag_171:\n        /* \"#utility.yul\":2006:2035   */\n      tag_172\n        /* \"#utility.yul\":2028:2034   */\n      dup2\n        /* \"#utility.yul\":2006:2035   */\n      tag_112\n      jump\t// in\n    tag_172:\n        /* \"#utility.yul\":2001:2004   */\n      dup5\n        /* \"#utility.yul\":1997:2036   */\n      add\n        /* \"#utility.yul\":1990:2036   */\n      swap2\n      pop\n        /* \"#utility.yul\":1757:2042   */\n      pop\n        /* \"#utility.yul\":1665:2042   */\n      swap3\n      swap2\n      pop\n      pop\n      jump\t// out\n        /* \"#utility.yul\":2048:2361   */\n    tag_18:\n        /* \"#utility.yul\":2161:2165   */\n      0x00\n        /* \"#utility.yul\":2199:2201   */\n      0x20\n        /* \"#utility.yul\":2188:2197   */\n      dup3\n        /* \"#utility.yul\":2184:2202   */\n      add\n        /* \"#utility.yul\":2176:2202   */\n      swap1\n      pop\n        /* \"#utility.yul\":2248:2257   */\n      dup2\n        /* \"#utility.yul\":2242:2246   */\n      dup2\n        /* \"#utility.yul\":2238:2258   */\n      sub\n        /* \"#utility.yul\":2234:2235   */\n      0x00\n        /* \"#utility.yul\":2223:2232   */\n      dup4\n        /* \"#utility.yul\":2219:2236   */\n      add\n        /* \"#utility.yul\":2212:2259   */\n      mstore\n        /* \"#utility.yul\":2276:2354   */\n      tag_174\n        /* \"#utility.yul\":2349:2353   */\n      dup2\n        /* \"#utility.yul\":2340:2346   */\n      dup5\n        /* \"#utility.yul\":2276:2354   */\n      tag_113\n      jump\t// in\n    tag_174:\n        /* \"#utility.yul\":2268:2354   */\n      swap1\n      pop\n        /* \"#utility.yul\":2048:2361   */\n      swap3\n      swap2\n      pop\n      pop\n      jump\t// out\n        /* \"#utility.yul\":2367:2485   */\n    tag_114:\n        /* \"#utility.yul\":2454:2478   */\n      tag_176\n        /* \"#utility.yul\":2472:2477   */\n      dup2\n        /* \"#utility.yul\":2454:2478   */\n      tag_106\n      jump\t// in\n    tag_176:\n        /* \"#utility.yul\":2449:2452   */\n      dup3\n        /* \"#utility.yul\":2442:2479   */\n      mstore\n        /* \"#utility.yul\":2367:2485   */\n      pop\n      pop\n      jump\t// out\n        /* \"#utility.yul\":2491:2713   */\n    tag_22:\n        /* \"#utility.yul\":2584:2588   */\n      0x00\n        /* \"#utility.yul\":2622:2624   */\n      0x20\n        /* \"#utility.yul\":2611:2620   */\n      dup3\n        /* \"#utility.yul\":2607:2625   */\n      add\n        /* \"#utility.yul\":2599:2625   */\n      swap1\n      pop\n        /* \"#utility.yul\":2635:2706   */\n      tag_178\n        /* \"#utility.yul\":2703:2704   */\n      0x00\n        /* \"#utility.yul\":2692:2701   */\n      dup4\n        /* \"#utility.yul\":2688:2705   */\n      add\n        /* \"#utility.yul\":2679:2685   */\n      dup5\n        /* \"#utility.yul\":2635:2706   */\n      tag_114\n      jump\t// in\n    tag_178:\n        /* \"#utility.yul\":2491:2713   */\n      swap3\n      swap2\n      pop\n      pop\n      jump\t// out\n        /* \"#utility.yul\":2719:2843   */\n    tag_115:\n        /* \"#utility.yul\":2796:2802   */\n      0x00\n        /* \"#utility.yul\":2830:2835   */\n      dup2\n        /* \"#utility.yul\":2824:2836   */\n      mload\n        /* \"#utility.yul\":2814:2836   */\n      swap1\n      pop\n        /* \"#utility.yul\":2719:2843   */\n      swap2\n      swap1\n      pop\n      jump\t// out\n        /* \"#utility.yul\":2849:3043   */\n    tag_116:\n        /* \"#utility.yul\":2958:2969   */\n      0x00\n        /* \"#utility.yul\":2992:2998   */\n      dup3\n        /* \"#utility.yul\":2987:2990   */\n      dup3\n        /* \"#utility.yul\":2980:2999   */\n      mstore\n        /* \"#utility.yul\":3032:3036   */\n      0x20\n        /* \"#utility.yul\":3027:3030   */\n      dup3\n        /* \"#utility.yul\":3023:3037   */\n      add\n        /* \"#utility.yul\":3008:3037   */\n      swap1\n      pop\n        /* \"#utility.yul\":2849:3043   */\n      swap3\n      swap2\n      pop\n      pop\n      jump\t// out\n        /* \"#utility.yul\":3049:3191   */\n    tag_117:\n        /* \"#utility.yul\":3126:3130   */\n      0x00\n        /* \"#utility.yul\":3149:3152   */\n      dup2\n        /* \"#utility.yul\":3141:3152   */\n      swap1\n      pop\n        /* \"#utility.yul\":3179:3183   */\n      0x20\n        /* \"#utility.yul\":3174:3177   */\n      dup3\n        /* \"#utility.yul\":3170:3184   */\n      add\n        /* \"#utility.yul\":3162:3184   */\n      swap1\n      pop\n        /* \"#utility.yul\":3049:3191   */\n      swap2\n      swap1\n      pop\n      jump\t// out\n        /* \"#utility.yul\":3197:3356   */\n    tag_118:\n        /* \"#utility.yul\":3271:3282   */\n      0x00\n        /* \"#utility.yul\":3305:3311   */\n      dup3\n        /* \"#utility.yul\":3300:3303   */\n      dup3\n        /* \"#utility.yul\":3293:3312   */\n      mstore\n        /* \"#utility.yul\":3345:3349   */\n      0x20\n        /* \"#utility.yul\":3340:3343   */\n      dup3\n        /* \"#utility.yul\":3336:3350   */\n      add\n        /* \"#utility.yul\":3321:3350   */\n      swap1\n      pop\n        /* \"#utility.yul\":3197:3356   */\n      swap3\n      swap2\n      pop\n      pop\n      jump\t// out\n        /* \"#utility.yul\":3362:3719   */\n    tag_119:\n        /* \"#utility.yul\":3440:3443   */\n      0x00\n        /* \"#utility.yul\":3468:3507   */\n      tag_184\n        /* \"#utility.yul\":3501:3506   */\n      dup3\n        /* \"#utility.yul\":3468:3507   */\n      tag_109\n      jump\t// in\n    tag_184:\n        /* \"#utility.yul\":3523:3584   */\n      tag_185\n        /* \"#utility.yul\":3577:3583   */\n      dup2\n        /* \"#utility.yul\":3572:3575   */\n      dup6\n        /* \"#utility.yul\":3523:3584   */\n      tag_118\n      jump\t// in\n    tag_185:\n        /* \"#utility.yul\":3516:3584   */\n      swap4\n      pop\n        /* \"#utility.yul\":3593:3658   */\n      tag_186\n        /* \"#utility.yul\":3651:3657   */\n      dup2\n        /* \"#utility.yul\":3646:3649   */\n      dup6\n        /* \"#utility.yul\":3639:3643   */\n      0x20\n        /* \"#utility.yul\":3632:3637   */\n      dup7\n        /* \"#utility.yul\":3628:3644   */\n      add\n        /* \"#utility.yul\":3593:3658   */\n      tag_111\n      jump\t// in\n    tag_186:\n        /* \"#utility.yul\":3683:3712   */\n      tag_187\n        /* \"#utility.yul\":3705:3711   */\n      dup2\n        /* \"#utility.yul\":3683:3712   */\n      tag_112\n      jump\t// in\n    tag_187:\n        /* \"#utility.yul\":3678:3681   */\n      dup5\n        /* \"#utility.yul\":3674:3713   */\n      add\n        /* \"#utility.yul\":3667:3713   */\n      swap2\n      pop\n        /* \"#utility.yul\":3444:3719   */\n      pop\n        /* \"#utility.yul\":3362:3719   */\n      swap3\n      swap2\n      pop\n      pop\n      jump\t// out\n        /* \"#utility.yul\":3725:3921   */\n    tag_120:\n        /* \"#utility.yul\":3814:3824   */\n      0x00\n        /* \"#utility.yul\":3849:3915   */\n      tag_189\n        /* \"#utility.yul\":3911:3914   */\n      dup4\n        /* \"#utility.yul\":3903:3909   */\n      dup4\n        /* \"#utility.yul\":3849:3915   */\n      tag_119\n      jump\t// in\n    tag_189:\n        /* \"#utility.yul\":3835:3915   */\n      swap1\n      pop\n        /* \"#utility.yul\":3725:3921   */\n      swap3\n      swap2\n      pop\n      pop\n      jump\t// out\n        /* \"#utility.yul\":3927:4050   */\n    tag_121:\n        /* \"#utility.yul\":4007:4011   */\n      0x00\n        /* \"#utility.yul\":4039:4043   */\n      0x20\n        /* \"#utility.yul\":4034:4037   */\n      dup3\n        /* \"#utility.yul\":4030:4044   */\n      add\n        /* \"#utility.yul\":4022:4044   */\n      swap1\n      pop\n        /* \"#utility.yul\":3927:4050   */\n      swap2\n      swap1\n      pop\n      jump\t// out\n        /* \"#utility.yul\":4084:5075   */\n    tag_122:\n        /* \"#utility.yul\":4223:4226   */\n      0x00\n        /* \"#utility.yul\":4252:4316   */\n      tag_192\n        /* \"#utility.yul\":4310:4315   */\n      dup3\n        /* \"#utility.yul\":4252:4316   */\n      tag_115\n      jump\t// in\n    tag_192:\n        /* \"#utility.yul\":4332:4428   */\n      tag_193\n        /* \"#utility.yul\":4421:4427   */\n      dup2\n        /* \"#utility.yul\":4416:4419   */\n      dup6\n        /* \"#utility.yul\":4332:4428   */\n      tag_116\n      jump\t// in\n    tag_193:\n        /* \"#utility.yul\":4325:4428   */\n      swap4\n      pop\n        /* \"#utility.yul\":4454:4457   */\n      dup4\n        /* \"#utility.yul\":4499:4503   */\n      0x20\n        /* \"#utility.yul\":4491:4497   */\n      dup3\n        /* \"#utility.yul\":4487:4504   */\n      mul\n        /* \"#utility.yul\":4482:4485   */\n      dup6\n        /* \"#utility.yul\":4478:4505   */\n      add\n        /* \"#utility.yul\":4529:4595   */\n      tag_194\n        /* \"#utility.yul\":4589:4594   */\n      dup6\n        /* \"#utility.yul\":4529:4595   */\n      tag_117\n      jump\t// in\n    tag_194:\n        /* \"#utility.yul\":4618:4625   */\n      dup1\n        /* \"#utility.yul\":4649:4650   */\n      0x00\n        /* \"#utility.yul\":4634:5030   */\n    tag_195:\n        /* \"#utility.yul\":4659:4665   */\n      dup6\n        /* \"#utility.yul\":4656:4657   */\n      dup2\n        /* \"#utility.yul\":4653:4666   */\n      lt\n        /* \"#utility.yul\":4634:5030   */\n      iszero\n      tag_197\n      jumpi\n        /* \"#utility.yul\":4730:4739   */\n      dup5\n        /* \"#utility.yul\":4724:4728   */\n      dup5\n        /* \"#utility.yul\":4720:4740   */\n      sub\n        /* \"#utility.yul\":4715:4718   */\n      dup10\n        /* \"#utility.yul\":4708:4741   */\n      mstore\n        /* \"#utility.yul\":4781:4787   */\n      dup2\n        /* \"#utility.yul\":4775:4788   */\n      mload\n        /* \"#utility.yul\":4809:4893   */\n      tag_198\n        /* \"#utility.yul\":4888:4892   */\n      dup6\n        /* \"#utility.yul\":4873:4886   */\n      dup3\n        /* \"#utility.yul\":4809:4893   */\n      tag_120\n      jump\t// in\n    tag_198:\n        /* \"#utility.yul\":4801:4893   */\n      swap5\n      pop\n        /* \"#utility.yul\":4916:4986   */\n      tag_199\n        /* \"#utility.yul\":4979:4985   */\n      dup4\n        /* \"#utility.yul\":4916:4986   */\n      tag_121\n      jump\t// in\n    tag_199:\n        /* \"#utility.yul\":4906:4986   */\n      swap3\n      pop\n        /* \"#utility.yul\":5015:5019   */\n      0x20\n        /* \"#utility.yul\":5010:5013   */\n      dup11\n        /* \"#utility.yul\":5006:5020   */\n      add\n        /* \"#utility.yul\":4999:5020   */\n      swap10\n      pop\n        /* \"#utility.yul\":4694:5030   */\n      pop\n        /* \"#utility.yul\":4681:4682   */\n      0x01\n        /* \"#utility.yul\":4678:4679   */\n      dup2\n        /* \"#utility.yul\":4674:4683   */\n      add\n        /* \"#utility.yul\":4669:4683   */\n      swap1\n      pop\n        /* \"#utility.yul\":4634:5030   */\n      jump(tag_195)\n    tag_197:\n        /* \"#utility.yul\":4638:4652   */\n      pop\n        /* \"#utility.yul\":5046:5050   */\n      dup3\n        /* \"#utility.yul\":5039:5050   */\n      swap8\n      pop\n        /* \"#utility.yul\":5066:5069   */\n      dup8\n        /* \"#utility.yul\":5059:5069   */\n      swap6\n      pop\n        /* \"#utility.yul\":4228:5075   */\n      pop\n      pop\n      pop\n      pop\n      pop\n        /* \"#utility.yul\":4084:5075   */\n      swap3\n      swap2\n      pop\n      pop\n      jump\t// out\n        /* \"#utility.yul\":5081:5494   */\n    tag_26:\n        /* \"#utility.yul\":5244:5248   */\n      0x00\n        /* \"#utility.yul\":5282:5284   */\n      0x20\n        /* \"#utility.yul\":5271:5280   */\n      dup3\n        /* \"#utility.yul\":5267:5285   */\n      add\n        /* \"#utility.yul\":5259:5285   */\n      swap1\n      pop\n        /* \"#utility.yul\":5331:5340   */\n      dup2\n        /* \"#utility.yul\":5325:5329   */\n      dup2\n        /* \"#utility.yul\":5321:5341   */\n      sub\n        /* \"#utility.yul\":5317:5318   */\n      0x00\n        /* \"#utility.yul\":5306:5315   */\n      dup4\n        /* \"#utility.yul\":5302:5319   */\n      add\n        /* \"#utility.yul\":5295:5342   */\n      mstore\n        /* \"#utility.yul\":5359:5487   */\n      tag_201\n        /* \"#utility.yul\":5482:5486   */\n      dup2\n        /* \"#utility.yul\":5473:5479   */\n      dup5\n        /* \"#utility.yul\":5359:5487   */\n      tag_122\n      jump\t// in\n    tag_201:\n        /* \"#utility.yul\":5351:5487   */\n      swap1\n      pop\n        /* \"#utility.yul\":5081:5494   */\n      swap3\n      swap2\n      pop\n      pop\n      jump\t// out\n        /* \"#utility.yul\":5500:5604   */\n    tag_123:\n        /* \"#utility.yul\":5565:5571   */\n      0x00\n        /* \"#utility.yul\":5593:5597   */\n      0x06\n        /* \"#utility.yul\":5583:5597   */\n      swap1\n      pop\n        /* \"#utility.yul\":5500:5604   */\n      swap2\n      swap1\n      pop\n      jump\t// out\n        /* \"#utility.yul\":5610:5753   */\n    tag_124:\n        /* \"#utility.yul\":5707:5718   */\n      0x00\n        /* \"#utility.yul\":5744:5747   */\n      dup2\n        /* \"#utility.yul\":5729:5747   */\n      swap1\n      pop\n        /* \"#utility.yul\":5610:5753   */\n      swap3\n      swap2\n      pop\n      pop\n      jump\t// out\n        /* \"#utility.yul\":5759:5857   */\n    tag_125:\n        /* \"#utility.yul\":5824:5828   */\n      0x00\n        /* \"#utility.yul\":5847:5850   */\n      dup2\n        /* \"#utility.yul\":5839:5850   */\n      swap1\n      pop\n        /* \"#utility.yul\":5759:5857   */\n      swap2\n      swap1\n      pop\n      jump\t// out\n        /* \"#utility.yul\":5863:5971   */\n    tag_126:\n        /* \"#utility.yul\":5940:5964   */\n      tag_206\n        /* \"#utility.yul\":5958:5963   */\n      dup2\n        /* \"#utility.yul\":5940:5964   */\n      tag_106\n      jump\t// in\n    tag_206:\n        /* \"#utility.yul\":5935:5938   */\n      dup3\n        /* \"#utility.yul\":5928:5965   */\n      mstore\n        /* \"#utility.yul\":5863:5971   */\n      pop\n      pop\n      jump\t// out\n        /* \"#utility.yul\":5977:6156   */\n    tag_127:\n        /* \"#utility.yul\":6046:6056   */\n      0x00\n        /* \"#utility.yul\":6067:6113   */\n      tag_208\n        /* \"#utility.yul\":6109:6112   */\n      dup4\n        /* \"#utility.yul\":6101:6107   */\n      dup4\n        /* \"#utility.yul\":6067:6113   */\n      tag_126\n      jump\t// in\n    tag_208:\n        /* \"#utility.yul\":6145:6149   */\n      0x20\n        /* \"#utility.yul\":6140:6143   */\n      dup4\n        /* \"#utility.yul\":6136:6150   */\n      add\n        /* \"#utility.yul\":6122:6150   */\n      swap1\n      pop\n        /* \"#utility.yul\":5977:6156   */\n      swap3\n      swap2\n      pop\n      pop\n      jump\t// out\n        /* \"#utility.yul\":6162:6273   */\n    tag_128:\n        /* \"#utility.yul\":6230:6234   */\n      0x00\n        /* \"#utility.yul\":6262:6266   */\n      0x20\n        /* \"#utility.yul\":6257:6260   */\n      dup3\n        /* \"#utility.yul\":6253:6267   */\n      add\n        /* \"#utility.yul\":6245:6267   */\n      swap1\n      pop\n        /* \"#utility.yul\":6162:6273   */\n      swap2\n      swap1\n      pop\n      jump\t// out\n        /* \"#utility.yul\":6311:7005   */\n    tag_129:\n        /* \"#utility.yul\":6447:6499   */\n      tag_211\n        /* \"#utility.yul\":6493:6498   */\n      dup2\n        /* \"#utility.yul\":6447:6499   */\n      tag_123\n      jump\t// in\n    tag_211:\n        /* \"#utility.yul\":6515:6599   */\n      tag_212\n        /* \"#utility.yul\":6592:6598   */\n      dup2\n        /* \"#utility.yul\":6587:6590   */\n      dup5\n        /* \"#utility.yul\":6515:6599   */\n      tag_124\n      jump\t// in\n    tag_212:\n        /* \"#utility.yul\":6508:6599   */\n      swap3\n      pop\n        /* \"#utility.yul\":6623:6677   */\n      tag_213\n        /* \"#utility.yul\":6671:6676   */\n      dup3\n        /* \"#utility.yul\":6623:6677   */\n      tag_125\n      jump\t// in\n    tag_213:\n        /* \"#utility.yul\":6700:6707   */\n      dup1\n        /* \"#utility.yul\":6731:6732   */\n      0x00\n        /* \"#utility.yul\":6716:6998   */\n    tag_214:\n        /* \"#utility.yul\":6741:6747   */\n      dup4\n        /* \"#utility.yul\":6738:6739   */\n      dup2\n        /* \"#utility.yul\":6735:6748   */\n      lt\n        /* \"#utility.yul\":6716:6998   */\n      iszero\n      tag_216\n      jumpi\n        /* \"#utility.yul\":6817:6823   */\n      dup2\n        /* \"#utility.yul\":6811:6824   */\n      mload\n        /* \"#utility.yul\":6844:6907   */\n      tag_217\n        /* \"#utility.yul\":6903:6906   */\n      dup8\n        /* \"#utility.yul\":6888:6901   */\n      dup3\n        /* \"#utility.yul\":6844:6907   */\n      tag_127\n      jump\t// in\n    tag_217:\n        /* \"#utility.yul\":6837:6907   */\n      swap7\n      pop\n        /* \"#utility.yul\":6930:6988   */\n      tag_218\n        /* \"#utility.yul\":6981:6987   */\n      dup4\n        /* \"#utility.yul\":6930:6988   */\n      tag_128\n      jump\t// in\n    tag_218:\n        /* \"#utility.yul\":6920:6988   */\n      swap3\n      pop\n        /* \"#utility.yul\":6776:6998   */\n      pop\n        /* \"#utility.yul\":6763:6764   */\n      0x01\n        /* \"#utility.yul\":6760:6761   */\n      dup2\n        /* \"#utility.yul\":6756:6765   */\n      add\n        /* \"#utility.yul\":6751:6765   */\n      swap1\n      pop\n        /* \"#utility.yul\":6716:6998   */\n      jump(tag_214)\n    tag_216:\n        /* \"#utility.yul\":6720:6734   */\n      pop\n        /* \"#utility.yul\":6423:7005   */\n      pop\n      pop\n      pop\n        /* \"#utility.yul\":6311:7005   */\n      pop\n      pop\n      jump\t// out\n        /* \"#utility.yul\":7011:7326   */\n    tag_32:\n        /* \"#utility.yul\":7150:7154   */\n      0x00\n        /* \"#utility.yul\":7188:7191   */\n      0xc0\n        /* \"#utility.yul\":7177:7186   */\n      dup3\n        /* \"#utility.yul\":7173:7192   */\n      add\n        /* \"#utility.yul\":7165:7192   */\n      swap1\n      pop\n        /* \"#utility.yul\":7202:7319   */\n      tag_220\n        /* \"#utility.yul\":7316:7317   */\n      0x00\n        /* \"#utility.yul\":7305:7314   */\n      dup4\n        /* \"#utility.yul\":7301:7318   */\n      add\n        /* \"#utility.yul\":7292:7298   */\n      dup5\n        /* \"#utility.yul\":7202:7319   */\n      tag_129\n      jump\t// in\n    tag_220:\n        /* \"#utility.yul\":7011:7326   */\n      swap3\n      swap2\n      pop\n      pop\n      jump\t// out\n        /* \"#utility.yul\":7332:7512   */\n    tag_130:\n        /* \"#utility.yul\":7380:7457   */\n      0x4e487b7100000000000000000000000000000000000000000000000000000000\n        /* \"#utility.yul\":7377:7378   */\n      0x00\n        /* \"#utility.yul\":7370:7458   */\n      mstore\n        /* \"#utility.yul\":7477:7481   */\n      0x22\n        /* \"#utility.yul\":7474:7475   */\n      0x04\n        /* \"#utility.yul\":7467:7482   */\n      mstore\n        /* \"#utility.yul\":7501:7505   */\n      0x24\n        /* \"#utility.yul\":7498:7499   */\n      0x00\n        /* \"#utility.yul\":7491:7506   */\n      revert\n        /* \"#utility.yul\":7518:7838   */\n    tag_49:\n        /* \"#utility.yul\":7562:7568   */\n      0x00\n        /* \"#utility.yul\":7599:7600   */\n      0x02\n        /* \"#utility.yul\":7593:7597   */\n      dup3\n        /* \"#utility.yul\":7589:7601   */\n      div\n        /* \"#utility.yul\":7579:7601   */\n      swap1\n      pop\n        /* \"#utility.yul\":7646:7647   */\n      0x01\n        /* \"#utility.yul\":7640:7644   */\n      dup3\n        /* \"#utility.yul\":7636:7648   */\n      and\n        /* \"#utility.yul\":7667:7685   */\n      dup1\n        /* \"#utility.yul\":7657:7738   */\n      tag_223\n      jumpi\n        /* \"#utility.yul\":7723:7727   */\n      0x7f\n        /* \"#utility.yul\":7715:7721   */\n      dup3\n        /* \"#utility.yul\":7711:7728   */\n      and\n        /* \"#utility.yul\":7701:7728   */\n      swap2\n      pop\n        /* \"#utility.yul\":7657:7738   */\n    tag_223:\n        /* \"#utility.yul\":7785:7787   */\n      0x20\n        /* \"#utility.yul\":7777:7783   */\n      dup3\n        /* \"#utility.yul\":7774:7788   */\n      lt\n        /* \"#utility.yul\":7754:7772   */\n      dup2\n        /* \"#utility.yul\":7751:7789   */\n      sub\n        /* \"#utility.yul\":7748:7832   */\n      tag_224\n      jumpi\n        /* \"#utility.yul\":7804:7822   */\n      tag_225\n      tag_130\n      jump\t// in\n    tag_225:\n        /* \"#utility.yul\":7748:7832   */\n    tag_224:\n        /* \"#utility.yul\":7569:7838   */\n      pop\n        /* \"#utility.yul\":7518:7838   */\n      swap2\n      swap1\n      pop\n      jump\t// out\n        /* \"#utility.yul\":7844:8024   */\n    tag_131:\n        /* \"#utility.yul\":7892:7969   */\n      0x4e487b7100000000000000000000000000000000000000000000000000000000\n        /* \"#utility.yul\":7889:7890   */\n      0x00\n        /* \"#utility.yul\":7882:7970   */\n      mstore\n        /* \"#utility.yul\":7989:7993   */\n      0x41\n        /* \"#utility.yul\":7986:7987   */\n      0x04\n        /* \"#utility.yul\":7979:7994   */\n      mstore\n        /* \"#utility.yul\":8013:8017   */\n      0x24\n        /* \"#utility.yul\":8010:8011   */\n      0x00\n        /* \"#utility.yul\":8003:8018   */\n      revert\n        /* \"#utility.yul\":8030:8171   */\n    tag_132:\n        /* \"#utility.yul\":8079:8083   */\n      0x00\n        /* \"#utility.yul\":8102:8105   */\n      dup2\n        /* \"#utility.yul\":8094:8105   */\n      swap1\n      pop\n        /* \"#utility.yul\":8125:8128   */\n      dup2\n        /* \"#utility.yul\":8122:8123   */\n      0x00\n        /* \"#utility.yul\":8115:8129   */\n      mstore\n        /* \"#utility.yul\":8159:8163   */\n      0x20\n        /* \"#utility.yul\":8156:8157   */\n      0x00\n        /* \"#utility.yul\":8146:8164   */\n      keccak256\n        /* \"#utility.yul\":8138:8164   */\n      swap1\n      pop\n        /* \"#utility.yul\":8030:8171   */\n      swap2\n      swap1\n      pop\n      jump\t// out\n        /* \"#utility.yul\":8177:8270   */\n    tag_133:\n        /* \"#utility.yul\":8214:8220   */\n      0x00\n        /* \"#utility.yul\":8261:8263   */\n      0x20\n        /* \"#utility.yul\":8256:8258   */\n      0x1f\n        /* \"#utility.yul\":8249:8254   */\n      dup4\n        /* \"#utility.yul\":8245:8259   */\n      add\n        /* \"#utility.yul\":8241:8264   */\n      div\n        /* \"#utility.yul\":8231:8264   */\n      swap1\n      pop\n        /* \"#utility.yul\":8177:8270   */\n      swap2\n      swap1\n      pop\n      jump\t// out\n        /* \"#utility.yul\":8276:8383   */\n    tag_134:\n        /* \"#utility.yul\":8320:8328   */\n      0x00\n        /* \"#utility.yul\":8370:8375   */\n      dup3\n        /* \"#utility.yul\":8364:8368   */\n      dup3\n        /* \"#utility.yul\":8360:8376   */\n      shl\n        /* \"#utility.yul\":8339:8376   */\n      swap1\n      pop\n        /* \"#utility.yul\":8276:8383   */\n      swap3\n      swap2\n      pop\n      pop\n      jump\t// out\n        /* \"#utility.yul\":8389:8782   */\n    tag_135:\n        /* \"#utility.yul\":8458:8464   */\n      0x00\n        /* \"#utility.yul\":8508:8509   */\n      0x08\n        /* \"#utility.yul\":8496:8506   */\n      dup4\n        /* \"#utility.yul\":8492:8510   */\n      mul\n        /* \"#utility.yul\":8531:8628   */\n      tag_231\n        /* \"#utility.yul\":8561:8627   */\n      0xffffffffffffffffffffffffffffffffffffffffffffffffffffffffffffffff\n        /* \"#utility.yul\":8550:8559   */\n      dup3\n        /* \"#utility.yul\":8531:8628   */\n      tag_134\n      jump\t// in\n    tag_231:\n        /* \"#utility.yul\":8649:8688   */\n      tag_232\n        /* \"#utility.yul\":8679:8687   */\n      dup7\n        /* \"#utility.yul\":8668:8677   */\n      dup4\n        /* \"#utility.yul\":8649:8688   */\n      tag_134\n      jump\t// in\n    tag_232:\n        /* \"#utility.yul\":8637:8688   */\n      swap6\n      pop\n        /* \"#utility.yul\":8721:8725   */\n      dup1\n        /* \"#utility.yul\":8717:8726   */\n      not\n        /* \"#utility.yul\":8710:8715   */\n      dup5\n        /* \"#utility.yul\":8706:8727   */\n      and\n        /* \"#utility.yul\":8697:8727   */\n      swap4\n      pop\n        /* \"#utility.yul\":8770:8774   */\n      dup1\n        /* \"#utility.yul\":8760:8768   */\n      dup7\n        /* \"#utility.yul\":8756:8775   */\n      and\n        /* \"#utility.yul\":8749:8754   */\n      dup5\n        /* \"#utility.yul\":8746:8776   */\n      or\n        /* \"#utility.yul\":8736:8776   */\n      swap3\n      pop\n        /* \"#utility.yul\":8465:8782   */\n      pop\n      pop\n        /* \"#utility.yul\":8389:8782   */\n      swap4\n      swap3\n      pop\n      pop\n      pop\n      jump\t// out\n        /* \"#utility.yul\":8788:8848   */\n    tag_136:\n        /* \"#utility.yul\":8816:8819   */\n      0x00\n        /* \"#utility.yul\":8837:8842   */\n      dup2\n        /* \"#utility.yul\":8830:8842   */\n      swap1\n      pop\n        /* \"#utility.yul\":8788:8848   */\n      swap2\n      swap1\n      pop\n      jump\t// out\n        /* \"#utility.yul\":8854:8996   */\n    tag_137:\n        /* \"#utility.yul\":8904:8913   */\n      0x00\n        /* \"#utility.yul\":8937:8990   */\n      tag_235\n        /* \"#utility.yul\":8955:8989   */\n      tag_236\n        /* \"#utility.yul\":8964:8988   */\n      tag_237\n        /* \"#utility.yul\":8982:8987   */\n      dup5\n        /* \"#utility.yul\":8964:8988   */\n      tag_106\n      jump\t// in\n    tag_237:\n        /* \"#utility.yul\":8955:8989   */\n      tag_136\n      jump\t// in\n    tag_236:\n        /* \"#utility.yul\":8937:8990   */\n      tag_106\n      jump\t// in\n    tag_235:\n        /* \"#utility.yul\":8924:8990   */\n      swap1\n      pop\n        /* \"#utility.yul\":8854:8996   */\n      swap2\n      swap1\n      pop\n      jump\t// out\n        /* \"#utility.yul\":9002:9077   */\n    tag_138:\n        /* \"#utility.yul\":9045:9048   */\n      0x00\n        /* \"#utility.yul\":9066:9071   */\n      dup2\n        /* \"#utility.yul\":9059:9071   */\n      swap1\n      pop\n        /* \"#utility.yul\":9002:9077   */\n      swap2\n      swap1\n      pop\n      jump\t// out\n        /* \"#utility.yul\":9083:9352   */\n    tag_139:\n        /* \"#utility.yul\":9193:9232   */\n      tag_240\n        /* \"#utility.yul\":9224:9231   */\n      dup4\n        /* \"#utility.yul\":9193:9232   */\n      tag_137\n      jump\t// in\n    tag_240:\n        /* \"#utility.yul\":9254:9345   */\n      tag_241\n        /* \"#utility.yul\":9303:9344   */\n      tag_242\n        /* \"#utility.yul\":9327:9343   */\n      dup3\n        /* \"#utility.yul\":9303:9344   */\n      tag_138\n      jump\t// in\n    tag_242:\n        /* \"#utility.yul\":9295:9301   */\n      dup5\n        /* \"#utility.yul\":9288:9292   */\n      dup5\n        /* \"#utility.yul\":9282:9293   */\n      sload\n        /* \"#utility.yul\":9254:9345   */\n      tag_135\n      jump\t// in\n    tag_241:\n        /* \"#utility.yul\":9248:9252   */\n      dup3\n        /* \"#utility.yul\":9241:9346   */\n      sstore\n        /* \"#utility.yul\":9159:9352   */\n      pop\n        /* \"#utility.yul\":9083:9352   */\n      pop\n      pop\n      pop\n      jump\t// out\n        /* \"#utility.yul\":9358:9431   */\n    tag_140:\n        /* \"#utility.yul\":9403:9406   */\n      0x00\n        /* \"#utility.yul\":9358:9431   */\n      swap1\n      jump\t// out\n        /* \"#utility.yul\":9437:9626   */\n    tag_141:\n        /* \"#utility.yul\":9514:9546   */\n      tag_245\n      tag_140\n      jump\t// in\n    tag_245:\n        /* \"#utility.yul\":9555:9620   */\n      tag_246\n        /* \"#utility.yul\":9613:9619   */\n      dup2\n        /* \"#utility.yul\":9605:9611   */\n      dup5\n        /* \"#utility.yul\":9599:9603   */\n      dup5\n        /* \"#utility.yul\":9555:9620   */\n      tag_139\n      jump\t// in\n    tag_246:\n        /* \"#utility.yul\":9490:9626   */\n      pop\n        /* \"#utility.yul\":9437:9626   */\n      pop\n      pop\n      jump\t// out\n        /* \"#utility.yul\":9632:9818   */\n    tag_142:\n        /* \"#utility.yul\":9692:9812   */\n    tag_248:\n        /* \"#utility.yul\":9709:9712   */\n      dup2\n        /* \"#utility.yul\":9702:9707   */\n      dup2\n        /* \"#utility.yul\":9699:9713   */\n      lt\n        /* \"#utility.yul\":9692:9812   */\n      iszero\n      tag_250\n      jumpi\n        /* \"#utility.yul\":9763:9802   */\n      tag_251\n        /* \"#utility.yul\":9800:9801   */\n      0x00\n        /* \"#utility.yul\":9793:9798   */\n      dup3\n        /* \"#utility.yul\":9763:9802   */\n      tag_141\n      jump\t// in\n    tag_251:\n        /* \"#utility.yul\":9736:9737   */\n      0x01\n        /* \"#utility.yul\":9729:9734   */\n      dup2\n        /* \"#utility.yul\":9725:9738   */\n      add\n        /* \"#utility.yul\":9716:9738   */\n      swap1\n      pop\n        /* \"#utility.yul\":9692:9812   */\n      jump(tag_248)\n    tag_250:\n        /* \"#utility.yul\":9632:9818   */\n      pop\n      pop\n      jump\t// out\n        /* \"#utility.yul\":9824:10367   */\n    tag_143:\n        /* \"#utility.yul\":9925:9927   */\n      0x1f\n        /* \"#utility.yul\":9920:9923   */\n      dup3\n        /* \"#utility.yul\":9917:9928   */\n      gt\n        /* \"#utility.yul\":9914:10360   */\n      iszero\n      tag_253\n      jumpi\n        /* \"#utility.yul\":9959:9997   */\n      tag_254\n        /* \"#utility.yul\":9991:9996   */\n      dup2\n        /* \"#utility.yul\":9959:9997   */\n      tag_132\n      jump\t// in\n    tag_254:\n        /* \"#utility.yul\":10043:10072   */\n      tag_255\n        /* \"#utility.yul\":10061:10071   */\n      dup5\n        /* \"#utility.yul\":10043:10072   */\n      tag_133\n      jump\t// in\n    tag_255:\n        /* \"#utility.yul\":10033:10041   */\n      dup2\n        /* \"#utility.yul\":10029:10073   */\n      add\n        /* \"#utility.yul\":10226:10228   */\n      0x20\n        /* \"#utility.yul\":10214:10224   */\n      dup6\n        /* \"#utility.yul\":10211:10229   */\n      lt\n        /* \"#utility.yul\":10208:10257   */\n      iszero\n      tag_256\n      jumpi\n        /* \"#utility.yul\":10247:10255   */\n      dup2\n        /* \"#utility.yul\":10232:10255   */\n      swap1\n      pop\n        /* \"#utility.yul\":10208:10257   */\n    tag_256:\n        /* \"#utility.yul\":10270:10350   */\n      tag_257\n        /* \"#utility.yul\":10326:10348   */\n      tag_258\n        /* \"#utility.yul\":10344:10347   */\n      dup6\n        /* \"#utility.yul\":10326:10348   */\n      tag_133\n      jump\t// in\n    tag_258:\n        /* \"#utility.yul\":10316:10324   */\n      dup4\n        /* \"#utility.yul\":10312:10349   */\n      add\n        /* \"#utility.yul\":10299:10310   */\n      dup3\n        /* \"#utility.yul\":10270:10350   */\n      tag_142\n      jump\t// in\n    tag_257:\n        /* \"#utility.yul\":9929:10360   */\n      pop\n      pop\n        /* \"#utility.yul\":9914:10360   */\n    tag_253:\n        /* \"#utility.yul\":9824:10367   */\n      pop\n      pop\n      pop\n      jump\t// out\n        /* \"#utility.yul\":10373:10490   */\n    tag_144:\n        /* \"#utility.yul\":10427:10435   */\n      0x00\n        /* \"#utility.yul\":10477:10482   */\n      dup3\n        /* \"#utility.yul\":10471:10475   */\n      dup3\n        /* \"#utility.yul\":10467:10483   */\n      shr\n        /* \"#utility.yul\":10446:10483   */\n      swap1\n      pop\n        /* \"#utility.yul\":10373:10490   */\n      swap3\n      swap2\n      pop\n      pop\n      jump\t// out\n        /* \"#utility.yul\":10496:10665   */\n    tag_145:\n        /* \"#utility.yul\":10540:10546   */\n      0x00\n        /* \"#utility.yul\":10573:10624   */\n      tag_261\n        /* \"#utility.yul\":10621:10622   */\n      0x00\n        /* \"#utility.yul\":10617:10623   */\n      not\n        /* \"#utility.yul\":10609:10614   */\n      dup5\n        /* \"#utility.yul\":10606:10607   */\n      0x08\n        /* \"#utility.yul\":10602:10615   */\n      mul\n        /* \"#utility.yul\":10573:10624   */\n      tag_144\n      jump\t// in\n    tag_261:\n        /* \"#utility.yul\":10569:10625   */\n      not\n        /* \"#utility.yul\":10654:10658   */\n      dup1\n        /* \"#utility.yul\":10648:10652   */\n      dup4\n        /* \"#utility.yul\":10644:10659   */\n      and\n        /* \"#utility.yul\":10634:10659   */\n      swap2\n      pop\n        /* \"#utility.yul\":10547:10665   */\n      pop\n        /* \"#utility.yul\":10496:10665   */\n      swap3\n      swap2\n      pop\n      pop\n      jump\t// out\n        /* \"#utility.yul\":10670:10965   */\n    tag_146:\n        /* \"#utility.yul\":10746:10750   */\n      0x00\n        /* \"#utility.yul\":10892:10921   */\n      tag_263\n        /* \"#utility.yul\":10917:10920   */\n      dup4\n        /* \"#utility.yul\":10911:10915   */\n      dup4\n        /* \"#utility.yul\":10892:10921   */\n      tag_145\n      jump\t// in\n    tag_263:\n        /* \"#utility.yul\":10884:10921   */\n      swap2\n      pop\n        /* \"#utility.yul\":10954:10957   */\n      dup3\n        /* \"#utility.yul\":10951:10952   */\n      0x02\n        /* \"#utility.yul\":10947:10958   */\n      mul\n        /* \"#utility.yul\":10941:10945   */\n      dup3\n        /* \"#utility.yul\":10938:10959   */\n      or\n        /* \"#utility.yul\":10930:10959   */\n      swap1\n      pop\n        /* \"#utility.yul\":10670:10965   */\n      swap3\n      swap2\n      pop\n      pop\n      jump\t// out\n        /* \"#utility.yul\":10970:12365   */\n    tag_67:\n        /* \"#utility.yul\":11087:11124   */\n      tag_265\n        /* \"#utility.yul\":11120:11123   */\n      dup3\n        /* \"#utility.yul\":11087:11124   */\n      tag_109\n      jump\t// in\n    tag_265:\n        /* \"#utility.yul\":11189:11207   */\n      0xffffffffffffffff\n        /* \"#utility.yul\":11181:11187   */\n      dup2\n        /* \"#utility.yul\":11178:11208   */\n      gt\n        /* \"#utility.yul\":11175:11231   */\n      iszero\n      tag_266\n      jumpi\n        /* \"#utility.yul\":11211:11229   */\n      tag_267\n      tag_131\n      jump\t// in\n    tag_267:\n        /* \"#utility.yul\":11175:11231   */\n    tag_266:\n        /* \"#utility.yul\":11255:11293   */\n      tag_268\n        /* \"#utility.yul\":11287:11291   */\n      dup3\n        /* \"#utility.yul\":11281:11292   */\n      sload\n        /* \"#utility.yul\":11255:11293   */\n      tag_49\n      jump\t// in\n    tag_268:\n        /* \"#utility.yul\":11340:11407   */\n      tag_269\n        /* \"#utility.yul\":11400:11406   */\n      dup3\n        /* \"#utility.yul\":11392:11398   */\n      dup3\n        /* \"#utility.yul\":11386:11390   */\n      dup6\n        /* \"#utility.yul\":11340:11407   */\n      tag_143\n      jump\t// in\n    tag_269:\n        /* \"#utility.yul\":11434:11435   */\n      0x00\n        /* \"#utility.yul\":11458:11462   */\n      0x20\n        /* \"#utility.yul\":11445:11462   */\n      swap1\n      pop\n        /* \"#utility.yul\":11490:11492   */\n      0x1f\n        /* \"#utility.yul\":11482:11488   */\n      dup4\n        /* \"#utility.yul\":11479:11493   */\n      gt\n        /* \"#utility.yul\":11507:11508   */\n      0x01\n        /* \"#utility.yul\":11502:12120   */\n      dup2\n      eq\n      tag_271\n      jumpi\n        /* \"#utility.yul\":12164:12165   */\n      0x00\n        /* \"#utility.yul\":12181:12187   */\n      dup5\n        /* \"#utility.yul\":12178:12255   */\n      iszero\n      tag_272\n      jumpi\n        /* \"#utility.yul\":12230:12239   */\n      dup3\n        /* \"#utility.yul\":12225:12228   */\n      dup8\n        /* \"#utility.yul\":12221:12240   */\n      add\n        /* \"#utility.yul\":12215:12241   */\n      mload\n        /* \"#utility.yul\":12206:12241   */\n      swap1\n      pop\n        /* \"#utility.yul\":12178:12255   */\n    tag_272:\n        /* \"#utility.yul\":12281:12348   */\n      tag_273\n        /* \"#utility.yul\":12341:12347   */\n      dup6\n        /* \"#utility.yul\":12334:12339   */\n      dup3\n        /* \"#utility.yul\":12281:12348   */\n      tag_146\n      jump\t// in\n    tag_273:\n        /* \"#utility.yul\":12275:12279   */\n      dup7\n        /* \"#utility.yul\":12268:12349   */\n      sstore\n        /* \"#utility.yul\":12137:12359   */\n      pop\n        /* \"#utility.yul\":11472:12359   */\n      jump(tag_270)\n        /* \"#utility.yul\":11502:12120   */\n    tag_271:\n        /* \"#utility.yul\":11554:11558   */\n      0x1f\n        /* \"#utility.yul\":11550:11559   */\n      not\n        /* \"#utility.yul\":11542:11548   */\n      dup5\n        /* \"#utility.yul\":11538:11560   */\n      and\n        /* \"#utility.yul\":11588:11625   */\n      tag_274\n        /* \"#utility.yul\":11620:11624   */\n      dup7\n        /* \"#utility.yul\":11588:11625   */\n      tag_132\n      jump\t// in\n    tag_274:\n        /* \"#utility.yul\":11647:11648   */\n      0x00\n        /* \"#utility.yul\":11661:11869   */\n    tag_275:\n        /* \"#utility.yul\":11675:11682   */\n      dup3\n        /* \"#utility.yul\":11672:11673   */\n      dup2\n        /* \"#utility.yul\":11669:11683   */\n      lt\n        /* \"#utility.yul\":11661:11869   */\n      iszero\n      tag_277\n      jumpi\n        /* \"#utility.yul\":11754:11763   */\n      dup5\n        /* \"#utility.yul\":11749:11752   */\n      dup10\n        /* \"#utility.yul\":11745:11764   */\n      add\n        /* \"#utility.yul\":11739:11765   */\n      mload\n        /* \"#utility.yul\":11731:11737   */\n      dup3\n        /* \"#utility.yul\":11724:11766   */\n      sstore\n        /* \"#utility.yul\":11805:11806   */\n      0x01\n        /* \"#utility.yul\":11797:11803   */\n      dup3\n        /* \"#utility.yul\":11793:11807   */\n      add\n        /* \"#utility.yul\":11783:11807   */\n      swap2\n      pop\n        /* \"#utility.yul\":11852:11854   */\n      0x20\n        /* \"#utility.yul\":11841:11850   */\n      dup6\n        /* \"#utility.yul\":11837:11855   */\n      add\n        /* \"#utility.yul\":11824:11855   */\n      swap5\n      pop\n        /* \"#utility.yul\":11698:11702   */\n      0x20\n        /* \"#utility.yul\":11695:11696   */\n      dup2\n        /* \"#utility.yul\":11691:11703   */\n      add\n        /* \"#utility.yul\":11686:11703   */\n      swap1\n      pop\n        /* \"#utility.yul\":11661:11869   */\n      jump(tag_275)\n    tag_277:\n        /* \"#utility.yul\":11897:11903   */\n      dup7\n        /* \"#utility.yul\":11888:11895   */\n      dup4\n        /* \"#utility.yul\":11885:11904   */\n      lt\n        /* \"#utility.yul\":11882:12061   */\n      iszero\n      tag_278\n      jumpi\n        /* \"#utility.yul\":11955:11964   */\n      dup5\n        /* \"#utility.yul\":11950:11953   */\n      dup10\n        /* \"#utility.yul\":11946:11965   */\n      add\n        /* \"#utility.yul\":11940:11966   */\n      mload\n        /* \"#utility.yul\":11998:12046   */\n      tag_279\n        /* \"#utility.yul\":12040:12044   */\n      0x1f\n        /* \"#utility.yul\":12032:12038   */\n      dup10\n        /* \"#utility.yul\":12028:12045   */\n      and\n        /* \"#utility.yul\":12017:12026   */\n      dup3\n        /* \"#utility.yul\":11998:12046   */\n      tag_145\n      jump\t// in\n    tag_279:\n        /* \"#utility.yul\":11990:11996   */\n      dup4\n        /* \"#utility.yul\":11983:12047   */\n      sstore\n        /* \"#utility.yul\":11905:12061   */\n      pop\n        /* \"#utility.yul\":11882:12061   */\n    tag_278:\n        /* \"#utility.yul\":12107:12108   */\n      0x01\n        /* \"#utility.yul\":12103:12104   */\n      0x02\n        /* \"#utility.yul\":12095:12101   */\n      dup9\n        /* \"#utility.yul\":12091:12105   */\n      mul\n        /* \"#utility.yul\":12087:12109   */\n      add\n        /* \"#utility.yul\":12081:12085   */\n      dup9\n        /* \"#utility.yul\":12074:12110   */\n      sstore\n        /* \"#utility.yul\":11509:12120   */\n      pop\n      pop\n      pop\n        /* \"#utility.yul\":11472:12359   */\n    tag_270:\n      pop\n        /* \"#utility.yul\":11062:12365   */\n      pop\n      pop\n      pop\n        /* \"#utility.yul\":10970:12365   */\n      pop\n      pop\n      jump\t// out\n        /* \"#utility.yul\":12371:12551   */\n    tag_78:\n        /* \"#utility.yul\":12419:12496   */\n      0x4e487b7100000000000000000000000000000000000000000000000000000000\n        /* \"#utility.yul\":12416:12417   */\n      0x00\n        /* \"#utility.yul\":12409:12497   */\n      mstore\n        /* \"#utility.yul\":12516:12520   */\n      0x31\n        /* \"#utility.yul\":12513:12514   */\n      0x04\n        /* \"#utility.yul\":12506:12521   */\n      mstore\n        /* \"#utility.yul\":12540:12544   */\n      0x24\n        /* \"#utility.yul\":12537:12538   */\n      0x00\n        /* \"#utility.yul\":12530:12545   */\n      revert\n        /* \"#utility.yul\":12557:12737   */\n    tag_86:\n        /* \"#utility.yul\":12605:12682   */\n      0x4e487b7100000000000000000000000000000000000000000000000000000000\n        /* \"#utility.yul\":12602:12603   */\n      0x00\n        /* \"#utility.yul\":12595:12683   */\n      mstore\n        /* \"#utility.yul\":12702:12706   */\n      0x32\n        /* \"#utility.yul\":12699:12700   */\n      0x04\n        /* \"#utility.yul\":12692:12707   */\n      mstore\n        /* \"#utility.yul\":12726:12730   */\n      0x24\n        /* \"#utility.yul\":12723:12724   */\n      0x00\n        /* \"#utility.yul\":12716:12731   */\n      revert\n\n    auxdata: 0xa26469706673582212203ba20af77812b1cf575e5f5fa3733621c6d10268eaf0d7ae44468e2b3cb0804164736f6c63430008120033\n}\n",
				"bytecode": {
					"linkReferences": {},
					"object": "60806040526040518060c00160405280600f60ff168152602001601a60ff168152602001602560ff168152602001603060ff168152602001603b60ff168152602001603f60ff1681525060009060066200005b92919062000178565b5060405180608001604052806040518060400160405280600581526020017f48656c6c6f00000000000000000000000000000000000000000000000000000081525081526020016040518060400160405280600681526020017f53687576616d000000000000000000000000000000000000000000000000000081525081526020016040518060400160405280600681526020017f53616e747261000000000000000000000000000000000000000000000000000081525081526020016040518060400160405280600381526020017f4869690000000000000000000000000000000000000000000000000000000000815250815250600690600462000163929190620001c2565b503480156200017157600080fd5b5062000610565b8260068101928215620001af579160200282015b82811115620001ae578251829060ff169055916020019190600101906200018c565b5b509050620001be919062000222565b5090565b8280548282559060005260206000209081019282156200020f579160200282015b828111156200020e578251829081620001fd919062000529565b5091602001919060010190620001e3565b5b5090506200021e919062000241565b5090565b5b808211156200023d57600081600090555060010162000223565b5090565b5b808211156200026557600081816200025b919062000269565b5060010162000242565b5090565b508054620002779062000318565b6000825580601f106200028b5750620002ac565b601f016020900490600052602060002090810190620002ab919062000222565b5b50565b600081519050919050565b7f4e487b7100000000000000000000000000000000000000000000000000000000600052604160045260246000fd5b7f4e487b7100000000000000000000000000000000000000000000000000000000600052602260045260246000fd5b600060028204905060018216806200033157607f821691505b602082108103620003475762000346620002e9565b5b50919050565b60008190508160005260206000209050919050565b60006020601f8301049050919050565b600082821b905092915050565b600060088302620003b17fffffffffffffffffffffffffffffffffffffffffffffffffffffffffffffffff8262000372565b620003bd868362000372565b95508019841693508086168417925050509392505050565b6000819050919050565b6000819050919050565b60006200040a62000404620003fe84620003d5565b620003df565b620003d5565b9050919050565b6000819050919050565b6200042683620003e9565b6200043e620004358262000411565b8484546200037f565b825550505050565b600090565b6200045562000446565b620004628184846200041b565b505050565b5b818110156200048a576200047e6000826200044b565b60018101905062000468565b5050565b601f821115620004d957620004a3816200034d565b620004ae8462000362565b81016020851015620004be578190505b620004d6620004cd8562000362565b83018262000467565b50505b505050565b600082821c905092915050565b6000620004fe60001984600802620004de565b1980831691505092915050565b6000620005198383620004eb565b9150826002028217905092915050565b6200053482620002af565b67ffffffffffffffff81111562000550576200054f620002ba565b5b6200055c825462000318565b620005698282856200048e565b600060209050601f831160018114620005a157600084156200058c578287015190505b6200059885826200050b565b86555062000608565b601f198416620005b1866200034d565b60005b82811015620005db57848901518255600182019150602085019450602081019050620005b4565b86831015620005fb5784890151620005f7601f891682620004eb565b8355505b6001600288020188555050505b505050505050565b610c8b80620006206000396000f3fe608060405234801561001057600080fd5b50600436106100925760003560e01c806389f915f61161006657806389f915f61461010d578063a4ece52c1461012b578063a69343d914610135578063d39fa23314610153578063f63791b01461018357610092565b8062ad800c1461009757806305917f07146100c757806317d7de7c146100e55780638035f0ce14610103575b600080fd5b6100b160048036038101906100ac91906105ed565b6101b3565b6040516100be91906106aa565b60405180910390f35b6100cf61025f565b6040516100dc91906106db565b60405180910390f35b6100ed61026c565b6040516100fa9190610802565b60405180910390f35b61010b610345565b005b610115610415565b60405161012291906108cf565b60405180910390f35b610133610460565b005b61013d610492565b60405161014a91906108cf565b60405180910390f35b61016d600480360381019061016891906105ed565b6104fa565b60405161017a91906106db565b60405180910390f35b61019d600480360381019061019891906105ed565b610515565b6040516101aa91906106db565b60405180910390f35b600681815481106101c357600080fd5b9060005260206000200160009150905080546101de90610919565b80601f016020809104026020016040519081016040528092919081815260200182805461020a90610919565b80156102575780601f1061022c57610100808354040283529160200191610257565b820191906000526020600020905b81548152906001019060200180831161023a57829003601f168201915b505050505081565b6000600680549050905090565b60606006805480602002602001604051908101604052809291908181526020016000905b8282101561033c5783829060005260206000200180546102af90610919565b80601f01602080910402602001604051908101604052809291908181526020018280546102db90610919565b80156103285780601f106102fd57610100808354040283529160200191610328565b820191906000526020600020905b81548152906001019060200180831161030b57829003601f168201915b505050505081526020019060010190610290565b50505050905090565b600680600181540180825580915050600190039060005260206000200160006040518060400160405280600581526020017f53756e6e79000000000000000000000000000000000000000000000000000000815250909190915090816103ab9190610b25565b50600680600181540180825580915050600190039060005260206000200160006040518060400160405280600681526020017f536f757261760000000000000000000000000000000000000000000000000000815250909190915090816104129190610b25565b50565b61041d610533565b6000600680602002604051908101604052809291908260068015610456576020028201915b815481526020019060010190808311610442575b5050505050905090565b600680548061047257610471610bf7565b5b60019003818190600052602060002001600061048e9190610555565b9055565b61049a610533565b61028a60006002600681106104b2576104b1610c26565b5b018190555060006006806020026040519081016040528092919082600680156104f0576020028201915b8154815260200190600101908083116104dc575b5050505050905090565b6000816006811061050a57600080fd5b016000915090505481565b600080826006811061052a57610529610c26565b5b01549050919050565b6040518060c00160405280600690602082028036833780820191505090505090565b50805461056190610919565b6000825580601f106105735750610592565b601f0160209004906000526020600020908101906105919190610595565b5b50565b5b808211156105ae576000816000905550600101610596565b5090565b600080fd5b6000819050919050565b6105ca816105b7565b81146105d557600080fd5b50565b6000813590506105e7816105c1565b92915050565b600060208284031215610603576106026105b2565b5b6000610611848285016105d8565b91505092915050565b600081519050919050565b600082825260208201905092915050565b60005b83811015610654578082015181840152602081019050610639565b60008484015250505050565b6000601f19601f8301169050919050565b600061067c8261061a565b6106868185610625565b9350610696818560208601610636565b61069f81610660565b840191505092915050565b600060208201905081810360008301526106c48184610671565b905092915050565b6106d5816105b7565b82525050565b60006020820190506106f060008301846106cc565b92915050565b600081519050919050565b600082825260208201905092915050565b6000819050602082019050919050565b600082825260208201905092915050565b600061073e8261061a565b6107488185610722565b9350610758818560208601610636565b61076181610660565b840191505092915050565b60006107788383610733565b905092915050565b6000602082019050919050565b6000610798826106f6565b6107a28185610701565b9350836020820285016107b485610712565b8060005b858110156107f057848403895281516107d1858261076c565b94506107dc83610780565b925060208a019950506001810190506107b8565b50829750879550505050505092915050565b6000602082019050818103600083015261081c818461078d565b905092915050565b600060069050919050565b600081905092915050565b6000819050919050565b61084d816105b7565b82525050565b600061085f8383610844565b60208301905092915050565b6000602082019050919050565b61088181610824565b61088b818461082f565b92506108968261083a565b8060005b838110156108c75781516108ae8782610853565b96506108b98361086b565b92505060018101905061089a565b505050505050565b600060c0820190506108e46000830184610878565b92915050565b7f4e487b7100000000000000000000000000000000000000000000000000000000600052602260045260246000fd5b6000600282049050600182168061093157607f821691505b602082108103610944576109436108ea565b5b50919050565b7f4e487b7100000000000000000000000000000000000000000000000000000000600052604160045260246000fd5b60008190508160005260206000209050919050565b60006020601f8301049050919050565b600082821b905092915050565b6000600883026109db7fffffffffffffffffffffffffffffffffffffffffffffffffffffffffffffffff8261099e565b6109e5868361099e565b95508019841693508086168417925050509392505050565b6000819050919050565b6000610a22610a1d610a18846105b7565b6109fd565b6105b7565b9050919050565b6000819050919050565b610a3c83610a07565b610a50610a4882610a29565b8484546109ab565b825550505050565b600090565b610a65610a58565b610a70818484610a33565b505050565b5b81811015610a9457610a89600082610a5d565b600181019050610a76565b5050565b601f821115610ad957610aaa81610979565b610ab38461098e565b81016020851015610ac2578190505b610ad6610ace8561098e565b830182610a75565b50505b505050565b600082821c905092915050565b6000610afc60001984600802610ade565b1980831691505092915050565b6000610b158383610aeb565b9150826002028217905092915050565b610b2e8261061a565b67ffffffffffffffff811115610b4757610b4661094a565b5b610b518254610919565b610b5c828285610a98565b600060209050601f831160018114610b8f5760008415610b7d578287015190505b610b878582610b09565b865550610bef565b601f198416610b9d86610979565b60005b82811015610bc557848901518255600182019150602085019450602081019050610ba0565b86831015610be25784890151610bde601f891682610aeb565b8355505b6001600288020188555050505b505050505050565b7f4e487b7100000000000000000000000000000000000000000000000000000000600052603160045260246000fd5b7f4e487b7100000000000000000000000000000000000000000000000000000000600052603260045260246000fdfea26469706673582212203ba20af77812b1cf575e5f5fa3733621c6d10268eaf0d7ae44468e2b3cb0804164736f6c63430008120033",
					"opcodes": "PUSH1 0x80 PUSH1 0x40 MSTORE PUSH1 0x40 MLOAD DUP1 PUSH1 0xC0 ADD PUSH1 0x40 MSTORE DUP1 PUSH1 0xF PUSH1 0xFF AND DUP2 MSTORE PUSH1 0x20 ADD PUSH1 0x1A PUSH1 0xFF AND DUP2 MSTORE PUSH1 0x20 ADD PUSH1 0x25 PUSH1 0xFF AND DUP2 MSTORE PUSH1 0x20 ADD PUSH1 0x30 PUSH1 0xFF AND DUP2 MSTORE PUSH1 0x20 ADD PUSH1 0x3B PUSH1 0xFF AND DUP2 MSTORE PUSH1 0x20 ADD PUSH1 0x3F PUSH1 0xFF AND DUP2 MSTORE POP PUSH1 0x0 SWAP1 PUSH1 0x6 PUSH3 0x5B SWAP3 SWAP2 SWAP1 PUSH3 0x178 JUMP JUMPDEST POP PUSH1 0x40 MLOAD DUP1 PUSH1 0x80 ADD PUSH1 0x40 MSTORE DUP1 PUSH1 0x40 MLOAD DUP1 PUSH1 0x40 ADD PUSH1 0x40 MSTORE DUP1 PUSH1 0x5 DUP2 MSTORE PUSH1 0x20 ADD PUSH32 0x48656C6C6F000000000000000000000000000000000000000000000000000000 DUP2 MSTORE POP DUP2 MSTORE PUSH1 0x20 ADD PUSH1 0x40 MLOAD DUP1 PUSH1 0x40 ADD PUSH1 0x40 MSTORE DUP1 PUSH1 0x6 DUP2 MSTORE PUSH1 0x20 ADD PUSH32 0x53687576616D0000000000000000000000000000000000000000000000000000 DUP2 MSTORE POP DUP2 MSTORE PUSH1 0x20 ADD PUSH1 0x40 MLOAD DUP1 PUSH1 0x40 ADD PUSH1 0x40 MSTORE DUP1 PUSH1 0x6 DUP2 MSTORE PUSH1 0x20 ADD PUSH32 0x53616E7472610000000000000000000000000000000000000000000000000000 DUP2 MSTORE POP DUP2 MSTORE PUSH1 0x20 ADD PUSH1 0x40 MLOAD DUP1 PUSH1 0x40 ADD PUSH1 0x40 MSTORE DUP1 PUSH1 0x3 DUP2 MSTORE PUSH1 0x20 ADD PUSH32 0x4869690000000000000000000000000000000000000000000000000000000000 DUP2 MSTORE POP DUP2 MSTORE POP PUSH1 0x6 SWAP1 PUSH1 0x4 PUSH3 0x163 SWAP3 SWAP2 SWAP1 PUSH3 0x1C2 JUMP JUMPDEST POP CALLVALUE DUP1 ISZERO PUSH3 0x171 JUMPI PUSH1 0x0 DUP1 REVERT JUMPDEST POP PUSH3 0x610 JUMP JUMPDEST DUP3 PUSH1 0x6 DUP2 ADD SWAP3 DUP3 ISZERO PUSH3 0x1AF JUMPI SWAP2 PUSH1 0x20 MUL DUP3 ADD JUMPDEST DUP3 DUP2 GT ISZERO PUSH3 0x1AE JUMPI DUP3 MLOAD DUP3 SWAP1 PUSH1 0xFF AND SWAP1 SSTORE SWAP2 PUSH1 0x20 ADD SWAP2 SWAP1 PUSH1 0x1 ADD SWAP1 PUSH3 0x18C JUMP JUMPDEST JUMPDEST POP SWAP1 POP PUSH3 0x1BE SWAP2 SWAP1 PUSH3 0x222 JUMP JUMPDEST POP SWAP1 JUMP JUMPDEST DUP3 DUP1 SLOAD DUP3 DUP3 SSTORE SWAP1 PUSH1 0x0 MSTORE PUSH1 0x20 PUSH1 0x0 KECCAK256 SWAP1 DUP2 ADD SWAP3 DUP3 ISZERO PUSH3 0x20F JUMPI SWAP2 PUSH1 0x20 MUL DUP3 ADD JUMPDEST DUP3 DUP2 GT ISZERO PUSH3 0x20E JUMPI DUP3 MLOAD DUP3 SWAP1 DUP2 PUSH3 0x1FD SWAP2 SWAP1 PUSH3 0x529 JUMP JUMPDEST POP SWAP2 PUSH1 0x20 ADD SWAP2 SWAP1 PUSH1 0x1 ADD SWAP1 PUSH3 0x1E3 JUMP JUMPDEST JUMPDEST POP SWAP1 POP PUSH3 0x21E SWAP2 SWAP1 PUSH3 0x241 JUMP JUMPDEST POP SWAP1 JUMP JUMPDEST JUMPDEST DUP1 DUP3 GT ISZERO PUSH3 0x23D JUMPI PUSH1 0x0 DUP2 PUSH1 0x0 SWAP1 SSTORE POP PUSH1 0x1 ADD PUSH3 0x223 JUMP JUMPDEST POP SWAP1 JUMP JUMPDEST JUMPDEST DUP1 DUP3 GT ISZERO PUSH3 0x265 JUMPI PUSH1 0x0 DUP2 DUP2 PUSH3 0x25B SWAP2 SWAP1 PUSH3 0x269 JUMP JUMPDEST POP PUSH1 0x1 ADD PUSH3 0x242 JUMP JUMPDEST POP SWAP1 JUMP JUMPDEST POP DUP1 SLOAD PUSH3 0x277 SWAP1 PUSH3 0x318 JUMP JUMPDEST PUSH1 0x0 DUP3 SSTORE DUP1 PUSH1 0x1F LT PUSH3 0x28B JUMPI POP PUSH3 0x2AC JUMP JUMPDEST PUSH1 0x1F ADD PUSH1 0x20 SWAP1 DIV SWAP1 PUSH1 0x0 MSTORE PUSH1 0x20 PUSH1 0x0 KECCAK256 SWAP1 DUP2 ADD SWAP1 PUSH3 0x2AB SWAP2 SWAP1 PUSH3 0x222 JUMP JUMPDEST JUMPDEST POP JUMP JUMPDEST PUSH1 0x0 DUP2 MLOAD SWAP1 POP SWAP2 SWAP1 POP JUMP JUMPDEST PUSH32 0x4E487B7100000000000000000000000000000000000000000000000000000000 PUSH1 0x0 MSTORE PUSH1 0x41 PUSH1 0x4 MSTORE PUSH1 0x24 PUSH1 0x0 REVERT JUMPDEST PUSH32 0x4E487B7100000000000000000000000000000000000000000000000000000000 PUSH1 0x0 MSTORE PUSH1 0x22 PUSH1 0x4 MSTORE PUSH1 0x24 PUSH1 0x0 REVERT JUMPDEST PUSH1 0x0 PUSH1 0x2 DUP3 DIV SWAP1 POP PUSH1 0x1 DUP3 AND DUP1 PUSH3 0x331 JUMPI PUSH1 0x7F DUP3 AND SWAP2 POP JUMPDEST PUSH1 0x20 DUP3 LT DUP2 SUB PUSH3 0x347 JUMPI PUSH3 0x346 PUSH3 0x2E9 JUMP JUMPDEST JUMPDEST POP SWAP2 SWAP1 POP JUMP JUMPDEST PUSH1 0x0 DUP2 SWAP1 POP DUP2 PUSH1 0x0 MSTORE PUSH1 0x20 PUSH1 0x0 KECCAK256 SWAP1 POP SWAP2 SWAP1 POP JUMP JUMPDEST PUSH1 0x0 PUSH1 0x20 PUSH1 0x1F DUP4 ADD DIV SWAP1 POP SWAP2 SWAP1 POP JUMP JUMPDEST PUSH1 0x0 DUP3 DUP3 SHL SWAP1 POP SWAP3 SWAP2 POP POP JUMP JUMPDEST PUSH1 0x0 PUSH1 0x8 DUP4 MUL PUSH3 0x3B1 PUSH32 0xFFFFFFFFFFFFFFFFFFFFFFFFFFFFFFFFFFFFFFFFFFFFFFFFFFFFFFFFFFFFFFFF DUP3 PUSH3 0x372 JUMP JUMPDEST PUSH3 0x3BD DUP7 DUP4 PUSH3 0x372 JUMP JUMPDEST SWAP6 POP DUP1 NOT DUP5 AND SWAP4 POP DUP1 DUP7 AND DUP5 OR SWAP3 POP POP POP SWAP4 SWAP3 POP POP POP JUMP JUMPDEST PUSH1 0x0 DUP2 SWAP1 POP SWAP2 SWAP1 POP JUMP JUMPDEST PUSH1 0x0 DUP2 SWAP1 POP SWAP2 SWAP1 POP JUMP JUMPDEST PUSH1 0x0 PUSH3 0x40A PUSH3 0x404 PUSH3 0x3FE DUP5 PUSH3 0x3D5 JUMP JUMPDEST PUSH3 0x3DF JUMP JUMPDEST PUSH3 0x3D5 JUMP JUMPDEST SWAP1 POP SWAP2 SWAP1 POP JUMP JUMPDEST PUSH1 0x0 DUP2 SWAP1 POP SWAP2 SWAP1 POP JUMP JUMPDEST PUSH3 0x426 DUP4 PUSH3 0x3E9 JUMP JUMPDEST PUSH3 0x43E PUSH3 0x435 DUP3 PUSH3 0x411 JUMP JUMPDEST DUP5 DUP5 SLOAD PUSH3 0x37F JUMP JUMPDEST DUP3 SSTORE POP POP POP POP JUMP JUMPDEST PUSH1 0x0 SWAP1 JUMP JUMPDEST PUSH3 0x455 PUSH3 0x446 JUMP JUMPDEST PUSH3 0x462 DUP2 DUP5 DUP5 PUSH3 0x41B JUMP JUMPDEST POP POP POP JUMP JUMPDEST JUMPDEST DUP2 DUP2 LT ISZERO PUSH3 0x48A JUMPI PUSH3 0x47E PUSH1 0x0 DUP3 PUSH3 0x44B JUMP JUMPDEST PUSH1 0x1 DUP2 ADD SWAP1 POP PUSH3 0x468 JUMP JUMPDEST POP POP JUMP JUMPDEST PUSH1 0x1F DUP3 GT ISZERO PUSH3 0x4D9 JUMPI PUSH3 0x4A3 DUP2 PUSH3 0x34D JUMP JUMPDEST PUSH3 0x4AE DUP5 PUSH3 0x362 JUMP JUMPDEST DUP2 ADD PUSH1 0x20 DUP6 LT ISZERO PUSH3 0x4BE JUMPI DUP2 SWAP1 POP JUMPDEST PUSH3 0x4D6 PUSH3 0x4CD DUP6 PUSH3 0x362 JUMP JUMPDEST DUP4 ADD DUP3 PUSH3 0x467 JUMP JUMPDEST POP POP JUMPDEST POP POP POP JUMP JUMPDEST PUSH1 0x0 DUP3 DUP3 SHR SWAP1 POP SWAP3 SWAP2 POP POP JUMP JUMPDEST PUSH1 0x0 PUSH3 0x4FE PUSH1 0x0 NOT DUP5 PUSH1 0x8 MUL PUSH3 0x4DE JUMP JUMPDEST NOT DUP1 DUP4 AND SWAP2 POP POP SWAP3 SWAP2 POP POP JUMP JUMPDEST PUSH1 0x0 PUSH3 0x519 DUP4 DUP4 PUSH3 0x4EB JUMP JUMPDEST SWAP2 POP DUP3 PUSH1 0x2 MUL DUP3 OR SWAP1 POP SWAP3 SWAP2 POP POP JUMP JUMPDEST PUSH3 0x534 DUP3 PUSH3 0x2AF JUMP JUMPDEST PUSH8 0xFFFFFFFFFFFFFFFF DUP2 GT ISZERO PUSH3 0x550 JUMPI PUSH3 0x54F PUSH3 0x2BA JUMP JUMPDEST JUMPDEST PUSH3 0x55C DUP3 SLOAD PUSH3 0x318 JUMP JUMPDEST PUSH3 0x569 DUP3 DUP3 DUP6 PUSH3 0x48E JUMP JUMPDEST PUSH1 0x0 PUSH1 0x20 SWAP1 POP PUSH1 0x1F DUP4 GT PUSH1 0x1 DUP2 EQ PUSH3 0x5A1 JUMPI PUSH1 0x0 DUP5 ISZERO PUSH3 0x58C JUMPI DUP3 DUP8 ADD MLOAD SWAP1 POP JUMPDEST PUSH3 0x598 DUP6 DUP3 PUSH3 0x50B JUMP JUMPDEST DUP7 SSTORE POP PUSH3 0x608 JUMP JUMPDEST PUSH1 0x1F NOT DUP5 AND PUSH3 0x5B1 DUP7 PUSH3 0x34D JUMP JUMPDEST PUSH1 0x0 JUMPDEST DUP3 DUP2 LT ISZERO PUSH3 0x5DB JUMPI DUP5 DUP10 ADD MLOAD DUP3 SSTORE PUSH1 0x1 DUP3 ADD SWAP2 POP PUSH1 0x20 DUP6 ADD SWAP5 POP PUSH1 0x20 DUP2 ADD SWAP1 POP PUSH3 0x5B4 JUMP JUMPDEST DUP7 DUP4 LT ISZERO PUSH3 0x5FB JUMPI DUP5 DUP10 ADD MLOAD PUSH3 0x5F7 PUSH1 0x1F DUP10 AND DUP3 PUSH3 0x4EB JUMP JUMPDEST DUP4 SSTORE POP JUMPDEST PUSH1 0x1 PUSH1 0x2 DUP9 MUL ADD DUP9 SSTORE POP POP POP JUMPDEST POP POP POP POP POP POP JUMP JUMPDEST PUSH2 0xC8B DUP1 PUSH3 0x620 PUSH1 0x0 CODECOPY PUSH1 0x0 RETURN INVALID PUSH1 0x80 PUSH1 0x40 MSTORE CALLVALUE DUP1 ISZERO PUSH2 0x10 JUMPI PUSH1 0x0 DUP1 REVERT JUMPDEST POP PUSH1 0x4 CALLDATASIZE LT PUSH2 0x92 JUMPI PUSH1 0x0 CALLDATALOAD PUSH1 0xE0 SHR DUP1 PUSH4 0x89F915F6 GT PUSH2 0x66 JUMPI DUP1 PUSH4 0x89F915F6 EQ PUSH2 0x10D JUMPI DUP1 PUSH4 0xA4ECE52C EQ PUSH2 0x12B JUMPI DUP1 PUSH4 0xA69343D9 EQ PUSH2 0x135 JUMPI DUP1 PUSH4 0xD39FA233 EQ PUSH2 0x153 JUMPI DUP1 PUSH4 0xF63791B0 EQ PUSH2 0x183 JUMPI PUSH2 0x92 JUMP JUMPDEST DUP1 PUSH3 0xAD800C EQ PUSH2 0x97 JUMPI DUP1 PUSH4 0x5917F07 EQ PUSH2 0xC7 JUMPI DUP1 PUSH4 0x17D7DE7C EQ PUSH2 0xE5 JUMPI DUP1 PUSH4 0x8035F0CE EQ PUSH2 0x103 JUMPI JUMPDEST PUSH1 0x0 DUP1 REVERT JUMPDEST PUSH2 0xB1 PUSH1 0x4 DUP1 CALLDATASIZE SUB DUP2 ADD SWAP1 PUSH2 0xAC SWAP2 SWAP1 PUSH2 0x5ED JUMP JUMPDEST PUSH2 0x1B3 JUMP JUMPDEST PUSH1 0x40 MLOAD PUSH2 0xBE SWAP2 SWAP1 PUSH2 0x6AA JUMP JUMPDEST PUSH1 0x40 MLOAD DUP1 SWAP2 SUB SWAP1 RETURN JUMPDEST PUSH2 0xCF PUSH2 0x25F JUMP JUMPDEST PUSH1 0x40 MLOAD PUSH2 0xDC SWAP2 SWAP1 PUSH2 0x6DB JUMP JUMPDEST PUSH1 0x40 MLOAD DUP1 SWAP2 SUB SWAP1 RETURN JUMPDEST PUSH2 0xED PUSH2 0x26C JUMP JUMPDEST PUSH1 0x40 MLOAD PUSH2 0xFA SWAP2 SWAP1 PUSH2 0x802 JUMP JUMPDEST PUSH1 0x40 MLOAD DUP1 SWAP2 SUB SWAP1 RETURN JUMPDEST PUSH2 0x10B PUSH2 0x345 JUMP JUMPDEST STOP JUMPDEST PUSH2 0x115 PUSH2 0x415 JUMP JUMPDEST PUSH1 0x40 MLOAD PUSH2 0x122 SWAP2 SWAP1 PUSH2 0x8CF JUMP JUMPDEST PUSH1 0x40 MLOAD DUP1 SWAP2 SUB SWAP1 RETURN JUMPDEST PUSH2 0x133 PUSH2 0x460 JUMP JUMPDEST STOP JUMPDEST PUSH2 0x13D PUSH2 0x492 JUMP JUMPDEST PUSH1 0x40 MLOAD PUSH2 0x14A SWAP2 SWAP1 PUSH2 0x8CF JUMP JUMPDEST PUSH1 0x40 MLOAD DUP1 SWAP2 SUB SWAP1 RETURN JUMPDEST PUSH2 0x16D PUSH1 0x4 DUP1 CALLDATASIZE SUB DUP2 ADD SWAP1 PUSH2 0x168 SWAP2 SWAP1 PUSH2 0x5ED JUMP JUMPDEST PUSH2 0x4FA JUMP JUMPDEST PUSH1 0x40 MLOAD PUSH2 0x17A SWAP2 SWAP1 PUSH2 0x6DB JUMP JUMPDEST PUSH1 0x40 MLOAD DUP1 SWAP2 SUB SWAP1 RETURN JUMPDEST PUSH2 0x19D PUSH1 0x4 DUP1 CALLDATASIZE SUB DUP2 ADD SWAP1 PUSH2 0x198 SWAP2 SWAP1 PUSH2 0x5ED JUMP JUMPDEST PUSH2 0x515 JUMP JUMPDEST PUSH1 0x40 MLOAD PUSH2 0x1AA SWAP2 SWAP1 PUSH2 0x6DB JUMP JUMPDEST PUSH1 0x40 MLOAD DUP1 SWAP2 SUB SWAP1 RETURN JUMPDEST PUSH1 0x6 DUP2 DUP2 SLOAD DUP2 LT PUSH2 0x1C3 JUMPI PUSH1 0x0 DUP1 REVERT JUMPDEST SWAP1 PUSH1 0x0 MSTORE PUSH1 0x20 PUSH1 0x0 KECCAK256 ADD PUSH1 0x0 SWAP2 POP SWAP1 POP DUP1 SLOAD PUSH2 0x1DE SWAP1 PUSH2 0x919 JUMP JUMPDEST DUP1 PUSH1 0x1F ADD PUSH1 0x20 DUP1 SWAP2 DIV MUL PUSH1 0x20 ADD PUSH1 0x40 MLOAD SWAP1 DUP2 ADD PUSH1 0x40 MSTORE DUP1 SWAP3 SWAP2 SWAP1 DUP2 DUP2 MSTORE PUSH1 0x20 ADD DUP3 DUP1 SLOAD PUSH2 0x20A SWAP1 PUSH2 0x919 JUMP JUMPDEST DUP1 ISZERO PUSH2 0x257 JUMPI DUP1 PUSH1 0x1F LT PUSH2 0x22C JUMPI PUSH2 0x100 DUP1 DUP4 SLOAD DIV MUL DUP4 MSTORE SWAP2 PUSH1 0x20 ADD SWAP2 PUSH2 0x257 JUMP JUMPDEST DUP3 ADD SWAP2 SWAP1 PUSH1 0x0 MSTORE PUSH1 0x20 PUSH1 0x0 KECCAK256 SWAP1 JUMPDEST DUP2 SLOAD DUP2 MSTORE SWAP1 PUSH1 0x1 ADD SWAP1 PUSH1 0x20 ADD DUP1 DUP4 GT PUSH2 0x23A JUMPI DUP3 SWAP1 SUB PUSH1 0x1F AND DUP3 ADD SWAP2 JUMPDEST POP POP POP POP POP DUP2 JUMP JUMPDEST PUSH1 0x0 PUSH1 0x6 DUP1 SLOAD SWAP1 POP SWAP1 POP SWAP1 JUMP JUMPDEST PUSH1 0x60 PUSH1 0x6 DUP1 SLOAD DUP1 PUSH1 0x20 MUL PUSH1 0x20 ADD PUSH1 0x40 MLOAD SWAP1 DUP2 ADD PUSH1 0x40 MSTORE DUP1 SWAP3 SWAP2 SWAP1 DUP2 DUP2 MSTORE PUSH1 0x20 ADD PUSH1 0x0 SWAP1 JUMPDEST DUP3 DUP3 LT ISZERO PUSH2 0x33C JUMPI DUP4 DUP3 SWAP1 PUSH1 0x0 MSTORE PUSH1 0x20 PUSH1 0x0 KECCAK256 ADD DUP1 SLOAD PUSH2 0x2AF SWAP1 PUSH2 0x919 JUMP JUMPDEST DUP1 PUSH1 0x1F ADD PUSH1 0x20 DUP1 SWAP2 DIV MUL PUSH1 0x20 ADD PUSH1 0x40 MLOAD SWAP1 DUP2 ADD PUSH1 0x40 MSTORE DUP1 SWAP3 SWAP2 SWAP1 DUP2 DUP2 MSTORE PUSH1 0x20 ADD DUP3 DUP1 SLOAD PUSH2 0x2DB SWAP1 PUSH2 0x919 JUMP JUMPDEST DUP1 ISZERO PUSH2 0x328 JUMPI DUP1 PUSH1 0x1F LT PUSH2 0x2FD JUMPI PUSH2 0x100 DUP1 DUP4 SLOAD DIV MUL DUP4 MSTORE SWAP2 PUSH1 0x20 ADD SWAP2 PUSH2 0x328 JUMP JUMPDEST DUP3 ADD SWAP2 SWAP1 PUSH1 0x0 MSTORE PUSH1 0x20 PUSH1 0x0 KECCAK256 SWAP1 JUMPDEST DUP2 SLOAD DUP2 MSTORE SWAP1 PUSH1 0x1 ADD SWAP1 PUSH1 0x20 ADD DUP1 DUP4 GT PUSH2 0x30B JUMPI DUP3 SWAP1 SUB PUSH1 0x1F AND DUP3 ADD SWAP2 JUMPDEST POP POP POP POP POP DUP2 MSTORE PUSH1 0x20 ADD SWAP1 PUSH1 0x1 ADD SWAP1 PUSH2 0x290 JUMP JUMPDEST POP POP POP POP SWAP1 POP SWAP1 JUMP JUMPDEST PUSH1 0x6 DUP1 PUSH1 0x1 DUP2 SLOAD ADD DUP1 DUP3 SSTORE DUP1 SWAP2 POP POP PUSH1 0x1 SWAP1 SUB SWAP1 PUSH1 0x0 MSTORE PUSH1 0x20 PUSH1 0x0 KECCAK256 ADD PUSH1 0x0 PUSH1 0x40 MLOAD DUP1 PUSH1 0x40 ADD PUSH1 0x40 MSTORE DUP1 PUSH1 0x5 DUP2 MSTORE PUSH1 0x20 ADD PUSH32 0x53756E6E79000000000000000000000000000000000000000000000000000000 DUP2 MSTORE POP SWAP1 SWAP2 SWAP1 SWAP2 POP SWAP1 DUP2 PUSH2 0x3AB SWAP2 SWAP1 PUSH2 0xB25 JUMP JUMPDEST POP PUSH1 0x6 DUP1 PUSH1 0x1 DUP2 SLOAD ADD DUP1 DUP3 SSTORE DUP1 SWAP2 POP POP PUSH1 0x1 SWAP1 SUB SWAP1 PUSH1 0x0 MSTORE PUSH1 0x20 PUSH1 0x0 KECCAK256 ADD PUSH1 0x0 PUSH1 0x40 MLOAD DUP1 PUSH1 0x40 ADD PUSH1 0x40 MSTORE DUP1 PUSH1 0x6 DUP2 MSTORE PUSH1 0x20 ADD PUSH32 0x536F757261760000000000000000000000000000000000000000000000000000 DUP2 MSTORE POP SWAP1 SWAP2 SWAP1 SWAP2 POP SWAP1 DUP2 PUSH2 0x412 SWAP2 SWAP1 PUSH2 0xB25 JUMP JUMPDEST POP JUMP JUMPDEST PUSH2 0x41D PUSH2 0x533 JUMP JUMPDEST PUSH1 0x0 PUSH1 0x6 DUP1 PUSH1 0x20 MUL PUSH1 0x40 MLOAD SWAP1 DUP2 ADD PUSH1 0x40 MSTORE DUP1 SWAP3 SWAP2 SWAP1 DUP3 PUSH1 0x6 DUP1 ISZERO PUSH2 0x456 JUMPI PUSH1 0x20 MUL DUP3 ADD SWAP2 JUMPDEST DUP2 SLOAD DUP2 MSTORE PUSH1 0x20 ADD SWAP1 PUSH1 0x1 ADD SWAP1 DUP1 DUP4 GT PUSH2 0x442 JUMPI JUMPDEST POP POP POP POP POP SWAP1 POP SWAP1 JUMP JUMPDEST PUSH1 0x6 DUP1 SLOAD DUP1 PUSH2 0x472 JUMPI PUSH2 0x471 PUSH2 0xBF7 JUMP JUMPDEST JUMPDEST PUSH1 0x1 SWAP1 SUB DUP2 DUP2 SWAP1 PUSH1 0x0 MSTORE PUSH1 0x20 PUSH1 0x0 KECCAK256 ADD PUSH1 0x0 PUSH2 0x48E SWAP2 SWAP1 PUSH2 0x555 JUMP JUMPDEST SWAP1 SSTORE JUMP JUMPDEST PUSH2 0x49A PUSH2 0x533 JUMP JUMPDEST PUSH2 0x28A PUSH1 0x0 PUSH1 0x2 PUSH1 0x6 DUP2 LT PUSH2 0x4B2 JUMPI PUSH2 0x4B1 PUSH2 0xC26 JUMP JUMPDEST JUMPDEST ADD DUP2 SWAP1 SSTORE POP PUSH1 0x0 PUSH1 0x6 DUP1 PUSH1 0x20 MUL PUSH1 0x40 MLOAD SWAP1 DUP2 ADD PUSH1 0x40 MSTORE DUP1 SWAP3 SWAP2 SWAP1 DUP3 PUSH1 0x6 DUP1 ISZERO PUSH2 0x4F0 JUMPI PUSH1 0x20 MUL DUP3 ADD SWAP2 JUMPDEST DUP2 SLOAD DUP2 MSTORE PUSH1 0x20 ADD SWAP1 PUSH1 0x1 ADD SWAP1 DUP1 DUP4 GT PUSH2 0x4DC JUMPI JUMPDEST POP POP POP POP POP SWAP1 POP SWAP1 JUMP JUMPDEST PUSH1 0x0 DUP2 PUSH1 0x6 DUP2 LT PUSH2 0x50A JUMPI PUSH1 0x0 DUP1 REVERT JUMPDEST ADD PUSH1 0x0 SWAP2 POP SWAP1 POP SLOAD DUP2 JUMP JUMPDEST PUSH1 0x0 DUP1 DUP3 PUSH1 0x6 DUP2 LT PUSH2 0x52A JUMPI PUSH2 0x529 PUSH2 0xC26 JUMP JUMPDEST JUMPDEST ADD SLOAD SWAP1 POP SWAP2 SWAP1 POP JUMP JUMPDEST PUSH1 0x40 MLOAD DUP1 PUSH1 0xC0 ADD PUSH1 0x40 MSTORE DUP1 PUSH1 0x6 SWAP1 PUSH1 0x20 DUP3 MUL DUP1 CALLDATASIZE DUP4 CALLDATACOPY DUP1 DUP3 ADD SWAP2 POP POP SWAP1 POP POP SWAP1 JUMP JUMPDEST POP DUP1 SLOAD PUSH2 0x561 SWAP1 PUSH2 0x919 JUMP JUMPDEST PUSH1 0x0 DUP3 SSTORE DUP1 PUSH1 0x1F LT PUSH2 0x573 JUMPI POP PUSH2 0x592 JUMP JUMPDEST PUSH1 0x1F ADD PUSH1 0x20 SWAP1 DIV SWAP1 PUSH1 0x0 MSTORE PUSH1 0x20 PUSH1 0x0 KECCAK256 SWAP1 DUP2 ADD SWAP1 PUSH2 0x591 SWAP2 SWAP1 PUSH2 0x595 JUMP JUMPDEST JUMPDEST POP JUMP JUMPDEST JUMPDEST DUP1 DUP3 GT ISZERO PUSH2 0x5AE JUMPI PUSH1 0x0 DUP2 PUSH1 0x0 SWAP1 SSTORE POP PUSH1 0x1 ADD PUSH2 0x596 JUMP JUMPDEST POP SWAP1 JUMP JUMPDEST PUSH1 0x0 DUP1 REVERT JUMPDEST PUSH1 0x0 DUP2 SWAP1 POP SWAP2 SWAP1 POP JUMP JUMPDEST PUSH2 0x5CA DUP2 PUSH2 0x5B7 JUMP JUMPDEST DUP2 EQ PUSH2 0x5D5 JUMPI PUSH1 0x0 DUP1 REVERT JUMPDEST POP JUMP JUMPDEST PUSH1 0x0 DUP2 CALLDATALOAD SWAP1 POP PUSH2 0x5E7 DUP2 PUSH2 0x5C1 JUMP JUMPDEST SWAP3 SWAP2 POP POP JUMP JUMPDEST PUSH1 0x0 PUSH1 0x20 DUP3 DUP5 SUB SLT ISZERO PUSH2 0x603 JUMPI PUSH2 0x602 PUSH2 0x5B2 JUMP JUMPDEST JUMPDEST PUSH1 0x0 PUSH2 0x611 DUP5 DUP3 DUP6 ADD PUSH2 0x5D8 JUMP JUMPDEST SWAP2 POP POP SWAP3 SWAP2 POP POP JUMP JUMPDEST PUSH1 0x0 DUP2 MLOAD SWAP1 POP SWAP2 SWAP1 POP JUMP JUMPDEST PUSH1 0x0 DUP3 DUP3 MSTORE PUSH1 0x20 DUP3 ADD SWAP1 POP SWAP3 SWAP2 POP POP JUMP JUMPDEST PUSH1 0x0 JUMPDEST DUP4 DUP2 LT ISZERO PUSH2 0x654 JUMPI DUP1 DUP3 ADD MLOAD DUP2 DUP5 ADD MSTORE PUSH1 0x20 DUP2 ADD SWAP1 POP PUSH2 0x639 JUMP JUMPDEST PUSH1 0x0 DUP5 DUP5 ADD MSTORE POP POP POP POP JUMP JUMPDEST PUSH1 0x0 PUSH1 0x1F NOT PUSH1 0x1F DUP4 ADD AND SWAP1 POP SWAP2 SWAP1 POP JUMP JUMPDEST PUSH1 0x0 PUSH2 0x67C DUP3 PUSH2 0x61A JUMP JUMPDEST PUSH2 0x686 DUP2 DUP6 PUSH2 0x625 JUMP JUMPDEST SWAP4 POP PUSH2 0x696 DUP2 DUP6 PUSH1 0x20 DUP7 ADD PUSH2 0x636 JUMP JUMPDEST PUSH2 0x69F DUP2 PUSH2 0x660 JUMP JUMPDEST DUP5 ADD SWAP2 POP POP SWAP3 SWAP2 POP POP JUMP JUMPDEST PUSH1 0x0 PUSH1 0x20 DUP3 ADD SWAP1 POP DUP2 DUP2 SUB PUSH1 0x0 DUP4 ADD MSTORE PUSH2 0x6C4 DUP2 DUP5 PUSH2 0x671 JUMP JUMPDEST SWAP1 POP SWAP3 SWAP2 POP POP JUMP JUMPDEST PUSH2 0x6D5 DUP2 PUSH2 0x5B7 JUMP JUMPDEST DUP3 MSTORE POP POP JUMP JUMPDEST PUSH1 0x0 PUSH1 0x20 DUP3 ADD SWAP1 POP PUSH2 0x6F0 PUSH1 0x0 DUP4 ADD DUP5 PUSH2 0x6CC JUMP JUMPDEST SWAP3 SWAP2 POP POP JUMP JUMPDEST PUSH1 0x0 DUP2 MLOAD SWAP1 POP SWAP2 SWAP1 POP JUMP JUMPDEST PUSH1 0x0 DUP3 DUP3 MSTORE PUSH1 0x20 DUP3 ADD SWAP1 POP SWAP3 SWAP2 POP POP JUMP JUMPDEST PUSH1 0x0 DUP2 SWAP1 POP PUSH1 0x20 DUP3 ADD SWAP1 POP SWAP2 SWAP1 POP JUMP JUMPDEST PUSH1 0x0 DUP3 DUP3 MSTORE PUSH1 0x20 DUP3 ADD SWAP1 POP SWAP3 SWAP2 POP POP JUMP JUMPDEST PUSH1 0x0 PUSH2 0x73E DUP3 PUSH2 0x61A JUMP JUMPDEST PUSH2 0x748 DUP2 DUP6 PUSH2 0x722 JUMP JUMPDEST SWAP4 POP PUSH2 0x758 DUP2 DUP6 PUSH1 0x20 DUP7 ADD PUSH2 0x636 JUMP JUMPDEST PUSH2 0x761 DUP2 PUSH2 0x660 JUMP JUMPDEST DUP5 ADD SWAP2 POP POP SWAP3 SWAP2 POP POP JUMP JUMPDEST PUSH1 0x0 PUSH2 0x778 DUP4 DUP4 PUSH2 0x733 JUMP JUMPDEST SWAP1 POP SWAP3 SWAP2 POP POP JUMP JUMPDEST PUSH1 0x0 PUSH1 0x20 DUP3 ADD SWAP1 POP SWAP2 SWAP1 POP JUMP JUMPDEST PUSH1 0x0 PUSH2 0x798 DUP3 PUSH2 0x6F6 JUMP JUMPDEST PUSH2 0x7A2 DUP2 DUP6 PUSH2 0x701 JUMP JUMPDEST SWAP4 POP DUP4 PUSH1 0x20 DUP3 MUL DUP6 ADD PUSH2 0x7B4 DUP6 PUSH2 0x712 JUMP JUMPDEST DUP1 PUSH1 0x0 JUMPDEST DUP6 DUP2 LT ISZERO PUSH2 0x7F0 JUMPI DUP5 DUP5 SUB DUP10 MSTORE DUP2 MLOAD PUSH2 0x7D1 DUP6 DUP3 PUSH2 0x76C JUMP JUMPDEST SWAP5 POP PUSH2 0x7DC DUP4 PUSH2 0x780 JUMP JUMPDEST SWAP3 POP PUSH1 0x20 DUP11 ADD SWAP10 POP POP PUSH1 0x1 DUP2 ADD SWAP1 POP PUSH2 0x7B8 JUMP JUMPDEST POP DUP3 SWAP8 POP DUP8 SWAP6 POP POP POP POP POP POP SWAP3 SWAP2 POP POP JUMP JUMPDEST PUSH1 0x0 PUSH1 0x20 DUP3 ADD SWAP1 POP DUP2 DUP2 SUB PUSH1 0x0 DUP4 ADD MSTORE PUSH2 0x81C DUP2 DUP5 PUSH2 0x78D JUMP JUMPDEST SWAP1 POP SWAP3 SWAP2 POP POP JUMP JUMPDEST PUSH1 0x0 PUSH1 0x6 SWAP1 POP SWAP2 SWAP1 POP JUMP JUMPDEST PUSH1 0x0 DUP2 SWAP1 POP SWAP3 SWAP2 POP POP JUMP JUMPDEST PUSH1 0x0 DUP2 SWAP1 POP SWAP2 SWAP1 POP JUMP JUMPDEST PUSH2 0x84D DUP2 PUSH2 0x5B7 JUMP JUMPDEST DUP3 MSTORE POP POP JUMP JUMPDEST PUSH1 0x0 PUSH2 0x85F DUP4 DUP4 PUSH2 0x844 JUMP JUMPDEST PUSH1 0x20 DUP4 ADD SWAP1 POP SWAP3 SWAP2 POP POP JUMP JUMPDEST PUSH1 0x0 PUSH1 0x20 DUP3 ADD SWAP1 POP SWAP2 SWAP1 POP JUMP JUMPDEST PUSH2 0x881 DUP2 PUSH2 0x824 JUMP JUMPDEST PUSH2 0x88B DUP2 DUP5 PUSH2 0x82F JUMP JUMPDEST SWAP3 POP PUSH2 0x896 DUP3 PUSH2 0x83A JUMP JUMPDEST DUP1 PUSH1 0x0 JUMPDEST DUP4 DUP2 LT ISZERO PUSH2 0x8C7 JUMPI DUP2 MLOAD PUSH2 0x8AE DUP8 DUP3 PUSH2 0x853 JUMP JUMPDEST SWAP7 POP PUSH2 0x8B9 DUP4 PUSH2 0x86B JUMP JUMPDEST SWAP3 POP POP PUSH1 0x1 DUP2 ADD SWAP1 POP PUSH2 0x89A JUMP JUMPDEST POP POP POP POP POP POP JUMP JUMPDEST PUSH1 0x0 PUSH1 0xC0 DUP3 ADD SWAP1 POP PUSH2 0x8E4 PUSH1 0x0 DUP4 ADD DUP5 PUSH2 0x878 JUMP JUMPDEST SWAP3 SWAP2 POP POP JUMP JUMPDEST PUSH32 0x4E487B7100000000000000000000000000000000000000000000000000000000 PUSH1 0x0 MSTORE PUSH1 0x22 PUSH1 0x4 MSTORE PUSH1 0x24 PUSH1 0x0 REVERT JUMPDEST PUSH1 0x0 PUSH1 0x2 DUP3 DIV SWAP1 POP PUSH1 0x1 DUP3 AND DUP1 PUSH2 0x931 JUMPI PUSH1 0x7F DUP3 AND SWAP2 POP JUMPDEST PUSH1 0x20 DUP3 LT DUP2 SUB PUSH2 0x944 JUMPI PUSH2 0x943 PUSH2 0x8EA JUMP JUMPDEST JUMPDEST POP SWAP2 SWAP1 POP JUMP JUMPDEST PUSH32 0x4E487B7100000000000000000000000000000000000000000000000000000000 PUSH1 0x0 MSTORE PUSH1 0x41 PUSH1 0x4 MSTORE PUSH1 0x24 PUSH1 0x0 REVERT JUMPDEST PUSH1 0x0 DUP2 SWAP1 POP DUP2 PUSH1 0x0 MSTORE PUSH1 0x20 PUSH1 0x0 KECCAK256 SWAP1 POP SWAP2 SWAP1 POP JUMP JUMPDEST PUSH1 0x0 PUSH1 0x20 PUSH1 0x1F DUP4 ADD DIV SWAP1 POP SWAP2 SWAP1 POP JUMP JUMPDEST PUSH1 0x0 DUP3 DUP3 SHL SWAP1 POP SWAP3 SWAP2 POP POP JUMP JUMPDEST PUSH1 0x0 PUSH1 0x8 DUP4 MUL PUSH2 0x9DB PUSH32 0xFFFFFFFFFFFFFFFFFFFFFFFFFFFFFFFFFFFFFFFFFFFFFFFFFFFFFFFFFFFFFFFF DUP3 PUSH2 0x99E JUMP JUMPDEST PUSH2 0x9E5 DUP7 DUP4 PUSH2 0x99E JUMP JUMPDEST SWAP6 POP DUP1 NOT DUP5 AND SWAP4 POP DUP1 DUP7 AND DUP5 OR SWAP3 POP POP POP SWAP4 SWAP3 POP POP POP JUMP JUMPDEST PUSH1 0x0 DUP2 SWAP1 POP SWAP2 SWAP1 POP JUMP JUMPDEST PUSH1 0x0 PUSH2 0xA22 PUSH2 0xA1D PUSH2 0xA18 DUP5 PUSH2 0x5B7 JUMP JUMPDEST PUSH2 0x9FD JUMP JUMPDEST PUSH2 0x5B7 JUMP JUMPDEST SWAP1 POP SWAP2 SWAP1 POP JUMP JUMPDEST PUSH1 0x0 DUP2 SWAP1 POP SWAP2 SWAP1 POP JUMP JUMPDEST PUSH2 0xA3C DUP4 PUSH2 0xA07 JUMP JUMPDEST PUSH2 0xA50 PUSH2 0xA48 DUP3 PUSH2 0xA29 JUMP JUMPDEST DUP5 DUP5 SLOAD PUSH2 0x9AB JUMP JUMPDEST DUP3 SSTORE POP POP POP POP JUMP JUMPDEST PUSH1 0x0 SWAP1 JUMP JUMPDEST PUSH2 0xA65 PUSH2 0xA58 JUMP JUMPDEST PUSH2 0xA70 DUP2 DUP5 DUP5 PUSH2 0xA33 JUMP JUMPDEST POP POP POP JUMP JUMPDEST JUMPDEST DUP2 DUP2 LT ISZERO PUSH2 0xA94 JUMPI PUSH2 0xA89 PUSH1 0x0 DUP3 PUSH2 0xA5D JUMP JUMPDEST PUSH1 0x1 DUP2 ADD SWAP1 POP PUSH2 0xA76 JUMP JUMPDEST POP POP JUMP JUMPDEST PUSH1 0x1F DUP3 GT ISZERO PUSH2 0xAD9 JUMPI PUSH2 0xAAA DUP2 PUSH2 0x979 JUMP JUMPDEST PUSH2 0xAB3 DUP5 PUSH2 0x98E JUMP JUMPDEST DUP2 ADD PUSH1 0x20 DUP6 LT ISZERO PUSH2 0xAC2 JUMPI DUP2 SWAP1 POP JUMPDEST PUSH2 0xAD6 PUSH2 0xACE DUP6 PUSH2 0x98E JUMP JUMPDEST DUP4 ADD DUP3 PUSH2 0xA75 JUMP JUMPDEST POP POP JUMPDEST POP POP POP JUMP JUMPDEST PUSH1 0x0 DUP3 DUP3 SHR SWAP1 POP SWAP3 SWAP2 POP POP JUMP JUMPDEST PUSH1 0x0 PUSH2 0xAFC PUSH1 0x0 NOT DUP5 PUSH1 0x8 MUL PUSH2 0xADE JUMP JUMPDEST NOT DUP1 DUP4 AND SWAP2 POP POP SWAP3 SWAP2 POP POP JUMP JUMPDEST PUSH1 0x0 PUSH2 0xB15 DUP4 DUP4 PUSH2 0xAEB JUMP JUMPDEST SWAP2 POP DUP3 PUSH1 0x2 MUL DUP3 OR SWAP1 POP SWAP3 SWAP2 POP POP JUMP JUMPDEST PUSH2 0xB2E DUP3 PUSH2 0x61A JUMP JUMPDEST PUSH8 0xFFFFFFFFFFFFFFFF DUP2 GT ISZERO PUSH2 0xB47 JUMPI PUSH2 0xB46 PUSH2 0x94A JUMP JUMPDEST JUMPDEST PUSH2 0xB51 DUP3 SLOAD PUSH2 0x919 JUMP JUMPDEST PUSH2 0xB5C DUP3 DUP3 DUP6 PUSH2 0xA98 JUMP JUMPDEST PUSH1 0x0 PUSH1 0x20 SWAP1 POP PUSH1 0x1F DUP4 GT PUSH1 0x1 DUP2 EQ PUSH2 0xB8F JUMPI PUSH1 0x0 DUP5 ISZERO PUSH2 0xB7D JUMPI DUP3 DUP8 ADD MLOAD SWAP1 POP JUMPDEST PUSH2 0xB87 DUP6 DUP3 PUSH2 0xB09 JUMP JUMPDEST DUP7 SSTORE POP PUSH2 0xBEF JUMP JUMPDEST PUSH1 0x1F NOT DUP5 AND PUSH2 0xB9D DUP7 PUSH2 0x979 JUMP JUMPDEST PUSH1 0x0 JUMPDEST DUP3 DUP2 LT ISZERO PUSH2 0xBC5 JUMPI DUP5 DUP10 ADD MLOAD DUP3 SSTORE PUSH1 0x1 DUP3 ADD SWAP2 POP PUSH1 0x20 DUP6 ADD SWAP5 POP PUSH1 0x20 DUP2 ADD SWAP1 POP PUSH2 0xBA0 JUMP JUMPDEST DUP7 DUP4 LT ISZERO PUSH2 0xBE2 JUMPI DUP5 DUP10 ADD MLOAD PUSH2 0xBDE PUSH1 0x1F DUP10 AND DUP3 PUSH2 0xAEB JUMP JUMPDEST DUP4 SSTORE POP JUMPDEST PUSH1 0x1 PUSH1 0x2 DUP9 MUL ADD DUP9 SSTORE POP POP POP JUMPDEST POP POP POP POP POP POP JUMP JUMPDEST PUSH32 0x4E487B7100000000000000000000000000000000000000000000000000000000 PUSH1 0x0 MSTORE PUSH1 0x31 PUSH1 0x4 MSTORE PUSH1 0x24 PUSH1 0x0 REVERT JUMPDEST PUSH32 0x4E487B7100000000000000000000000000000000000000000000000000000000 PUSH1 0x0 MSTORE PUSH1 0x32 PUSH1 0x4 MSTORE PUSH1 0x24 PUSH1 0x0 REVERT INVALID LOG2 PUSH5 0x6970667358 0x22 SLT KECCAK256 EXTCODESIZE LOG2 EXP 0xF7 PUSH25 0x12B1CF575E5F5FA3733621C6D10268EAF0D7AE44468E2B3CB0 DUP1 COINBASE PUSH5 0x736F6C6343 STOP ADDMOD SLT STOP CALLER "
				},
				"gasEstimates": {
					"creation": {
						"codeDepositCost": "642200",
						"executionCost": "infinite",
						"totalCost": "infinite"
					},
					"external": {
						"changeValueAtIndex2()": "infinite",
						"getLengthOfArray()": "2468",
						"getName()": "infinite",
						"getNumbers()": "infinite",
						"getValueAtIndex(uint256)": "infinite",
						"name(uint256)": "infinite",
						"numbers(uint256)": "infinite",
						"pop()": "infinite",
						"push()": "infinite"
					}
				},
				"methodIdentifiers": {
					"changeValueAtIndex2()": "a69343d9",
					"getLengthOfArray()": "05917f07",
					"getName()": "17d7de7c",
					"getNumbers()": "89f915f6",
					"getValueAtIndex(uint256)": "f63791b0",
					"name(uint256)": "00ad800c",
					"numbers(uint256)": "d39fa233",
					"pop()": "a4ece52c",
					"push()": "8035f0ce"
				}
			},
			"storageLayout": {
				"storage": [
					{
						"astId": 12,
						"contract": "array.sol:Array",
						"label": "numbers",
						"offset": 0,
						"slot": "0",
						"type": "t_array(t_uint256)6_storage"
					},
					{
						"astId": 20,
						"contract": "array.sol:Array",
						"label": "name",
						"offset": 0,
						"slot": "6",
						"type": "t_array(t_string_storage)dyn_storage"
					}
				],
				"types": {
					"t_array(t_string_storage)dyn_storage": {
						"base": "t_string_storage",
						"encoding": "dynamic_array",
						"label": "string[]",
						"numberOfBytes": "32"
					},
					"t_array(t_uint256)6_storage": {
						"base": "t_uint256",
						"encoding": "inplace",
						"label": "uint256[6]",
						"numberOfBytes": "192"
					},
					"t_string_storage": {
						"encoding": "bytes",
						"label": "string",
						"numberOfBytes": "32"
					},
					"t_uint256": {
						"encoding": "inplace",
						"label": "uint256",
						"numberOfBytes": "32"
					}
				}
			},
			"userdoc": {
				"kind": "user",
				"methods": {},
				"version": 1
			}
		}
	}
}