{
	"variable_scopes.sol": {
		"ExternalContract": {
			"abi": [
				{
					"inputs": [],
					"name": "doSomething",
					"outputs": [],
					"stateMutability": "nonpayable",
					"type": "function"
				},
				{
					"inputs": [],
					"name": "myContract",
					"outputs": [
						{
							"internalType": "contract MyContract",
							"name": "",
							"type": "address"
						}
					],
					"stateMutability": "view",
					"type": "function"
				}
			],
			"devdoc": {
				"kind": "dev",
				"methods": {},
				"version": 1
			},
			"evm": {
				"assembly": "    /* \"variable_scopes.sol\":552:951  contract ExternalContract {... */\n  mstore(0x40, 0x80)\n  callvalue\n  dup1\n  iszero\n  tag_1\n  jumpi\n  0x00\n  dup1\n  revert\ntag_1:\n  pop\n  dataSize(sub_0)\n  dup1\n  dataOffset(sub_0)\n  0x00\n  codecopy\n  0x00\n  return\nstop\n\nsub_0: assembly {\n        /* \"variable_scopes.sol\":552:951  contract ExternalContract {... */\n      mstore(0x40, 0x80)\n      callvalue\n      dup1\n      iszero\n      tag_1\n      jumpi\n      0x00\n      dup1\n      revert\n    tag_1:\n      pop\n      jumpi(tag_2, lt(calldatasize, 0x04))\n      shr(0xe0, calldataload(0x00))\n      dup1\n      0x82692679\n      eq\n      tag_3\n      jumpi\n      dup1\n      0xbc33657a\n      eq\n      tag_4\n      jumpi\n    tag_2:\n      0x00\n      dup1\n      revert\n        /* \"variable_scopes.sol\":619:949  function doSomething() public {... */\n    tag_3:\n      tag_5\n      tag_6\n      jump\t// in\n    tag_5:\n      stop\n        /* \"variable_scopes.sol\":584:612  MyContract public myContract */\n    tag_4:\n      tag_7\n      tag_8\n      jump\t// in\n    tag_7:\n      mload(0x40)\n      tag_9\n      swap2\n      swap1\n      tag_10\n      jump\t// in\n    tag_9:\n      mload(0x40)\n      dup1\n      swap2\n      sub\n      swap1\n      return\n        /* \"variable_scopes.sol\":619:949  function doSomething() public {... */\n    tag_6:\n        /* \"variable_scopes.sol\":672:688  new MyContract() */\n      mload(0x40)\n      tag_12\n      swap1\n      tag_13\n      jump\t// in\n    tag_12:\n      mload(0x40)\n      dup1\n      swap2\n      sub\n      swap1\n      0x00\n      create\n      dup1\n      iszero\n      dup1\n      iszero\n      tag_14\n      jumpi\n      returndatasize\n      0x00\n      dup1\n      returndatacopy\n      revert(0x00, returndatasize)\n    tag_14:\n      pop\n        /* \"variable_scopes.sol\":659:669  myContract */\n      0x00\n      dup1\n        /* \"variable_scopes.sol\":659:688  myContract = new MyContract() */\n      0x0100\n      exp\n      dup2\n      sload\n      dup2\n      0xffffffffffffffffffffffffffffffffffffffff\n      mul\n      not\n      and\n      swap1\n      dup4\n      0xffffffffffffffffffffffffffffffffffffffff\n      and\n      mul\n      or\n      swap1\n      sstore\n      pop\n        /* \"variable_scopes.sol\":698:708  myContract */\n      0x00\n      dup1\n      sload\n      swap1\n      0x0100\n      exp\n      swap1\n      div\n      0xffffffffffffffffffffffffffffffffffffffff\n      and\n        /* \"variable_scopes.sol\":698:722  myContract.setMyVariable */\n      0xffffffffffffffffffffffffffffffffffffffff\n      and\n      0x6ec9c7ae\n        /* \"variable_scopes.sol\":723:725  42 */\n      0x2a\n        /* \"variable_scopes.sol\":698:726  myContract.setMyVariable(42) */\n      mload(0x40)\n      dup3\n      0xffffffff\n      and\n      0xe0\n      shl\n      dup2\n      mstore\n      0x04\n      add\n      tag_15\n      swap2\n      swap1\n      tag_16\n      jump\t// in\n    tag_15:\n      0x00\n      mload(0x40)\n      dup1\n      dup4\n      sub\n      dup2\n      0x00\n      dup8\n      dup1\n      extcodesize\n      iszero\n      dup1\n      iszero\n      tag_17\n      jumpi\n      0x00\n      dup1\n      revert\n    tag_17:\n      pop\n      gas\n      call\n      iszero\n      dup1\n      iszero\n      tag_19\n      jumpi\n      returndatasize\n      0x00\n      dup1\n      returndatacopy\n      revert(0x00, returndatasize)\n    tag_19:\n      pop\n      pop\n      pop\n      pop\n        /* \"variable_scopes.sol\":619:949  function doSomething() public {... */\n      jump\t// out\n        /* \"variable_scopes.sol\":584:612  MyContract public myContract */\n    tag_8:\n      0x00\n      dup1\n      sload\n      swap1\n      0x0100\n      exp\n      swap1\n      div\n      0xffffffffffffffffffffffffffffffffffffffff\n      and\n      dup2\n      jump\t// out\n    tag_13:\n      dataSize(sub_0)\n      dup1\n      dataOffset(sub_0)\n      dup4\n      codecopy\n      add\n      swap1\n      jump\t// out\n        /* \"#utility.yul\":7:133   */\n    tag_20:\n        /* \"#utility.yul\":44:51   */\n      0x00\n        /* \"#utility.yul\":84:126   */\n      0xffffffffffffffffffffffffffffffffffffffff\n        /* \"#utility.yul\":77:82   */\n      dup3\n        /* \"#utility.yul\":73:127   */\n      and\n        /* \"#utility.yul\":62:127   */\n      swap1\n      pop\n        /* \"#utility.yul\":7:133   */\n      swap2\n      swap1\n      pop\n      jump\t// out\n        /* \"#utility.yul\":139:199   */\n    tag_21:\n        /* \"#utility.yul\":167:170   */\n      0x00\n        /* \"#utility.yul\":188:193   */\n      dup2\n        /* \"#utility.yul\":181:193   */\n      swap1\n      pop\n        /* \"#utility.yul\":139:199   */\n      swap2\n      swap1\n      pop\n      jump\t// out\n        /* \"#utility.yul\":205:347   */\n    tag_22:\n        /* \"#utility.yul\":255:264   */\n      0x00\n        /* \"#utility.yul\":288:341   */\n      tag_34\n        /* \"#utility.yul\":306:340   */\n      tag_35\n        /* \"#utility.yul\":315:339   */\n      tag_36\n        /* \"#utility.yul\":333:338   */\n      dup5\n        /* \"#utility.yul\":315:339   */\n      tag_20\n      jump\t// in\n    tag_36:\n        /* \"#utility.yul\":306:340   */\n      tag_21\n      jump\t// in\n    tag_35:\n        /* \"#utility.yul\":288:341   */\n      tag_20\n      jump\t// in\n    tag_34:\n        /* \"#utility.yul\":275:341   */\n      swap1\n      pop\n        /* \"#utility.yul\":205:347   */\n      swap2\n      swap1\n      pop\n      jump\t// out\n        /* \"#utility.yul\":353:479   */\n    tag_23:\n        /* \"#utility.yul\":403:412   */\n      0x00\n        /* \"#utility.yul\":436:473   */\n      tag_38\n        /* \"#utility.yul\":467:472   */\n      dup3\n        /* \"#utility.yul\":436:473   */\n      tag_22\n      jump\t// in\n    tag_38:\n        /* \"#utility.yul\":423:473   */\n      swap1\n      pop\n        /* \"#utility.yul\":353:479   */\n      swap2\n      swap1\n      pop\n      jump\t// out\n        /* \"#utility.yul\":485:628   */\n    tag_24:\n        /* \"#utility.yul\":552:561   */\n      0x00\n        /* \"#utility.yul\":585:622   */\n      tag_40\n        /* \"#utility.yul\":616:621   */\n      dup3\n        /* \"#utility.yul\":585:622   */\n      tag_23\n      jump\t// in\n    tag_40:\n        /* \"#utility.yul\":572:622   */\n      swap1\n      pop\n        /* \"#utility.yul\":485:628   */\n      swap2\n      swap1\n      pop\n      jump\t// out\n        /* \"#utility.yul\":634:799   */\n    tag_25:\n        /* \"#utility.yul\":738:792   */\n      tag_42\n        /* \"#utility.yul\":786:791   */\n      dup2\n        /* \"#utility.yul\":738:792   */\n      tag_24\n      jump\t// in\n    tag_42:\n        /* \"#utility.yul\":733:736   */\n      dup3\n        /* \"#utility.yul\":726:793   */\n      mstore\n        /* \"#utility.yul\":634:799   */\n      pop\n      pop\n      jump\t// out\n        /* \"#utility.yul\":805:1061   */\n    tag_10:\n        /* \"#utility.yul\":915:919   */\n      0x00\n        /* \"#utility.yul\":953:955   */\n      0x20\n        /* \"#utility.yul\":942:951   */\n      dup3\n        /* \"#utility.yul\":938:956   */\n      add\n        /* \"#utility.yul\":930:956   */\n      swap1\n      pop\n        /* \"#utility.yul\":966:1054   */\n      tag_44\n        /* \"#utility.yul\":1051:1052   */\n      0x00\n        /* \"#utility.yul\":1040:1049   */\n      dup4\n        /* \"#utility.yul\":1036:1053   */\n      add\n        /* \"#utility.yul\":1027:1033   */\n      dup5\n        /* \"#utility.yul\":966:1054   */\n      tag_25\n      jump\t// in\n    tag_44:\n        /* \"#utility.yul\":805:1061   */\n      swap3\n      swap2\n      pop\n      pop\n      jump\t// out\n        /* \"#utility.yul\":1067:1153   */\n    tag_26:\n        /* \"#utility.yul\":1113:1120   */\n      0x00\n        /* \"#utility.yul\":1142:1147   */\n      dup2\n        /* \"#utility.yul\":1131:1147   */\n      swap1\n      pop\n        /* \"#utility.yul\":1067:1153   */\n      swap2\n      swap1\n      pop\n      jump\t// out\n        /* \"#utility.yul\":1159:1236   */\n    tag_27:\n        /* \"#utility.yul\":1196:1203   */\n      0x00\n        /* \"#utility.yul\":1225:1230   */\n      dup2\n        /* \"#utility.yul\":1214:1230   */\n      swap1\n      pop\n        /* \"#utility.yul\":1159:1236   */\n      swap2\n      swap1\n      pop\n      jump\t// out\n        /* \"#utility.yul\":1242:1402   */\n    tag_28:\n        /* \"#utility.yul\":1301:1310   */\n      0x00\n        /* \"#utility.yul\":1334:1396   */\n      tag_48\n        /* \"#utility.yul\":1352:1395   */\n      tag_49\n        /* \"#utility.yul\":1361:1394   */\n      tag_50\n        /* \"#utility.yul\":1388:1393   */\n      dup5\n        /* \"#utility.yul\":1361:1394   */\n      tag_26\n      jump\t// in\n    tag_50:\n        /* \"#utility.yul\":1352:1395   */\n      tag_21\n      jump\t// in\n    tag_49:\n        /* \"#utility.yul\":1334:1396   */\n      tag_27\n      jump\t// in\n    tag_48:\n        /* \"#utility.yul\":1321:1396   */\n      swap1\n      pop\n        /* \"#utility.yul\":1242:1402   */\n      swap2\n      swap1\n      pop\n      jump\t// out\n        /* \"#utility.yul\":1408:1557   */\n    tag_29:\n        /* \"#utility.yul\":1504:1550   */\n      tag_52\n        /* \"#utility.yul\":1544:1549   */\n      dup2\n        /* \"#utility.yul\":1504:1550   */\n      tag_28\n      jump\t// in\n    tag_52:\n        /* \"#utility.yul\":1499:1502   */\n      dup3\n        /* \"#utility.yul\":1492:1551   */\n      mstore\n        /* \"#utility.yul\":1408:1557   */\n      pop\n      pop\n      jump\t// out\n        /* \"#utility.yul\":1563:1803   */\n    tag_16:\n        /* \"#utility.yul\":1665:1669   */\n      0x00\n        /* \"#utility.yul\":1703:1705   */\n      0x20\n        /* \"#utility.yul\":1692:1701   */\n      dup3\n        /* \"#utility.yul\":1688:1706   */\n      add\n        /* \"#utility.yul\":1680:1706   */\n      swap1\n      pop\n        /* \"#utility.yul\":1716:1796   */\n      tag_54\n        /* \"#utility.yul\":1793:1794   */\n      0x00\n        /* \"#utility.yul\":1782:1791   */\n      dup4\n        /* \"#utility.yul\":1778:1795   */\n      add\n        /* \"#utility.yul\":1769:1775   */\n      dup5\n        /* \"#utility.yul\":1716:1796   */\n      tag_29\n      jump\t// in\n    tag_54:\n        /* \"#utility.yul\":1563:1803   */\n      swap3\n      swap2\n      pop\n      pop\n      jump\t// out\n    stop\n\n    sub_0: assembly {\n            /* \"variable_scopes.sol\":66:550  contract MyContract {... */\n          mstore(0x40, 0x80)\n          callvalue\n          dup1\n          iszero\n          tag_1\n          jumpi\n          0x00\n          dup1\n          revert\n        tag_1:\n          pop\n          dataSize(sub_0)\n          dup1\n          dataOffset(sub_0)\n          0x00\n          codecopy\n          0x00\n          return\n        stop\n\n        sub_0: assembly {\n                /* \"variable_scopes.sol\":66:550  contract MyContract {... */\n              mstore(0x40, 0x80)\n              callvalue\n              dup1\n              iszero\n              tag_1\n              jumpi\n              0x00\n              dup1\n              revert\n            tag_1:\n              pop\n              jumpi(tag_2, lt(calldatasize, 0x04))\n              shr(0xe0, calldataload(0x00))\n              dup1\n              0x4e59ff56\n              eq\n              tag_3\n              jumpi\n              dup1\n              0x6ec9c7ae\n              eq\n              tag_4\n              jumpi\n              dup1\n              0xe2986dc2\n              eq\n              tag_5\n              jumpi\n            tag_2:\n              0x00\n              dup1\n              revert\n                /* \"variable_scopes.sol\":92:114  uint public myVariable */\n            tag_3:\n              tag_6\n              tag_7\n              jump\t// in\n            tag_6:\n              mload(0x40)\n              tag_8\n              swap2\n              swap1\n              tag_9\n              jump\t// in\n            tag_8:\n              mload(0x40)\n              dup1\n              swap2\n              sub\n              swap1\n              return\n                /* \"variable_scopes.sol\":182:266  function setMyVariable(uint newValue) public  {... */\n            tag_4:\n              tag_10\n              0x04\n              dup1\n              calldatasize\n              sub\n              dup2\n              add\n              swap1\n              tag_11\n              swap2\n              swap1\n              tag_12\n              jump\t// in\n            tag_11:\n              tag_13\n              jump\t// in\n            tag_10:\n              stop\n                /* \"variable_scopes.sol\":372:457  function setMyVariable2(uint newValue) public {... */\n            tag_5:\n              tag_14\n              0x04\n              dup1\n              calldatasize\n              sub\n              dup2\n              add\n              swap1\n              tag_15\n              swap2\n              swap1\n              tag_12\n              jump\t// in\n            tag_15:\n              tag_16\n              jump\t// in\n            tag_14:\n              stop\n                /* \"variable_scopes.sol\":92:114  uint public myVariable */\n            tag_7:\n              sload(0x00)\n              dup2\n              jump\t// out\n                /* \"variable_scopes.sol\":182:266  function setMyVariable(uint newValue) public  {... */\n            tag_13:\n                /* \"variable_scopes.sol\":251:259  newValue */\n              dup1\n                /* \"variable_scopes.sol\":238:248  myVariable */\n              0x00\n                /* \"variable_scopes.sol\":238:259  myVariable = newValue */\n              dup2\n              swap1\n              sstore\n              pop\n                /* \"variable_scopes.sol\":182:266  function setMyVariable(uint newValue) public  {... */\n              pop\n              jump\t// out\n                /* \"variable_scopes.sol\":372:457  function setMyVariable2(uint newValue) public {... */\n            tag_16:\n                /* \"variable_scopes.sol\":442:450  newValue */\n              dup1\n                /* \"variable_scopes.sol\":428:439  myVariable2 */\n              0x01\n                /* \"variable_scopes.sol\":428:450  myVariable2 = newValue */\n              dup2\n              swap1\n              sstore\n              pop\n                /* \"variable_scopes.sol\":372:457  function setMyVariable2(uint newValue) public {... */\n              pop\n              jump\t// out\n                /* \"#utility.yul\":7:84   */\n            tag_19:\n                /* \"#utility.yul\":44:51   */\n              0x00\n                /* \"#utility.yul\":73:78   */\n              dup2\n                /* \"#utility.yul\":62:78   */\n              swap1\n              pop\n                /* \"#utility.yul\":7:84   */\n              swap2\n              swap1\n              pop\n              jump\t// out\n                /* \"#utility.yul\":90:208   */\n            tag_20:\n                /* \"#utility.yul\":177:201   */\n              tag_29\n                /* \"#utility.yul\":195:200   */\n              dup2\n                /* \"#utility.yul\":177:201   */\n              tag_19\n              jump\t// in\n            tag_29:\n                /* \"#utility.yul\":172:175   */\n              dup3\n                /* \"#utility.yul\":165:202   */\n              mstore\n                /* \"#utility.yul\":90:208   */\n              pop\n              pop\n              jump\t// out\n                /* \"#utility.yul\":214:436   */\n            tag_9:\n                /* \"#utility.yul\":307:311   */\n              0x00\n                /* \"#utility.yul\":345:347   */\n              0x20\n                /* \"#utility.yul\":334:343   */\n              dup3\n                /* \"#utility.yul\":330:348   */\n              add\n                /* \"#utility.yul\":322:348   */\n              swap1\n              pop\n                /* \"#utility.yul\":358:429   */\n              tag_31\n                /* \"#utility.yul\":426:427   */\n              0x00\n                /* \"#utility.yul\":415:424   */\n              dup4\n                /* \"#utility.yul\":411:428   */\n              add\n                /* \"#utility.yul\":402:408   */\n              dup5\n                /* \"#utility.yul\":358:429   */\n              tag_20\n              jump\t// in\n            tag_31:\n                /* \"#utility.yul\":214:436   */\n              swap3\n              swap2\n              pop\n              pop\n              jump\t// out\n                /* \"#utility.yul\":523:640   */\n            tag_22:\n                /* \"#utility.yul\":632:633   */\n              0x00\n                /* \"#utility.yul\":629:630   */\n              dup1\n                /* \"#utility.yul\":622:634   */\n              revert\n                /* \"#utility.yul\":769:891   */\n            tag_24:\n                /* \"#utility.yul\":842:866   */\n              tag_36\n                /* \"#utility.yul\":860:865   */\n              dup2\n                /* \"#utility.yul\":842:866   */\n              tag_19\n              jump\t// in\n            tag_36:\n                /* \"#utility.yul\":835:840   */\n              dup2\n                /* \"#utility.yul\":832:867   */\n              eq\n                /* \"#utility.yul\":822:885   */\n              tag_37\n              jumpi\n                /* \"#utility.yul\":881:882   */\n              0x00\n                /* \"#utility.yul\":878:879   */\n              dup1\n                /* \"#utility.yul\":871:883   */\n              revert\n                /* \"#utility.yul\":822:885   */\n            tag_37:\n                /* \"#utility.yul\":769:891   */\n              pop\n              jump\t// out\n                /* \"#utility.yul\":897:1036   */\n            tag_25:\n                /* \"#utility.yul\":943:948   */\n              0x00\n                /* \"#utility.yul\":981:987   */\n              dup2\n                /* \"#utility.yul\":968:988   */\n              calldataload\n                /* \"#utility.yul\":959:988   */\n              swap1\n              pop\n                /* \"#utility.yul\":997:1030   */\n              tag_39\n                /* \"#utility.yul\":1024:1029   */\n              dup2\n                /* \"#utility.yul\":997:1030   */\n              tag_24\n              jump\t// in\n            tag_39:\n                /* \"#utility.yul\":897:1036   */\n              swap3\n              swap2\n              pop\n              pop\n              jump\t// out\n                /* \"#utility.yul\":1042:1371   */\n            tag_12:\n                /* \"#utility.yul\":1101:1107   */\n              0x00\n                /* \"#utility.yul\":1150:1152   */\n              0x20\n                /* \"#utility.yul\":1138:1147   */\n              dup3\n                /* \"#utility.yul\":1129:1136   */\n              dup5\n                /* \"#utility.yul\":1125:1148   */\n              sub\n                /* \"#utility.yul\":1121:1153   */\n              slt\n                /* \"#utility.yul\":1118:1237   */\n              iszero\n              tag_41\n              jumpi\n                /* \"#utility.yul\":1156:1235   */\n              tag_42\n              tag_22\n              jump\t// in\n            tag_42:\n                /* \"#utility.yul\":1118:1237   */\n            tag_41:\n                /* \"#utility.yul\":1276:1277   */\n              0x00\n                /* \"#utility.yul\":1301:1354   */\n              tag_43\n                /* \"#utility.yul\":1346:1353   */\n              dup5\n                /* \"#utility.yul\":1337:1343   */\n              dup3\n                /* \"#utility.yul\":1326:1335   */\n              dup6\n                /* \"#utility.yul\":1322:1344   */\n              add\n                /* \"#utility.yul\":1301:1354   */\n              tag_25\n              jump\t// in\n            tag_43:\n                /* \"#utility.yul\":1291:1354   */\n              swap2\n              pop\n                /* \"#utility.yul\":1247:1364   */\n              pop\n                /* \"#utility.yul\":1042:1371   */\n              swap3\n              swap2\n              pop\n              pop\n              jump\t// out\n\n            auxdata: 0xa26469706673582212200fa5148b5c2699f7c5cb9733eba584225e0fd6edeff08102f51355538d9b952164736f6c63430008120033\n        }\n    }\n\n    auxdata: 0xa2646970667358221220fca3d4caf8ed2e67f2e02cacea20cc18ee169209cd0ee04b6a593f5ee22e335464736f6c63430008120033\n}\n",
				"bytecode": {
					"linkReferences": {},
					"object": "608060405234801561001057600080fd5b50610458806100206000396000f3fe608060405234801561001057600080fd5b50600436106100365760003560e01c8063826926791461003b578063bc33657a14610045575b600080fd5b610043610063565b005b61004d610159565b60405161005a9190610209565b60405180910390f35b60405161006f9061017d565b604051809103906000f08015801561008b573d6000803e3d6000fd5b506000806101000a81548173ffffffffffffffffffffffffffffffffffffffff021916908373ffffffffffffffffffffffffffffffffffffffff16021790555060008054906101000a900473ffffffffffffffffffffffffffffffffffffffff1673ffffffffffffffffffffffffffffffffffffffff16636ec9c7ae602a6040518263ffffffff1660e01b81526004016101259190610269565b600060405180830381600087803b15801561013f57600080fd5b505af1158015610153573d6000803e3d6000fd5b50505050565b60008054906101000a900473ffffffffffffffffffffffffffffffffffffffff1681565b61019e8061028583390190565b600073ffffffffffffffffffffffffffffffffffffffff82169050919050565b6000819050919050565b60006101cf6101ca6101c58461018a565b6101aa565b61018a565b9050919050565b60006101e1826101b4565b9050919050565b60006101f3826101d6565b9050919050565b610203816101e8565b82525050565b600060208201905061021e60008301846101fa565b92915050565b6000819050919050565b6000819050919050565b600061025361024e61024984610224565b6101aa565b61022e565b9050919050565b61026381610238565b82525050565b600060208201905061027e600083018461025a565b9291505056fe608060405234801561001057600080fd5b5061017e806100206000396000f3fe608060405234801561001057600080fd5b50600436106100415760003560e01c80634e59ff56146100465780636ec9c7ae14610064578063e2986dc214610080575b600080fd5b61004e61009c565b60405161005b91906100cf565b60405180910390f35b61007e6004803603810190610079919061011b565b6100a2565b005b61009a6004803603810190610095919061011b565b6100ac565b005b60005481565b8060008190555050565b8060018190555050565b6000819050919050565b6100c9816100b6565b82525050565b60006020820190506100e460008301846100c0565b92915050565b600080fd5b6100f8816100b6565b811461010357600080fd5b50565b600081359050610115816100ef565b92915050565b600060208284031215610131576101306100ea565b5b600061013f84828501610106565b9150509291505056fea26469706673582212200fa5148b5c2699f7c5cb9733eba584225e0fd6edeff08102f51355538d9b952164736f6c63430008120033a2646970667358221220fca3d4caf8ed2e67f2e02cacea20cc18ee169209cd0ee04b6a593f5ee22e335464736f6c63430008120033",
					"opcodes": "PUSH1 0x80 PUSH1 0x40 MSTORE CALLVALUE DUP1 ISZERO PUSH2 0x10 JUMPI PUSH1 0x0 DUP1 REVERT JUMPDEST POP PUSH2 0x458 DUP1 PUSH2 0x20 PUSH1 0x0 CODECOPY PUSH1 0x0 RETURN INVALID PUSH1 0x80 PUSH1 0x40 MSTORE CALLVALUE DUP1 ISZERO PUSH2 0x10 JUMPI PUSH1 0x0 DUP1 REVERT JUMPDEST POP PUSH1 0x4 CALLDATASIZE LT PUSH2 0x36 JUMPI PUSH1 0x0 CALLDATALOAD PUSH1 0xE0 SHR DUP1 PUSH4 0x82692679 EQ PUSH2 0x3B JUMPI DUP1 PUSH4 0xBC33657A EQ PUSH2 0x45 JUMPI JUMPDEST PUSH1 0x0 DUP1 REVERT JUMPDEST PUSH2 0x43 PUSH2 0x63 JUMP JUMPDEST STOP JUMPDEST PUSH2 0x4D PUSH2 0x159 JUMP JUMPDEST PUSH1 0x40 MLOAD PUSH2 0x5A SWAP2 SWAP1 PUSH2 0x209 JUMP JUMPDEST PUSH1 0x40 MLOAD DUP1 SWAP2 SUB SWAP1 RETURN JUMPDEST PUSH1 0x40 MLOAD PUSH2 0x6F SWAP1 PUSH2 0x17D JUMP JUMPDEST PUSH1 0x40 MLOAD DUP1 SWAP2 SUB SWAP1 PUSH1 0x0 CREATE DUP1 ISZERO DUP1 ISZERO PUSH2 0x8B JUMPI RETURNDATASIZE PUSH1 0x0 DUP1 RETURNDATACOPY RETURNDATASIZE PUSH1 0x0 REVERT JUMPDEST POP PUSH1 0x0 DUP1 PUSH2 0x100 EXP DUP2 SLOAD DUP2 PUSH20 0xFFFFFFFFFFFFFFFFFFFFFFFFFFFFFFFFFFFFFFFF MUL NOT AND SWAP1 DUP4 PUSH20 0xFFFFFFFFFFFFFFFFFFFFFFFFFFFFFFFFFFFFFFFF AND MUL OR SWAP1 SSTORE POP PUSH1 0x0 DUP1 SLOAD SWAP1 PUSH2 0x100 EXP SWAP1 DIV PUSH20 0xFFFFFFFFFFFFFFFFFFFFFFFFFFFFFFFFFFFFFFFF AND PUSH20 0xFFFFFFFFFFFFFFFFFFFFFFFFFFFFFFFFFFFFFFFF AND PUSH4 0x6EC9C7AE PUSH1 0x2A PUSH1 0x40 MLOAD DUP3 PUSH4 0xFFFFFFFF AND PUSH1 0xE0 SHL DUP2 MSTORE PUSH1 0x4 ADD PUSH2 0x125 SWAP2 SWAP1 PUSH2 0x269 JUMP JUMPDEST PUSH1 0x0 PUSH1 0x40 MLOAD DUP1 DUP4 SUB DUP2 PUSH1 0x0 DUP8 DUP1 EXTCODESIZE ISZERO DUP1 ISZERO PUSH2 0x13F JUMPI PUSH1 0x0 DUP1 REVERT JUMPDEST POP GAS CALL ISZERO DUP1 ISZERO PUSH2 0x153 JUMPI RETURNDATASIZE PUSH1 0x0 DUP1 RETURNDATACOPY RETURNDATASIZE PUSH1 0x0 REVERT JUMPDEST POP POP POP POP JUMP JUMPDEST PUSH1 0x0 DUP1 SLOAD SWAP1 PUSH2 0x100 EXP SWAP1 DIV PUSH20 0xFFFFFFFFFFFFFFFFFFFFFFFFFFFFFFFFFFFFFFFF AND DUP2 JUMP JUMPDEST PUSH2 0x19E DUP1 PUSH2 0x285 DUP4 CODECOPY ADD SWAP1 JUMP JUMPDEST PUSH1 0x0 PUSH20 0xFFFFFFFFFFFFFFFFFFFFFFFFFFFFFFFFFFFFFFFF DUP3 AND SWAP1 POP SWAP2 SWAP1 POP JUMP JUMPDEST PUSH1 0x0 DUP2 SWAP1 POP SWAP2 SWAP1 POP JUMP JUMPDEST PUSH1 0x0 PUSH2 0x1CF PUSH2 0x1CA PUSH2 0x1C5 DUP5 PUSH2 0x18A JUMP JUMPDEST PUSH2 0x1AA JUMP JUMPDEST PUSH2 0x18A JUMP JUMPDEST SWAP1 POP SWAP2 SWAP1 POP JUMP JUMPDEST PUSH1 0x0 PUSH2 0x1E1 DUP3 PUSH2 0x1B4 JUMP JUMPDEST SWAP1 POP SWAP2 SWAP1 POP JUMP JUMPDEST PUSH1 0x0 PUSH2 0x1F3 DUP3 PUSH2 0x1D6 JUMP JUMPDEST SWAP1 POP SWAP2 SWAP1 POP JUMP JUMPDEST PUSH2 0x203 DUP2 PUSH2 0x1E8 JUMP JUMPDEST DUP3 MSTORE POP POP JUMP JUMPDEST PUSH1 0x0 PUSH1 0x20 DUP3 ADD SWAP1 POP PUSH2 0x21E PUSH1 0x0 DUP4 ADD DUP5 PUSH2 0x1FA JUMP JUMPDEST SWAP3 SWAP2 POP POP JUMP JUMPDEST PUSH1 0x0 DUP2 SWAP1 POP SWAP2 SWAP1 POP JUMP JUMPDEST PUSH1 0x0 DUP2 SWAP1 POP SWAP2 SWAP1 POP JUMP JUMPDEST PUSH1 0x0 PUSH2 0x253 PUSH2 0x24E PUSH2 0x249 DUP5 PUSH2 0x224 JUMP JUMPDEST PUSH2 0x1AA JUMP JUMPDEST PUSH2 0x22E JUMP JUMPDEST SWAP1 POP SWAP2 SWAP1 POP JUMP JUMPDEST PUSH2 0x263 DUP2 PUSH2 0x238 JUMP JUMPDEST DUP3 MSTORE POP POP JUMP JUMPDEST PUSH1 0x0 PUSH1 0x20 DUP3 ADD SWAP1 POP PUSH2 0x27E PUSH1 0x0 DUP4 ADD DUP5 PUSH2 0x25A JUMP JUMPDEST SWAP3 SWAP2 POP POP JUMP INVALID PUSH1 0x80 PUSH1 0x40 MSTORE CALLVALUE DUP1 ISZERO PUSH2 0x10 JUMPI PUSH1 0x0 DUP1 REVERT JUMPDEST POP PUSH2 0x17E DUP1 PUSH2 0x20 PUSH1 0x0 CODECOPY PUSH1 0x0 RETURN INVALID PUSH1 0x80 PUSH1 0x40 MSTORE CALLVALUE DUP1 ISZERO PUSH2 0x10 JUMPI PUSH1 0x0 DUP1 REVERT JUMPDEST POP PUSH1 0x4 CALLDATASIZE LT PUSH2 0x41 JUMPI PUSH1 0x0 CALLDATALOAD PUSH1 0xE0 SHR DUP1 PUSH4 0x4E59FF56 EQ PUSH2 0x46 JUMPI DUP1 PUSH4 0x6EC9C7AE EQ PUSH2 0x64 JUMPI DUP1 PUSH4 0xE2986DC2 EQ PUSH2 0x80 JUMPI JUMPDEST PUSH1 0x0 DUP1 REVERT JUMPDEST PUSH2 0x4E PUSH2 0x9C JUMP JUMPDEST PUSH1 0x40 MLOAD PUSH2 0x5B SWAP2 SWAP1 PUSH2 0xCF JUMP JUMPDEST PUSH1 0x40 MLOAD DUP1 SWAP2 SUB SWAP1 RETURN JUMPDEST PUSH2 0x7E PUSH1 0x4 DUP1 CALLDATASIZE SUB DUP2 ADD SWAP1 PUSH2 0x79 SWAP2 SWAP1 PUSH2 0x11B JUMP JUMPDEST PUSH2 0xA2 JUMP JUMPDEST STOP JUMPDEST PUSH2 0x9A PUSH1 0x4 DUP1 CALLDATASIZE SUB DUP2 ADD SWAP1 PUSH2 0x95 SWAP2 SWAP1 PUSH2 0x11B JUMP JUMPDEST PUSH2 0xAC JUMP JUMPDEST STOP JUMPDEST PUSH1 0x0 SLOAD DUP2 JUMP JUMPDEST DUP1 PUSH1 0x0 DUP2 SWAP1 SSTORE POP POP JUMP JUMPDEST DUP1 PUSH1 0x1 DUP2 SWAP1 SSTORE POP POP JUMP JUMPDEST PUSH1 0x0 DUP2 SWAP1 POP SWAP2 SWAP1 POP JUMP JUMPDEST PUSH2 0xC9 DUP2 PUSH2 0xB6 JUMP JUMPDEST DUP3 MSTORE POP POP JUMP JUMPDEST PUSH1 0x0 PUSH1 0x20 DUP3 ADD SWAP1 POP PUSH2 0xE4 PUSH1 0x0 DUP4 ADD DUP5 PUSH2 0xC0 JUMP JUMPDEST SWAP3 SWAP2 POP POP JUMP JUMPDEST PUSH1 0x0 DUP1 REVERT JUMPDEST PUSH2 0xF8 DUP2 PUSH2 0xB6 JUMP JUMPDEST DUP2 EQ PUSH2 0x103 JUMPI PUSH1 0x0 DUP1 REVERT JUMPDEST POP JUMP JUMPDEST PUSH1 0x0 DUP2 CALLDATALOAD SWAP1 POP PUSH2 0x115 DUP2 PUSH2 0xEF JUMP JUMPDEST SWAP3 SWAP2 POP POP JUMP JUMPDEST PUSH1 0x0 PUSH1 0x20 DUP3 DUP5 SUB SLT ISZERO PUSH2 0x131 JUMPI PUSH2 0x130 PUSH2 0xEA JUMP JUMPDEST JUMPDEST PUSH1 0x0 PUSH2 0x13F DUP5 DUP3 DUP6 ADD PUSH2 0x106 JUMP JUMPDEST SWAP2 POP POP SWAP3 SWAP2 POP POP JUMP INVALID LOG2 PUSH5 0x6970667358 0x22 SLT KECCAK256 0xF 0xA5 EQ DUP12 0x5C 0x26 SWAP10 0xF7 0xC5 0xCB SWAP8 CALLER 0xEB 0xA5 DUP5 0x22 0x5E 0xF 0xD6 0xED 0xEF CREATE DUP2 MUL CREATE2 SGT SSTORE MSTORE8 DUP14 SWAP12 SWAP6 0x21 PUSH5 0x736F6C6343 STOP ADDMOD SLT STOP CALLER LOG2 PUSH5 0x6970667358 0x22 SLT KECCAK256 0xFC LOG3 0xD4 0xCA 0xF8 0xED 0x2E PUSH8 0xF2E02CACEA20CC18 0xEE AND SWAP3 MULMOD 0xCD 0xE 0xE0 0x4B PUSH11 0x593F5EE22E335464736F6C PUSH4 0x43000812 STOP CALLER "
				},
				"gasEstimates": {
					"creation": {
						"codeDepositCost": "222400",
						"executionCost": "263",
						"totalCost": "222663"
					},
					"external": {
						"doSomething()": "infinite",
						"myContract()": "infinite"
					}
				},
				"methodIdentifiers": {
					"doSomething()": "82692679",
					"myContract()": "bc33657a"
				}
			},
			"storageLayout": {
				"storage": [
					{
						"astId": 41,
						"contract": "variable_scopes.sol:ExternalContract",
						"label": "myContract",
						"offset": 0,
						"slot": "0",
						"type": "t_contract(MyContract)38"
					}
				],
				"types": {
					"t_contract(MyContract)38": {
						"encoding": "inplace",
						"label": "contract MyContract",
						"numberOfBytes": "20"
					}
				}
			},
			"userdoc": {
				"kind": "user",
				"methods": {},
				"version": 1
			}
		}
	}
}