{
	"data": {
		"bytecode": {
			"linkReferences": {},
			"object": "608060405234801561001057600080fd5b5061014b806100206000396000f3fe608060405234801561001057600080fd5b50600436106100415760003560e01c80632e49d78b146100465780634e69d56014610077578063ef8a9235146100a0575b600080fd5b6100756004803603602081101561005c57600080fd5b81019080803560ff1690602001909291905050506100c9565b005b61007f6100ee565b6040518082600281111561008f57fe5b815260200191505060405180910390f35b6100a8610104565b604051808260028111156100b857fe5b815260200191505060405180910390f35b806000806101000a81548160ff021916908360028111156100e657fe5b021790555050565b60008060009054906101000a900460ff16905090565b60008054906101000a900460ff168156fea264697066735822122055cfd7411d02dd1fbd5b9c17e3eaf72b7ddb4e6fc380aa60a11238ed1e513d8164736f6c63430007060033",
			"opcodes": "PUSH1 0x80 PUSH1 0x40 MSTORE CALLVALUE DUP1 ISZERO PUSH2 0x10 JUMPI PUSH1 0x0 DUP1 REVERT JUMPDEST POP PUSH2 0x14B DUP1 PUSH2 0x20 PUSH1 0x0 CODECOPY PUSH1 0x0 RETURN INVALID PUSH1 0x80 PUSH1 0x40 MSTORE CALLVALUE DUP1 ISZERO PUSH2 0x10 JUMPI PUSH1 0x0 DUP1 REVERT JUMPDEST POP PUSH1 0x4 CALLDATASIZE LT PUSH2 0x41 JUMPI PUSH1 0x0 CALLDATALOAD PUSH1 0xE0 SHR DUP1 PUSH4 0x2E49D78B EQ PUSH2 0x46 JUMPI DUP1 PUSH4 0x4E69D560 EQ PUSH2 0x77 JUMPI DUP1 PUSH4 0xEF8A9235 EQ PUSH2 0xA0 JUMPI JUMPDEST PUSH1 0x0 DUP1 REVERT JUMPDEST PUSH2 0x75 PUSH1 0x4 DUP1 CALLDATASIZE SUB PUSH1 0x20 DUP2 LT ISZERO PUSH2 0x5C JUMPI PUSH1 0x0 DUP1 REVERT JUMPDEST DUP2 ADD SWAP1 DUP1 DUP1 CALLDATALOAD PUSH1 0xFF AND SWAP1 PUSH1 0x20 ADD SWAP1 SWAP3 SWAP2 SWAP1 POP POP POP PUSH2 0xC9 JUMP JUMPDEST STOP JUMPDEST PUSH2 0x7F PUSH2 0xEE JUMP JUMPDEST PUSH1 0x40 MLOAD DUP1 DUP3 PUSH1 0x2 DUP2 GT ISZERO PUSH2 0x8F JUMPI INVALID JUMPDEST DUP2 MSTORE PUSH1 0x20 ADD SWAP2 POP POP PUSH1 0x40 MLOAD DUP1 SWAP2 SUB SWAP1 RETURN JUMPDEST PUSH2 0xA8 PUSH2 0x104 JUMP JUMPDEST PUSH1 0x40 MLOAD DUP1 DUP3 PUSH1 0x2 DUP2 GT ISZERO PUSH2 0xB8 JUMPI INVALID JUMPDEST DUP2 MSTORE PUSH1 0x20 ADD SWAP2 POP POP PUSH1 0x40 MLOAD DUP1 SWAP2 SUB SWAP1 RETURN JUMPDEST DUP1 PUSH1 0x0 DUP1 PUSH2 0x100 EXP DUP2 SLOAD DUP2 PUSH1 0xFF MUL NOT AND SWAP1 DUP4 PUSH1 0x2 DUP2 GT ISZERO PUSH2 0xE6 JUMPI INVALID JUMPDEST MUL OR SWAP1 SSTORE POP POP JUMP JUMPDEST PUSH1 0x0 DUP1 PUSH1 0x0 SWAP1 SLOAD SWAP1 PUSH2 0x100 EXP SWAP1 DIV PUSH1 0xFF AND SWAP1 POP SWAP1 JUMP JUMPDEST PUSH1 0x0 DUP1 SLOAD SWAP1 PUSH2 0x100 EXP SWAP1 DIV PUSH1 0xFF AND DUP2 JUMP INVALID LOG2 PUSH5 0x6970667358 0x22 SLT KECCAK256 SSTORE 0xCF 0xD7 COINBASE SAR MUL 0xDD 0x1F 0xBD JUMPDEST SWAP13 OR 0xE3 0xEA 0xF7 0x2B PUSH30 0xDB4E6FC380AA60A11238ED1E513D8164736F6C6343000706003300000000 "
		},
		"gasEstimates": {
			"creation": {
				"codeDepositCost": "66200",
				"executionCost": "117",
				"totalCost": "66317"
			},
			"external": {
				"currentStatus()": "1086",
				"getStatus()": "1075",
				"setStatus(uint8)": "21099"
			}
		},
		"methodIdentifiers": {
			"currentStatus()": "ef8a9235",
			"getStatus()": "4e69d560",
			"setStatus(uint8)": "2e49d78b"
		}
	},
	"abi": [
		{
			"inputs": [],
			"name": "currentStatus",
			"outputs": [
				{
					"internalType": "enum EnumExample.Status",
					"name": "",
					"type": "uint8"
				}
			],
			"stateMutability": "view",
			"type": "function"
		},
		{
			"inputs": [],
			"name": "getStatus",
			"outputs": [
				{
					"internalType": "enum EnumExample.Status",
					"name": "",
					"type": "uint8"
				}
			],
			"stateMutability": "view",
			"type": "function"
		},
		{
			"inputs": [
				{
					"internalType": "enum EnumExample.Status",
					"name": "_status",
					"type": "uint8"
				}
			],
			"name": "setStatus",
			"outputs": [],
			"stateMutability": "nonpayable",
			"type": "function"
		}
	]
}