{
	"data": {
		"bytecode": {
			"linkReferences": {},
			"object": "608060405234801561001057600080fd5b50610198806100206000396000f3fe608060405234801561001057600080fd5b50600436106100575760003560e01c8063694ebe4f1461005c57806391ff2c861461006657806398f42fe314610070578063db39b91514610099578063de8fa431146100a3575b600080fd5b6100646100cc565b005b61006e6100f1565b005b610078610116565b6040518082600281111561008857fe5b815260200191505060405180910390f35b6100a1610127565b005b6100ab61014c565b604051808260028111156100bb57fe5b815260200191505060405180910390f35b60016000806101000a81548160ff021916908360028111156100ea57fe5b0217905550565b60008060006101000a81548160ff0219169083600281111561010f57fe5b0217905550565b60008054906101000a900460ff1681565b60026000806101000a81548160ff0219169083600281111561014557fe5b0217905550565b60008060009054906101000a900460ff1690509056fea26469706673582212202c232560c07c54bac725bd4b459052be5deaf6ccbece46dbb13e02970eec507e64736f6c63430007060033",
			"opcodes": "PUSH1 0x80 PUSH1 0x40 MSTORE CALLVALUE DUP1 ISZERO PUSH2 0x10 JUMPI PUSH1 0x0 DUP1 REVERT JUMPDEST POP PUSH2 0x198 DUP1 PUSH2 0x20 PUSH1 0x0 CODECOPY PUSH1 0x0 RETURN INVALID PUSH1 0x80 PUSH1 0x40 MSTORE CALLVALUE DUP1 ISZERO PUSH2 0x10 JUMPI PUSH1 0x0 DUP1 REVERT JUMPDEST POP PUSH1 0x4 CALLDATASIZE LT PUSH2 0x57 JUMPI PUSH1 0x0 CALLDATALOAD PUSH1 0xE0 SHR DUP1 PUSH4 0x694EBE4F EQ PUSH2 0x5C JUMPI DUP1 PUSH4 0x91FF2C86 EQ PUSH2 0x66 JUMPI DUP1 PUSH4 0x98F42FE3 EQ PUSH2 0x70 JUMPI DUP1 PUSH4 0xDB39B915 EQ PUSH2 0x99 JUMPI DUP1 PUSH4 0xDE8FA431 EQ PUSH2 0xA3 JUMPI JUMPDEST PUSH1 0x0 DUP1 REVERT JUMPDEST PUSH2 0x64 PUSH2 0xCC JUMP JUMPDEST STOP JUMPDEST PUSH2 0x6E PUSH2 0xF1 JUMP JUMPDEST STOP JUMPDEST PUSH2 0x78 PUSH2 0x116 JUMP JUMPDEST PUSH1 0x40 MLOAD DUP1 DUP3 PUSH1 0x2 DUP2 GT ISZERO PUSH2 0x88 JUMPI INVALID JUMPDEST DUP2 MSTORE PUSH1 0x20 ADD SWAP2 POP POP PUSH1 0x40 MLOAD DUP1 SWAP2 SUB SWAP1 RETURN JUMPDEST PUSH2 0xA1 PUSH2 0x127 JUMP JUMPDEST STOP JUMPDEST PUSH2 0xAB PUSH2 0x14C JUMP JUMPDEST PUSH1 0x40 MLOAD DUP1 DUP3 PUSH1 0x2 DUP2 GT ISZERO PUSH2 0xBB JUMPI INVALID JUMPDEST DUP2 MSTORE PUSH1 0x20 ADD SWAP2 POP POP PUSH1 0x40 MLOAD DUP1 SWAP2 SUB SWAP1 RETURN JUMPDEST PUSH1 0x1 PUSH1 0x0 DUP1 PUSH2 0x100 EXP DUP2 SLOAD DUP2 PUSH1 0xFF MUL NOT AND SWAP1 DUP4 PUSH1 0x2 DUP2 GT ISZERO PUSH2 0xEA JUMPI INVALID JUMPDEST MUL OR SWAP1 SSTORE POP JUMP JUMPDEST PUSH1 0x0 DUP1 PUSH1 0x0 PUSH2 0x100 EXP DUP2 SLOAD DUP2 PUSH1 0xFF MUL NOT AND SWAP1 DUP4 PUSH1 0x2 DUP2 GT ISZERO PUSH2 0x10F JUMPI INVALID JUMPDEST MUL OR SWAP1 SSTORE POP JUMP JUMPDEST PUSH1 0x0 DUP1 SLOAD SWAP1 PUSH2 0x100 EXP SWAP1 DIV PUSH1 0xFF AND DUP2 JUMP JUMPDEST PUSH1 0x2 PUSH1 0x0 DUP1 PUSH2 0x100 EXP DUP2 SLOAD DUP2 PUSH1 0xFF MUL NOT AND SWAP1 DUP4 PUSH1 0x2 DUP2 GT ISZERO PUSH2 0x145 JUMPI INVALID JUMPDEST MUL OR SWAP1 SSTORE POP JUMP JUMPDEST PUSH1 0x0 DUP1 PUSH1 0x0 SWAP1 SLOAD SWAP1 PUSH2 0x100 EXP SWAP1 DIV PUSH1 0xFF AND SWAP1 POP SWAP1 JUMP INVALID LOG2 PUSH5 0x6970667358 0x22 SLT KECCAK256 0x2C 0x23 0x25 PUSH1 0xC0 PUSH29 0x54BAC725BD4B459052BE5DEAF6CCBECE46DBB13E02970EEC507E64736F PUSH13 0x63430007060033000000000000 "
		},
		"gasEstimates": {
			"creation": {
				"codeDepositCost": "81600",
				"executionCost": "129",
				"totalCost": "81729"
			},
			"external": {
				"choice()": "1086",
				"getSize()": "1141",
				"setLarge()": "21009",
				"setMedium()": "21075",
				"setSmall()": "21031"
			}
		},
		"methodIdentifiers": {
			"choice()": "98f42fe3",
			"getSize()": "de8fa431",
			"setLarge()": "694ebe4f",
			"setMedium()": "db39b915",
			"setSmall()": "91ff2c86"
		}
	},
	"abi": [
		{
			"inputs": [],
			"name": "choice",
			"outputs": [
				{
					"internalType": "enum Enums.FreshJuiceSize",
					"name": "",
					"type": "uint8"
				}
			],
			"stateMutability": "view",
			"type": "function"
		},
		{
			"inputs": [],
			"name": "getSize",
			"outputs": [
				{
					"internalType": "enum Enums.FreshJuiceSize",
					"name": "",
					"type": "uint8"
				}
			],
			"stateMutability": "view",
			"type": "function"
		},
		{
			"inputs": [],
			"name": "setLarge",
			"outputs": [],
			"stateMutability": "nonpayable",
			"type": "function"
		},
		{
			"inputs": [],
			"name": "setMedium",
			"outputs": [],
			"stateMutability": "nonpayable",
			"type": "function"
		},
		{
			"inputs": [],
			"name": "setSmall",
			"outputs": [],
			"stateMutability": "nonpayable",
			"type": "function"
		}
	]
}