{
	"data": {
		"bytecode": {
			"linkReferences": {},
			"object": "60c4610025600b82828239805160001a60731461001857fe5b30600052607381538281f3fe730000000000000000000000000000000000000000301460806040526004361060335760003560e01c8063771602f7146038575b600080fd5b606b60048036036040811015604c57600080fd5b8101908080359060200190929190803590602001909291905050506081565b6040518082815260200191505060405180910390f35b600081830190509291505056fea2646970667358221220d9daffce76c7399c7cfa22414c35613c64103989ede9dc8585727175e3a318bf64736f6c63430007060033",
			"opcodes": "PUSH1 0xC4 PUSH2 0x25 PUSH1 0xB DUP3 DUP3 DUP3 CODECOPY DUP1 MLOAD PUSH1 0x0 BYTE PUSH1 0x73 EQ PUSH2 0x18 JUMPI INVALID JUMPDEST ADDRESS PUSH1 0x0 MSTORE PUSH1 0x73 DUP2 MSTORE8 DUP3 DUP2 RETURN INVALID PUSH20 0x0 ADDRESS EQ PUSH1 0x80 PUSH1 0x40 MSTORE PUSH1 0x4 CALLDATASIZE LT PUSH1 0x33 JUMPI PUSH1 0x0 CALLDATALOAD PUSH1 0xE0 SHR DUP1 PUSH4 0x771602F7 EQ PUSH1 0x38 JUMPI JUMPDEST PUSH1 0x0 DUP1 REVERT JUMPDEST PUSH1 0x6B PUSH1 0x4 DUP1 CALLDATASIZE SUB PUSH1 0x40 DUP2 LT ISZERO PUSH1 0x4C JUMPI PUSH1 0x0 DUP1 REVERT JUMPDEST DUP2 ADD SWAP1 DUP1 DUP1 CALLDATALOAD SWAP1 PUSH1 0x20 ADD SWAP1 SWAP3 SWAP2 SWAP1 DUP1 CALLDATALOAD SWAP1 PUSH1 0x20 ADD SWAP1 SWAP3 SWAP2 SWAP1 POP POP POP PUSH1 0x81 JUMP JUMPDEST PUSH1 0x40 MLOAD DUP1 DUP3 DUP2 MSTORE PUSH1 0x20 ADD SWAP2 POP POP PUSH1 0x40 MLOAD DUP1 SWAP2 SUB SWAP1 RETURN JUMPDEST PUSH1 0x0 DUP2 DUP4 ADD SWAP1 POP SWAP3 SWAP2 POP POP JUMP INVALID LOG2 PUSH5 0x6970667358 0x22 SLT KECCAK256 0xD9 0xDA SELFDESTRUCT 0xCE PUSH23 0xC7399C7CFA22414C35613C64103989EDE9DC8585727175 0xE3 LOG3 XOR 0xBF PUSH5 0x736F6C6343 STOP SMOD MOD STOP CALLER "
		},
		"gasEstimates": {
			"creation": {
				"codeDepositCost": "39200",
				"executionCost": "118",
				"totalCost": "39318"
			},
			"external": {
				"add(uint256,uint256)": "297"
			}
		},
		"methodIdentifiers": {
			"add(uint256,uint256)": "771602f7"
		}
	},
	"abi": [
		{
			"inputs": [
				{
					"internalType": "uint256",
					"name": "num1",
					"type": "uint256"
				},
				{
					"internalType": "uint256",
					"name": "num2",
					"type": "uint256"
				}
			],
			"name": "add",
			"outputs": [
				{
					"internalType": "uint256",
					"name": "",
					"type": "uint256"
				}
			],
			"stateMutability": "pure",
			"type": "function"
		}
	]
}