{
	"data": {
		"bytecode": {
			"linkReferences": {},
			"object": "6093610024600b82828239805160001a607314601757fe5b30600052607381538281f3fe730000000000000000000000000000000000000000301460806040526004361060335760003560e01c80634f2be91f146038575b600080fd5b603e6054565b6040518082815260200191505060405180910390f35b6000600990509056fea2646970667358221220fa34826c74db06296cd59aab736142dc6d8ed1575a42ac9d1cb7b8a34e37f8ad64736f6c63430007060033",
			"opcodes": "PUSH1 0x93 PUSH2 0x24 PUSH1 0xB DUP3 DUP3 DUP3 CODECOPY DUP1 MLOAD PUSH1 0x0 BYTE PUSH1 0x73 EQ PUSH1 0x17 JUMPI INVALID JUMPDEST ADDRESS PUSH1 0x0 MSTORE PUSH1 0x73 DUP2 MSTORE8 DUP3 DUP2 RETURN INVALID PUSH20 0x0 ADDRESS EQ PUSH1 0x80 PUSH1 0x40 MSTORE PUSH1 0x4 CALLDATASIZE LT PUSH1 0x33 JUMPI PUSH1 0x0 CALLDATALOAD PUSH1 0xE0 SHR DUP1 PUSH4 0x4F2BE91F EQ PUSH1 0x38 JUMPI JUMPDEST PUSH1 0x0 DUP1 REVERT JUMPDEST PUSH1 0x3E PUSH1 0x54 JUMP JUMPDEST PUSH1 0x40 MLOAD DUP1 DUP3 DUP2 MSTORE PUSH1 0x20 ADD SWAP2 POP POP PUSH1 0x40 MLOAD DUP1 SWAP2 SUB SWAP1 RETURN JUMPDEST PUSH1 0x0 PUSH1 0x9 SWAP1 POP SWAP1 JUMP INVALID LOG2 PUSH5 0x6970667358 0x22 SLT KECCAK256 STATICCALL CALLVALUE DUP3 PUSH13 0x74DB06296CD59AAB736142DC6D DUP15 0xD1 JUMPI GAS TIMESTAMP 0xAC SWAP14 SHR 0xB7 0xB8 LOG3 0x4E CALLDATACOPY 0xF8 0xAD PUSH5 0x736F6C6343 STOP SMOD MOD STOP CALLER "
		},
		"gasEstimates": {
			"creation": {
				"codeDepositCost": "29400",
				"executionCost": "106",
				"totalCost": "29506"
			},
			"external": {
				"add()": "175"
			}
		},
		"methodIdentifiers": {
			"add()": "4f2be91f"
		}
	},
	"abi": [
		{
			"inputs": [],
			"name": "add",
			"outputs": [
				{
					"internalType": "uint256",
					"name": "",
					"type": "uint256"
				}
			],
			"stateMutability": "pure",
			"type": "function"
		}
	]
}