{
	"data": {
		"bytecode": {
			"linkReferences": {},
			"object": "60806040526005600055600660015534801561001a57600080fd5b506102a68061002a6000396000f3fe608060405234801561001057600080fd5b50600436106100625760003560e01c80630dbe671f14610067578063174c9c7e146100855780633c6bb4361461008f57806395cacbe0146100ad578063e7c898ef146100cb578063fc0e6008146100d5575b600080fd5b61006f6100df565b60405161007c91906101aa565b60405180910390f35b61008d6100e5565b005b61009761010c565b6040516100a491906101aa565b60405180910390f35b6100b5610112565b6040516100c291906101aa565b60405180910390f35b6100d3610118565b005b6100dd610145565b005b60025481565b5b60016000808282546100f891906101f4565b92505081905550600154600054106100e657565b60005481565b60015481565b5b600154600054101561014357600160008082825461013791906101f4565b92505081905550610119565b565b60006002819055505b6005600254101561018f57600160008082825461016b91906101f4565b925050819055506002600081548092919061018590610228565b919050555061014e565b565b6000819050919050565b6101a481610191565b82525050565b60006020820190506101bf600083018461019b565b92915050565b7f4e487b7100000000000000000000000000000000000000000000000000000000600052601160045260246000fd5b60006101ff82610191565b915061020a83610191565b9250828201905080821115610222576102216101c5565b5b92915050565b600061023382610191565b91507fffffffffffffffffffffffffffffffffffffffffffffffffffffffffffffffff8203610265576102646101c5565b5b60018201905091905056fea26469706673582212205fd02616bcd34b7aa693f0bcda45255ef2604b95df3c2056c1ad328932b8a18964736f6c63430008120033",
			"opcodes": "PUSH1 0x80 PUSH1 0x40 MSTORE PUSH1 0x5 PUSH1 0x0 SSTORE PUSH1 0x6 PUSH1 0x1 SSTORE CALLVALUE DUP1 ISZERO PUSH2 0x1A JUMPI PUSH1 0x0 DUP1 REVERT JUMPDEST POP PUSH2 0x2A6 DUP1 PUSH2 0x2A PUSH1 0x0 CODECOPY PUSH1 0x0 RETURN INVALID PUSH1 0x80 PUSH1 0x40 MSTORE CALLVALUE DUP1 ISZERO PUSH2 0x10 JUMPI PUSH1 0x0 DUP1 REVERT JUMPDEST POP PUSH1 0x4 CALLDATASIZE LT PUSH2 0x62 JUMPI PUSH1 0x0 CALLDATALOAD PUSH1 0xE0 SHR DUP1 PUSH4 0xDBE671F EQ PUSH2 0x67 JUMPI DUP1 PUSH4 0x174C9C7E EQ PUSH2 0x85 JUMPI DUP1 PUSH4 0x3C6BB436 EQ PUSH2 0x8F JUMPI DUP1 PUSH4 0x95CACBE0 EQ PUSH2 0xAD JUMPI DUP1 PUSH4 0xE7C898EF EQ PUSH2 0xCB JUMPI DUP1 PUSH4 0xFC0E6008 EQ PUSH2 0xD5 JUMPI JUMPDEST PUSH1 0x0 DUP1 REVERT JUMPDEST PUSH2 0x6F PUSH2 0xDF JUMP JUMPDEST PUSH1 0x40 MLOAD PUSH2 0x7C SWAP2 SWAP1 PUSH2 0x1AA JUMP JUMPDEST PUSH1 0x40 MLOAD DUP1 SWAP2 SUB SWAP1 RETURN JUMPDEST PUSH2 0x8D PUSH2 0xE5 JUMP JUMPDEST STOP JUMPDEST PUSH2 0x97 PUSH2 0x10C JUMP JUMPDEST PUSH1 0x40 MLOAD PUSH2 0xA4 SWAP2 SWAP1 PUSH2 0x1AA JUMP JUMPDEST PUSH1 0x40 MLOAD DUP1 SWAP2 SUB SWAP1 RETURN JUMPDEST PUSH2 0xB5 PUSH2 0x112 JUMP JUMPDEST PUSH1 0x40 MLOAD PUSH2 0xC2 SWAP2 SWAP1 PUSH2 0x1AA JUMP JUMPDEST PUSH1 0x40 MLOAD DUP1 SWAP2 SUB SWAP1 RETURN JUMPDEST PUSH2 0xD3 PUSH2 0x118 JUMP JUMPDEST STOP JUMPDEST PUSH2 0xDD PUSH2 0x145 JUMP JUMPDEST STOP JUMPDEST PUSH1 0x2 SLOAD DUP2 JUMP JUMPDEST JUMPDEST PUSH1 0x1 PUSH1 0x0 DUP1 DUP3 DUP3 SLOAD PUSH2 0xF8 SWAP2 SWAP1 PUSH2 0x1F4 JUMP JUMPDEST SWAP3 POP POP DUP2 SWAP1 SSTORE POP PUSH1 0x1 SLOAD PUSH1 0x0 SLOAD LT PUSH2 0xE6 JUMPI JUMP JUMPDEST PUSH1 0x0 SLOAD DUP2 JUMP JUMPDEST PUSH1 0x1 SLOAD DUP2 JUMP JUMPDEST JUMPDEST PUSH1 0x1 SLOAD PUSH1 0x0 SLOAD LT ISZERO PUSH2 0x143 JUMPI PUSH1 0x1 PUSH1 0x0 DUP1 DUP3 DUP3 SLOAD PUSH2 0x137 SWAP2 SWAP1 PUSH2 0x1F4 JUMP JUMPDEST SWAP3 POP POP DUP2 SWAP1 SSTORE POP PUSH2 0x119 JUMP JUMPDEST JUMP JUMPDEST PUSH1 0x0 PUSH1 0x2 DUP2 SWAP1 SSTORE POP JUMPDEST PUSH1 0x5 PUSH1 0x2 SLOAD LT ISZERO PUSH2 0x18F JUMPI PUSH1 0x1 PUSH1 0x0 DUP1 DUP3 DUP3 SLOAD PUSH2 0x16B SWAP2 SWAP1 PUSH2 0x1F4 JUMP JUMPDEST SWAP3 POP POP DUP2 SWAP1 SSTORE POP PUSH1 0x2 PUSH1 0x0 DUP2 SLOAD DUP1 SWAP3 SWAP2 SWAP1 PUSH2 0x185 SWAP1 PUSH2 0x228 JUMP JUMPDEST SWAP2 SWAP1 POP SSTORE POP PUSH2 0x14E JUMP JUMPDEST JUMP JUMPDEST PUSH1 0x0 DUP2 SWAP1 POP SWAP2 SWAP1 POP JUMP JUMPDEST PUSH2 0x1A4 DUP2 PUSH2 0x191 JUMP JUMPDEST DUP3 MSTORE POP POP JUMP JUMPDEST PUSH1 0x0 PUSH1 0x20 DUP3 ADD SWAP1 POP PUSH2 0x1BF PUSH1 0x0 DUP4 ADD DUP5 PUSH2 0x19B JUMP JUMPDEST SWAP3 SWAP2 POP POP JUMP JUMPDEST PUSH32 0x4E487B7100000000000000000000000000000000000000000000000000000000 PUSH1 0x0 MSTORE PUSH1 0x11 PUSH1 0x4 MSTORE PUSH1 0x24 PUSH1 0x0 REVERT JUMPDEST PUSH1 0x0 PUSH2 0x1FF DUP3 PUSH2 0x191 JUMP JUMPDEST SWAP2 POP PUSH2 0x20A DUP4 PUSH2 0x191 JUMP JUMPDEST SWAP3 POP DUP3 DUP3 ADD SWAP1 POP DUP1 DUP3 GT ISZERO PUSH2 0x222 JUMPI PUSH2 0x221 PUSH2 0x1C5 JUMP JUMPDEST JUMPDEST SWAP3 SWAP2 POP POP JUMP JUMPDEST PUSH1 0x0 PUSH2 0x233 DUP3 PUSH2 0x191 JUMP JUMPDEST SWAP2 POP PUSH32 0xFFFFFFFFFFFFFFFFFFFFFFFFFFFFFFFFFFFFFFFFFFFFFFFFFFFFFFFFFFFFFFFF DUP3 SUB PUSH2 0x265 JUMPI PUSH2 0x264 PUSH2 0x1C5 JUMP JUMPDEST JUMPDEST PUSH1 0x1 DUP3 ADD SWAP1 POP SWAP2 SWAP1 POP JUMP INVALID LOG2 PUSH5 0x6970667358 0x22 SLT KECCAK256 0x5F 0xD0 0x26 AND 0xBC 0xD3 0x4B PUSH27 0xA693F0BCDA45255EF2604B95DF3C2056C1AD328932B8A18964736F PUSH13 0x63430008120033000000000000 "
		},
		"gasEstimates": {
			"creation": {
				"codeDepositCost": "135600",
				"executionCost": "44395",
				"totalCost": "179995"
			},
			"external": {
				"a()": "2407",
				"doWhileLoop()": "infinite",
				"forLoop()": "infinite",
				"val()": "2451",
				"val2()": "2473",
				"whileLoop()": "infinite"
			}
		},
		"methodIdentifiers": {
			"a()": "0dbe671f",
			"doWhileLoop()": "174c9c7e",
			"forLoop()": "fc0e6008",
			"val()": "3c6bb436",
			"val2()": "95cacbe0",
			"whileLoop()": "e7c898ef"
		}
	},
	"abi": [
		{
			"inputs": [],
			"name": "a",
			"outputs": [
				{
					"internalType": "uint256",
					"name": "",
					"type": "uint256"
				}
			],
			"stateMutability": "view",
			"type": "function"
		},
		{
			"inputs": [],
			"name": "doWhileLoop",
			"outputs": [],
			"stateMutability": "nonpayable",
			"type": "function"
		},
		{
			"inputs": [],
			"name": "forLoop",
			"outputs": [],
			"stateMutability": "nonpayable",
			"type": "function"
		},
		{
			"inputs": [],
			"name": "val",
			"outputs": [
				{
					"internalType": "uint256",
					"name": "",
					"type": "uint256"
				}
			],
			"stateMutability": "view",
			"type": "function"
		},
		{
			"inputs": [],
			"name": "val2",
			"outputs": [
				{
					"internalType": "uint256",
					"name": "",
					"type": "uint256"
				}
			],
			"stateMutability": "view",
			"type": "function"
		},
		{
			"inputs": [],
			"name": "whileLoop",
			"outputs": [],
			"stateMutability": "nonpayable",
			"type": "function"
		}
	]
}