{
	"data": {
		"bytecode": {
			"linkReferences": {},
			"object": "60806040526004600055600460015534801561001a57600080fd5b5060e8806100296000396000f3fe6080604052348015600f57600080fd5b5060043610603c5760003560e01c80633c6bb4361460415780636d4ce63c14605d578063d2178b08146079575b600080fd5b60476095565b6040518082815260200191505060405180910390f35b6063609b565b6040518082815260200191505060405180910390f35b607f60a4565b6040518082815260200191505060405180910390f35b60005481565b60008054905090565b60006001546000540190509056fea264697066735822122046bd36611821f8c4df27958ba141e781b8f501003c877bfa01fa2a760a5f36ba64736f6c63430007060033",
			"opcodes": "PUSH1 0x80 PUSH1 0x40 MSTORE PUSH1 0x4 PUSH1 0x0 SSTORE PUSH1 0x4 PUSH1 0x1 SSTORE CALLVALUE DUP1 ISZERO PUSH2 0x1A JUMPI PUSH1 0x0 DUP1 REVERT JUMPDEST POP PUSH1 0xE8 DUP1 PUSH2 0x29 PUSH1 0x0 CODECOPY PUSH1 0x0 RETURN INVALID PUSH1 0x80 PUSH1 0x40 MSTORE CALLVALUE DUP1 ISZERO PUSH1 0xF JUMPI PUSH1 0x0 DUP1 REVERT JUMPDEST POP PUSH1 0x4 CALLDATASIZE LT PUSH1 0x3C JUMPI PUSH1 0x0 CALLDATALOAD PUSH1 0xE0 SHR DUP1 PUSH4 0x3C6BB436 EQ PUSH1 0x41 JUMPI DUP1 PUSH4 0x6D4CE63C EQ PUSH1 0x5D JUMPI DUP1 PUSH4 0xD2178B08 EQ PUSH1 0x79 JUMPI JUMPDEST PUSH1 0x0 DUP1 REVERT JUMPDEST PUSH1 0x47 PUSH1 0x95 JUMP JUMPDEST PUSH1 0x40 MLOAD DUP1 DUP3 DUP2 MSTORE PUSH1 0x20 ADD SWAP2 POP POP PUSH1 0x40 MLOAD DUP1 SWAP2 SUB SWAP1 RETURN JUMPDEST PUSH1 0x63 PUSH1 0x9B JUMP JUMPDEST PUSH1 0x40 MLOAD DUP1 DUP3 DUP2 MSTORE PUSH1 0x20 ADD SWAP2 POP POP PUSH1 0x40 MLOAD DUP1 SWAP2 SUB SWAP1 RETURN JUMPDEST PUSH1 0x7F PUSH1 0xA4 JUMP JUMPDEST PUSH1 0x40 MLOAD DUP1 DUP3 DUP2 MSTORE PUSH1 0x20 ADD SWAP2 POP POP PUSH1 0x40 MLOAD DUP1 SWAP2 SUB SWAP1 RETURN JUMPDEST PUSH1 0x0 SLOAD DUP2 JUMP JUMPDEST PUSH1 0x0 DUP1 SLOAD SWAP1 POP SWAP1 JUMP JUMPDEST PUSH1 0x0 PUSH1 0x1 SLOAD PUSH1 0x0 SLOAD ADD SWAP1 POP SWAP1 JUMP INVALID LOG2 PUSH5 0x6970667358 0x22 SLT KECCAK256 CHAINID 0xBD CALLDATASIZE PUSH2 0x1821 0xF8 0xC4 0xDF 0x27 SWAP6 DUP12 LOG1 COINBASE 0xE7 DUP2 0xB8 CREATE2 ADD STOP EXTCODECOPY DUP8 PUSH28 0xFA01FA2A760A5F36BA64736F6C634300070600330000000000000000 "
		},
		"gasEstimates": {
			"creation": {
				"codeDepositCost": "46400",
				"executionCost": "40111",
				"totalCost": "86511"
			},
			"external": {
				"get()": "1013",
				"get2()": "1841",
				"val()": "983"
			}
		},
		"methodIdentifiers": {
			"get()": "6d4ce63c",
			"get2()": "d2178b08",
			"val()": "3c6bb436"
		}
	},
	"abi": [
		{
			"inputs": [],
			"name": "get",
			"outputs": [
				{
					"internalType": "uint256",
					"name": "",
					"type": "uint256"
				}
			],
			"stateMutability": "view",
			"type": "function"
		},
		{
			"inputs": [],
			"name": "get2",
			"outputs": [
				{
					"internalType": "uint256",
					"name": "",
					"type": "uint256"
				}
			],
			"stateMutability": "view",
			"type": "function"
		},
		{
			"inputs": [],
			"name": "val",
			"outputs": [
				{
					"internalType": "uint256",
					"name": "",
					"type": "uint256"
				}
			],
			"stateMutability": "view",
			"type": "function"
		}
	]
}